:020000040800F2
:1000000000500020610F0008010B0008090B0008D8
:10001000110B0008190B0008210B0008000000005C
:10002000000000000000000000000000015800086F
:10003000290B000800000000E1590008295A0008B7
:10004000A90F0008A90F0008A90F0008A90F0008B0
:10005000A90F0008A90F0008A90F0008A90F0008A0
:10006000A90F0008A90F0008A90F0008A90F000890
:10007000A90F0008A90F0008A90F0008A90F000880
:10008000A90F0008A90F0008A90F0008A90F000870
:10009000A90F0008A90F0008A90F0008A90F000860
:1000A000A90F0008350B0008A90F0008A90F0008C8
:1000B000A90F0008A90F0008A90F0008A90F000840
:1000C000A90F0008A90F0008A90F0008A90F000830
:1000D000A90F0008A90F0008A90F0008A90F000820
:1000E000A90F0008A90F0008A90F000800000000D0
:1000F0000000000000000000000000000000000000
:0C01000000000000000000005FF808F1A3
:1001100010B5054C237833B9044B13B10448AFF341
:1001200000800123237010BD280000200000000083
:10013000605F000808B5034B1BB103490348AFF3E8
:10014000008008BD000000002C000020605F000857
:1001500080B584B000AF78600023FB737B68012B0F
:1001600002D90123FB735AE02F497A6813469B009A
:1001700013449B000B4410331B78022B4DD12A49AA
:100180007A6813469B0013449B000B4411331B7881
:10019000002B07D1254B1B6825497A6851F822208E
:1001A0005A632CE020497A6813469B0013449B0055
:1001B0000B4411331B78042B07D11C4B1A681C49C4
:1001C0007B6851F82330936319E017497A68134626
:1001D0009B0013449B000B4411331B78082B07D161
:1001E000124B1A6812497B6851F82330D36306E03A
:1001F0000E4B1A680E497B6851F8233013640A4984
:100200007A6813469B0013449B000B4411331B7800
:100210001946064801F0B2FE01E00123FB73FB7BA7
:1002200018461037BD4680BDBC5F0008DC000020CA
:100230000000002080B584B000AF78600023FB731D
:100240007B68012B02D90123FB731AE00F497A68FE
:1002500013469B0013449B000B4410331B78022B66
:100260000DD10A497A6813469B0013449B000B4446
:1002700011331B781946064801F022FF01E00123E3
:10028000FB73FB7B18461037BD4680BDBC5F000882
:10029000DC00002080B584B000AF78600023FB73E1
:1002A0007B68012B02D90123FB7387E046497A68FA
:1002B00013469B0013449B000B44043318684249C7
:1002C0007A6813469B0013449B000B441B689BB247
:1002D0000022194601F000F93B497A6813469B0059
:1002E00013449B000B440C33186837497A68134653
:1002F0009B0013449B000B4408331B689BB20122F4
:10030000194601F0E9F830497A6813469B00134416
:100310009B000B4410331B78022B4DD12A497A687D
:1003200013469B0013449B000B4411331B78002B96
:1003300007D1264B1B6826497A6851F822205A6358
:100340002CE021497A6813469B0013449B000B4420
:1003500011331B78042B07D11C4B1A681C497B688E
:1003600051F82330936319E017497A6813469B00CC
:1003700013449B000B4411331B78082B07D1134BFC
:100380001A6813497B6851F82330D36306E00F4B9A
:100390001A680F497B6851F8233013640A497A6858
:1003A00013469B0013449B000B4411331B781946E2
:1003B000064801F0E3FD01E00123FB73FB7B1846D7
:1003C0001037BD4680BD00BFBC5F0008DC000020C8
:1003D0000000002080B485B000AF78603960002351
:1003E000FB737B68012B02D90123FB735AE0304970
:1003F0007A6813469B0013449B000B4410331B7810
:10040000022B4DD13B6842F2107202FB03F3294AE2
:10041000A2FB03235A0928497B6841F82320244979
:100420007A6813469B0013449B000B4411331B78DE
:10043000002B07D1214B1B681F497A6851F82220F5
:100440005A632FE01A497A6813469B0013449B00B5
:100450000B4411331B78042B07D1184B1A6816492B
:100460007B6851F8233093631CE011497A68134686
:100470009B0013449B000B4411331B78082B07D1BE
:100480000E4B1A680C497B6851F82330D36309E09E
:100490000A4B1A6808497B6851F82330136401E05D
:1004A0000123FB73FB7B18461437BD4680BC7047A5
:1004B000BC5F00081F85EB5100000020DC0000201D
:1004C00080B582B000AF0023FB71022301221449E2
:1004D000144802F06DFE0346BB71BB79002B02D1BC
:1004E0000F4B1B78FB71FB79462B05D101224FF492
:1004F00000510D4800F0F0FF094B1B78DBB2422B96
:1005000005D100224FF40051074800F0E5FF044BED
:1005100000221A70FB7918460837BD4680BD00BF1F
:1005200044000020240100200010014080B582B06A
:1005300000AF7860FFF7C4FF03461A46034B1A70FA
:100540000A2004F075F800BFF4E700BF080000209F
:1005500080B582B000AF00237B6032210120FFF71D
:1005600039FF6F4B1B78FF2B75D0FF2B00F3D0802A
:10057000392B6BDC302B80F2B280C9E0423B2F2B51
:1005800000F2C68001A252F823F000BF8D060008D9
:100590001107000811070008110700086906000884
:1005A00011070008110700081107000811070008CB
:1005B00011070008C5060008110700081107000808
:1005C000110700081107000811070008B10600080C
:1005D000FD060008110700081107000811070008B0
:1005E000110700081107000811070008110700088B
:1005F000110700081107000811070008110700087B
:10060000110700081107000811070008110700086A
:10061000110700081107000811070008110700085A
:10062000110700081107000811070008110700084A
:10063000110700081107000811070008110700083A
:100640001107000811070008D9060008712B5FDCAC
:10065000422B93DA5CE07B68002B5BDD00237B6040
:100660000120FFF7E7FD55E02D4B1B7B522B03D0FC
:100670002B4B1B7B4C2B02D10120FFF7DBFD002015
:10068000FFF766FD264BFF221A7044E0244B1B7BCC
:10069000522B03D0224B1B7B4C2B02D10120FFF7A6
:1006A000C9FD0020FFF7F6FD1D4BFF221A7032E056
:1006B0000120FFF7EFFD7B6801337B60184BFF22C1
:1006C0001A7028E00120FFF743FD7B6801337B604F
:1006D000134BFF221A701EE0114B64221A70104B4C
:1006E0001B7819460020FFF775FE0D4B1B781A4644
:1006F0000B4B9A600A4BFF221A700CE00020FFF7A8
:1007000099FD0120FFF796FD054BFF221A7002E0CC
:1007100000BF00E000BF022003F08AFF21E700BF16
:100720000800002080B500AF044A0021044802F010
:1007300033FF0346034A136000BF80BDE45F000837
:10074000490700084800002080B582B000AF7860FB
:10075000012002F0CBFFFBE780B588B000AF07F1C6
:10076000100300221A605A609A60DA60384B9B6965
:10077000374A43F010039361354B9B6903F0100334
:10078000FB60FB68324B9B69314A43F00403936181
:100790002F4B9B6903F00403BB60BB682C4B9B6928
:1007A0002B4A43F008039361294B9B6903F008032C
:1007B0007B607B6800224FF40051264800F08CFEDD
:1007C00000221E21244800F087FE00224FF4A041A1
:1007D000224800F081FE4FF400533B6101237B610E
:1007E0000023BB610223FB6107F11003194619487E
:1007F00000F0EEFC1E233B6101237B610023BB6103
:100800000223FB6107F110031946134800F0E0FCD6
:100810004FF4A0433B6101237B610023BB610223B2
:10082000FB6107F1100319460C4800F0D1FC4FF4AE
:1008300020433B6100237B610023BB6107F1100370
:100840001946064800F0C4FC00BF2037BD4680BDF5
:10085000001002400010014000080140000C01405F
:1008600080B584B002AF00F0A1FB00230193032305
:100870000093012364221F491F4803F09CFD0023BD
:10088000019302230093012364221C491C4803F0B6
:1008900092FD00F037F8FFF75FFF00F0EBFA00F091
:1008A000B7F900F057F902F011FEFFF73BFF02F035
:1008B0003FFE4FF0804341F288329A6300237B6011
:1008C00002E07B6801337B607B6847F22F529342E2
:1008D000F7DD4FF0804342F210729A6300233B60D1
:1008E00002E03B6801333B603B6847F22F52934282
:1008F000F7DDDEE7845F000851050008945F00081B
:100900002D05000880B590B000AF07F1180328222C
:100910000021184605F0EAFA3B1D00221A605A60D1
:100920009A60DA601A610223BB610123BB62102363
:10093000FB6200237B6307F11803184600F0E4FD17
:100940000346002B01D000F02BF80F237B6000231F
:10095000BB600023FB6000233B6100237B613B1DE8
:100960000021184601F052F80346002B01D000F098
:1009700017F800BF4037BD4680BD000080B582B08B
:1009800000AF78607B681B68044A934201D100F095
:1009900023FB00BF0837BD4680BD00BF002C0140CF
:1009A00080B400AF72B600BF00BFFDE780B584B071
:1009B00000AF184B9B69174A43F001039361154B35
:1009C0009B6903F00103BB60BB68124BDB69114AF2
:1009D00043F08053D3610F4BDB6903F080537B609E
:1009E0007B6800220F216FF0010000F0C6FB0A4B6C
:1009F0005B68FB60FB6823F0E063FB60FB6843F02F
:100A00000073FB60044AFB68536000BF1037BD46AB
:100A100080BD00BF001002400000014080B58CB0D6
:100A200000AF78600023BB6200237B62002387F85D
:100A30002F302E4B9B692D4A43F4006393612B4B5F
:100A40009B6903F40063BB60BB6807F10C0207F10C
:100A500010031146184601F049F901F033F9B86264
:100A6000BB6A234AA2FB03239B0C013B7B62214B05
:100A7000214A1A601F4B40F2E732DA601D4A7B6A56
:100A800053601C4B00221A611A4B00229A60194BCA
:100A900000229A61174801F077F9034687F82F3052
:100AA00097F82F30002B1BD1124801F0BDF90346F7
:100AB00087F82F3097F82F30002B11D1192000F034
:100AC00078FB7B680F2B08D800227968192000F08A
:100AD00054FB0A4A7B68136002E0012387F82F3039
:100AE00097F82F3018463037BD4680BD00100240C1
:100AF00083DE1B434C000020002C01401C00002022
:100B000080B400AF00BFFDE780B400AF00BFFDE7D9
:100B100080B400AF00BFFDE780B400AF00BFFDE7C9
:100B200080B400AF00BFFDE780B400AF00BFBD469A
:100B300080BC704780B500AF024801F074FB00BF75
:100B400080BD00BF4C00002080B400AF00BFBD4698
:100B500080BC704780B586B000AF07F1100300225B
:100B60001A605A603B4600221A605A609A60DA6046
:100B7000264B4FF080421A60244B07225A60234BC9
:100B800000229A60214B4FF6FF72DA601F4B002261
:100B90001A611E4B00229A611C4801F0F5FA0346C7
:100BA000002B01D0FFF7FCFE00233B6100237B619B
:100BB00007F110031946154802F03AFA0346002BD4
:100BC00001D0FFF7EDFE00233B6001237B60002393
:100BD000BB600423FB603B46002219460B4801F032
:100BE0002AFC0346002B01D0FFF7DAFE3B46042225
:100BF0001946064801F01FFC0346002B01D0FFF701
:100C0000CFFE00BF1837BD4680BD00BF9400002056
:100C100080B58EB000AF07F1280300221A605A6039
:100C20009A60DA6007F1200300221A605A603B1DC7
:100C300000221A605A609A60DA601A615A619A61F9
:100C40002C4B2D4A1A602B4B07225A60294B00224D
:100C50009A60284B44F62062DA60264B00221A6123
:100C6000244B00229A61234801F08EF80346002BA2
:100C700001D0FFF795FE4FF48053BB6207F12803C4
:100C800019461C4801F036FD0346002B01D0FFF742
:100C900087FE184801F01AF90346002B01D0FFF730
:100CA0007FFE00233B6200237B6207F1200319468D
:100CB000104802F0BDF90346002B01D0FFF770FE8B
:100CC00060237B600023BB600023FB6000237B610B
:100CD0003B1D00221946074801F04AFC0346002B41
:100CE00001D0FFF75DFE034800F092F800BF3837EF
:100CF000BD4680BDDC0000200004004080B58AB005
:100D000000AF786007F1140300221A605A609A60FD
:100D1000DA607B681B68B3F1804F4ED1294BDB69E9
:100D2000284A43F00103D361264BDB6903F001033A
:100D30003B613B69234B9B69224A43F00403936167
:100D4000204B9B6903F00403FB60FB681D4B9B6910
:100D50001C4A43F0080393611A4B9B6903F0080394
:100D6000BB60BB684FF400437B610023BB61002381
:100D7000FB6107F114031946134800F029FA082310
:100D80007B610023BB610023FB6107F1140319465B
:100D90000E4800F01DFA0E4B5B687B627B6A23F401
:100DA00040737B627B6A43F0E0637B627B6A43F45F
:100DB00080737B62064A7B6A536000BF2837BD465A
:100DC00080BD00BF0010024000080140000C01403F
:100DD0000000014080B485B000AF78607B681B687C
:100DE000094A93420BD1094BDB69084A43F00203DD
:100DF000D361064BDB6903F00203FB60FB6800BFB5
:100E00001437BD4680BC704700040040001002400B
:100E100080B588B000AF786007F1100300221A6037
:100E20005A609A60DA607B681B680F4A934217D158
:100E30000E4B9B690D4A43F0040393610B4B9B6976
:100E400003F00403FB60FB6840233B6102237B61EA
:100E50000223FB6107F110031946054800F0B8F9B9
:100E600000BF2037BD4680BD000400400010024096
:100E70000008014080B500AF114B124A1A60104BB8
:100E80004FF416525A600E4B00229A600C4B00220F
:100E9000DA600B4B00221A61094B0C225A61084B95
:100EA00000229A61064B0022DA61054802F030F90F
:100EB0000346002B01D0FFF773FD00BF80BD00BFCC
:100EC000240100200038014080B588B000AF786070
:100ED00007F1100300221A605A609A60DA607B689A
:100EE0001B681C4A934231D11B4B9B691A4A43F43D
:100EF00080439361184B9B6903F48043FB60FB685C
:100F0000154B9B69144A43F004039361124B9B6990
:100F100003F00403BB60BB684FF400733B61022322
:100F20007B610323FB6107F1100319460B4800F0B6
:100F30004FF94FF480633B6100237B610023BB6169
:100F400007F110031946054800F042F900BF2037A9
:100F5000BD4680BD0038014000100240000801403D
:100F6000FFF7F2FD0B480C490C4A002302E0D4586D
:100F7000C4500433C4188C42F9D3094A094C0023E5
:100F800001E013600432A242FBD304F0B7FFFFF785
:100F900067FC704700000020280000203C6000082B
:100FA00028000020B81A0020FEE7000080B500AF3E
:100FB000084B1B68074A43F010031360032000F03E
:100FC000D1F80F20FFF72AFDFFF7F0FC00231846A9
:100FD00080BD00BF0020024080B400AF054B1B78ED
:100FE0001A46054B1B681344034A136000BFBD46F5
:100FF00080BC7047200000206C01002080B400AF4E
:10100000024B1B681846BD4680BC70476C0100202F
:1010100080B485B000AF78607B6803F00703FB60A5
:101020000C4BDB68BB60BA684FF6FF031340BB6034
:10103000FB681A02BB68134343F0BF6343F40033F9
:10104000BB60044ABB68D36000BF1437BD4680BC98
:10105000704700BF00ED00E080B400AF044BDB68D8
:101060001B0A03F007031846BD4680BC704700BF4B
:1010700000ED00E080B483B000AF0346FB7197F948
:101080000730002B0BDBFB7903F01F02064997F9B1
:1010900007305B09012000FA02F241F8232000BF6B
:1010A0000C37BD4680BC704700E100E080B483B0DF
:1010B00000AF03463960FB7197F90730002B0ADB5C
:1010C0003B68DAB20C4997F907301201D2B20B44EF
:1010D00083F800230AE03B68DAB20849FB7903F0A1
:1010E0000F03043B1201D2B20B441A7600BF0C3737
:1010F000BD4680BC704700BF00E100E000ED00E0AD
:1011000080B489B000AFF860B9607A60FB6803F022
:101110000703FB61FB69C3F10703042B28BF04230A
:10112000BB61FB690433062B02D9FB69033B00E07A
:1011300000237B614FF0FF32BB6902FA03F3DA430D
:10114000BB681A407B699A404FF0FF317B6901FA16
:1011500003F3D9437B680B40134318462437BD463D
:1011600080BC704780B582B000AF78607868FFF7C8
:101170004FFF00BF0837BD4680BD80B586B000AFC9
:101180000346B9607A60FB7300237B61FFF764FF5D
:1011900078617A68B9687869FFF7B2FF024697F913
:1011A0000F3011461846FFF781FF00BF1837BD46C4
:1011B00080BD80B582B000AF0346FB7197F9073060
:1011C0001846FFF757FF00BF0837BD4680BD000037
:1011D00080B48BB000AF7860396000237B6200235D
:1011E0003B6269E101227B6A02FA03F3FB613B681F
:1011F0001B68FA691340BB61BA69FB699A4240F007
:1012000058813B685B689A4A93425ED0984A934201
:1012100075D8984A934258D0964A93426FD8964AC6
:10122000934252D0944A934269D8944A93424CD004
:10123000924A934263D8924A934246D0904A93424C
:101240005DD8122B2AD8122B59D801A252F823F0BC
:10125000CB120008A5120008B7120008F912000806
:10126000FF120008FF120008FF120008FF1200081A
:10127000FF120008FF120008FF120008FF1200080A
:10128000FF120008FF120008FF120008FF120008FA
:10129000FF120008AD120008C1120008794A9342FB
:1012A00013D02CE03B68DB683B6229E03B68DB68DD
:1012B00004333B6224E03B68DB6808333B621FE099
:1012C0003B68DB680C333B621AE03B689B68002B91
:1012D00002D104233B6213E03B689B68012B05D1DC
:1012E00008233B627B68FA691A6109E008233B62C4
:1012F0007B68FA695A6103E000233B6200E000BFAB
:10130000BB69FF2B01D87B6801E07B6804337B61FC
:10131000BB69FF2B02D87B6A9B0002E07B6A083B1B
:101320009B003B617B691A680F213B6901FA03F35B
:10133000DB431A40396A3B6901FA03F31A437B69BC
:101340001A603B685B6803F08053002B00F0B180AB
:101350004D4B9B694C4A43F0010393614A4B9B6997
:1013600003F00103BB60BB68484A7B6A9B080233F9
:1013700052F82330FB607B6A03F003039B000F22CB
:1013800002FA03F3DB43FA681340FB607B68404AD0
:10139000934213D07B683F4A93420DD07B683E4A0C
:1013A000934207D07B683D4A934201D1032306E074
:1013B000042304E0022302E0012300E000237A6A10
:1013C00002F0030292009340FA681343FB602F4936
:1013D0007B6A9B080233FA6841F823203B685B680C
:1013E00003F48013002B06D02D4B9A682C49BB695F
:1013F00013438B6006E02A4B9A68BB69DB4328499C
:1014000013408B603B685B6803F40013002B06D02D
:10141000234BDA682249BB691343CB6006E0204BBB
:10142000DA68BB69DB431E491340CB603B685B68ED
:1014300003F40033002B06D0194B5A681849BB69D6
:1014400013434B6006E0164B5A68BB69DB431449F3
:1014500013404B603B685B6803F48033002B21D062
:101460000F4B1A680E49BB6913430B6021E000BFA4
:101470000000321000003110000022100000211086
:101480000000121000001110001002400000014086
:1014900000080140000C0140001001400014014010
:1014A000000401400B4B1A68BB69DB430949134038
:1014B0000B607B6A01337B623B681A687B6A22FAA5
:1014C00003F3002B7FF48EAE00BF00BF2C37BD4668
:1014D00080BC70470004014080B483B000AF7860E6
:1014E0000B467B8013467B707B78002B03D07A8879
:1014F0007B681A6103E07B881A047B681A6100BF6D
:101500000C37BD4680BC704780B586B000AF7860B0
:101510007B68002B01D1012372E27B681B6803F01A
:101520000103002B00F08780924B5B6803F00C03F3
:10153000042B0CD08F4B5B6803F00C03082B12D1EB
:101540008C4B5B6803F48033B3F5803F0BD1894B40
:101550001B6803F40033002B6CD07B685B68002BA6
:1015600068D101234CE27B685B68B3F5803F06D10C
:10157000804B1B687F4A43F4803313602EE07B6806
:101580005B68002B0CD17B4B1B687A4A23F48033B9
:101590001360784B1B68774A23F4802313601DE0A7
:1015A0007B685B68B3F5A02F0CD1724B1B68714A46
:1015B00043F4802313606F4B1B686E4A43F48033FF
:1015C00013600BE06B4B1B686A4A23F48033136093
:1015D000684B1B68674A23F4802313607B685B6851
:1015E000002B13D0FFF70AFD386108E0FFF706FD76
:1015F00002463B69D31A642B01D9032300E25D4BF9
:101600001B6803F40033002BF0D014E0FFF7F6FC66
:10161000386108E0FFF7F2FC02463B69D31A642BFD
:1016200001D90323ECE1534B1B6803F40033002B77
:10163000F0D100E000BF7B681B6803F00203002BC1
:1016400063D04C4B5B6803F00C03002B0BD0494B71
:101650005B6803F00C03082B1CD1464B5B6803F45A
:101660008033002B16D1434B1B6803F00203002B81
:1016700005D07B681B69012B01D00123C0E13D4BE4
:101680001B6823F0F8027B685B69DB003949134370
:101690000B603AE07B681B69002B20D0364B01229F
:1016A0001A60FFF7ABFC386108E0FFF7A7FC0246C1
:1016B0003B69D31A022B01D90323A1E12D4B1B68EF
:1016C00003F00203002BF0D02A4B1B6823F0F80232
:1016D0007B685B69DB00274913430B6015E0264BF1
:1016E00000221A60FFF78AFC386108E0FFF786FCE9
:1016F00002463B69D31A022B01D9032380E11D4B1B
:101700001B6803F00203002BF0D17B681B6803F019
:101710000803002B3AD07B689B69002B19D0174B2C
:1017200001221A60FFF76AFC386108E0FFF766FCE7
:1017300002463B69D31A022B01D9032360E10D4B0A
:101740005B6A03F00203002BF0D0012000F0FEFAE8
:101750001CE00A4B00221A60FFF750FC38610FE0D2
:10176000FFF74CFC02463B69D31A022B08D903232E
:1017700046E100BF001002400000424280044242A5
:10178000924B5B6A03F00203002BE9D17B681B6874
:1017900003F00403002B00F0A6800023FB758B4BA5
:1017A000DB6903F08053002B0DD1884BDB69874A3E
:1017B00043F08053D361854BDB6903F08053BB60FA
:1017C000BB680123FB75824B1B6803F48073002BFD
:1017D00018D17F4B1B687E4A43F480731360FFF778
:1017E0000DFC386108E0FFF709FC02463B69D31A9B
:1017F000642B01D9032303E1754B1B6803F4807349
:10180000002BF0D07B68DB68012B06D16F4B1B6A85
:101810006E4A43F0010313622DE07B68DB68002B06
:101820000CD16A4B1B6A694A23F001031362674BB0
:101830001B6A664A23F0040313621CE07B68DB68C2
:10184000052B0CD1614B1B6A604A43F00403136201
:101850005E4B1B6A5D4A43F0010313620BE05B4B76
:101860001B6A5A4A23F001031362584B1B6A574AFA
:1018700023F0040313627B68DB68002B15D0FFF7AD
:10188000BDFB38610AE0FFF7B9FB02463B69D31A9A
:1018900041F28832934201D90323B1E04B4B1B6ADA
:1018A00003F00203002BEED014E0FFF7A7FB386132
:1018B0000AE0FFF7A3FB02463B69D31A41F28832E4
:1018C000934201D903239BE0404B1B6A03F00203C0
:1018D000002BEED1FB7D012B05D13C4BDB693B4A54
:1018E00023F08053D3617B68DB69002B00F0878095
:1018F000364B5B6803F00C03082B61D07B68DB6917
:10190000022B46D1334B00221A60FFF777FB386178
:1019100008E0FFF773FB02463B69D31A022B01D99B
:1019200003236DE0294B1B6803F00073002BF0D1FB
:101930007B681B6AB3F5803F08D1244B5B6823F4B6
:1019400000327B689B68214913434B601F4B5B68E7
:1019500023F474127B68196A7B685B6A0B431B492A
:1019600013434B601B4B01221A60FFF747FB3861A2
:1019700008E0FFF743FB02463B69D31A022B01D96B
:1019800003233DE0114B1B6803F00073002BF0D0E4
:1019900035E0104B00221A60FFF730FB386108E099
:1019A000FFF72CFB02463B69D31A022B01D9032314
:1019B00026E0064B1B6803F00073002BF0D11EE0FD
:1019C0007B68DB69012B07D1012319E0001002407D
:1019D00000700040600042420B4B5B68FB60FB689C
:1019E00003F480327B681B6A9A4206D1FB6803F4D9
:1019F00070127B685B6A9A4201D0012300E00023E9
:101A000018461837BD4680BD0010024080B584B02E
:101A100000AF786039607B68002B01D10123D0E0F2
:101A20006A4B1B6803F007033A689A4210D9674B68
:101A30001B6823F0070265493B6813430B60634B47
:101A40001B6803F007033A689A4201D00123B8E00B
:101A50007B681B6803F00203002B20D07B681B68A7
:101A600003F00403002B05D0594B5B68584A43F43C
:101A7000E06353607B681B6803F00803002B05D00C
:101A8000534B5B68524A43F460535360504B5B685E
:101A900023F0F0027B689B684D4913434B607B68E1
:101AA0001B6803F00103002B40D07B685B68012BAF
:101AB00007D1474B1B6803F40033002B15D10123DA
:101AC0007FE07B685B68022B07D1414B1B6803F00A
:101AD0000073002B09D1012373E03D4B1B6803F019
:101AE0000203002B01D101236BE0394B5B6823F02B
:101AF00003027B685B68364913434B60FFF77EFA4D
:101B0000F8600AE0FFF77AFA0246FB68D31A41F25E
:101B10008832934201D9032353E02D4B5B6803F0D5
:101B20000C027B685B689B009A42EBD1274B1B68D9
:101B300003F007033A689A4210D2244B1B6823F043
:101B4000070222493B6813430B60204B1B6803F0DC
:101B500007033A689A4201D0012332E07B681B6890
:101B600003F00403002B08D0194B5B6823F4E062F8
:101B70007B68DB68164913434B607B681B6803F086
:101B80000803002B09D0124B5B6823F460527B687A
:101B90001B69DB000E4913434B6000F021F802463D
:101BA0000B4B5B681B0903F00F030A49CB5C22FA5D
:101BB00003F3094A1360094B1B681846FEF72EFF12
:101BC000002318461037BD4680BD00BF00200240EC
:101BD0000010024008600008180000201C000020CF
:101BE00080B487B000AF0023FB600023BB600023FC
:101BF0007B6100237B6000233B611E4B5B68FB60C5
:101C0000FB6803F00C03042B02D0082B03D027E061
:101C1000194B3B6127E0FB689B0C03F00F03174A4D
:101C2000D35C7B60FB6803F48033002B10D0114B36
:101C30005B685B0C03F00103114AD35CBB607B68FB
:101C40000D4A03FB02F2BB68B2FBF3F37B6104E0D5
:101C50007B680C4A02FB03F37B617B693B6102E01A
:101C6000054B3B6100BF3B6918461C37BD4680BC35
:101C7000704700BF0010024000127A002060000888
:101C80003060000800093D0080B400AF024B1B68C3
:101C90001846BD4680BC70471800002080B500AFD4
:101CA000FFF7F2FF0246054B5B681B0A03F00703D0
:101CB0000349CB5C22FA03F3184680BD00100240B2
:101CC0001860000880B500AFFFF7DEFF0246054B45
:101CD0005B68DB0A03F007030349CB5C22FA03F3DA
:101CE000184680BD001002401860000880B483B020
:101CF00000AF786039607B680F221A60114B5B6817
:101D000003F003027B685A600E4B5B6803F0F0023D
:101D10007B689A600B4B5B6803F4E0627B68DA6077
:101D2000084B5B68DB0803F4E0627B681A61064BD2
:101D30001B6803F007023B681A6000BF0C37BD4602
:101D400080BC7047001002400020024080B485B083
:101D500000AF78600A4B1B680A4AA2FB03235B0AA8
:101D60007A6802FB03F3FB6000BFFB685A1EFA604F
:101D7000002BF9D100BF00BF1437BD4680BC7047AF
:101D800018000020D34D621080B582B000AF78609B
:101D90007B68002B01D1012341E07B6893F83D3043
:101DA000DBB2002B06D17B68002283F83C207868E8
:101DB000FFF710F87B68022283F83D207B681A68E1
:101DC0007B6804331946104600F080FD7B680122D1
:101DD00083F846207B68012283F83E207B6801223D
:101DE00083F83F207B68012283F840207B68012232
:101DF00083F841207B68012283F842207B6801221E
:101E000083F843207B68012283F844207B68012209
:101E100083F845207B68012283F83D200023184683
:101E20000837BD4680BD000080B485B000AF786043
:101E30007B6893F83D30DBB2012B01D001233AE0FF
:101E40007B68022283F83D207B681B68DA687B6828
:101E50001B6842F00102DA607B681B68184A9342F3
:101E60000ED07B681B68B3F1804F09D07B681B687C
:101E7000144A934204D07B681B68134A934211D1E1
:101E80007B681B689B6803F00703FB60FB68062BFD
:101E900010D07B681B681A687B681B6842F00102DF
:101EA0001A6007E07B681B681A687B681B6842F051
:101EB00001021A60002318461437BD4680BC7047E3
:101EC000002C0140000400400008004080B582B0B2
:101ED00000AF78607B68002B01D1012341E07B6873
:101EE00093F83D30DBB2002B06D17B68002283F8EB
:101EF0003C20786800F039F87B68022283F83D20A6
:101F00007B681A687B6804331946104600F0DEFCD3
:101F10007B68012283F846207B68012283F83E20FB
:101F20007B68012283F83F207B68012283F84020F0
:101F30007B68012283F841207B68012283F84220DC
:101F40007B68012283F843207B68012283F84420C8
:101F50007B68012283F845207B68012283F83D20BD
:101F6000002318460837BD4680BD80B483B000AF5B
:101F7000786000BF0C37BD4680BC704780B584B028
:101F800000AF786039603B68002B09D17B6893F81B
:101F90003E30DBB2012B14BF01230023DBB222E071
:101FA0003B68042B09D17B6893F83F30DBB2012BEF
:101FB00014BF01230023DBB215E03B68082B09D1D5
:101FC0007B6893F84030DBB2012B14BF0123002360
:101FD000DBB208E07B6893F84130DBB2012B14BF21
:101FE00001230023DBB2002B01D001235EE03B681C
:101FF000002B04D17B68022283F83E2013E03B686B
:10200000042B04D17B68022283F83F200BE03B685D
:10201000082B04D17B68022283F8402003E07B6810
:10202000022283F841207B681B6801223968184628
:1020300000F0D9FF7B681B681E4A934207D17B687A
:102040001B685A6C7B681B6842F400425A647B68C8
:102050001B68184A93420ED07B681B68B3F1804F0F
:1020600009D07B681B68144A934204D07B681B68C4
:10207000124A934211D17B681B689B6803F00703E7
:10208000FB60FB68062B10D07B681B681A687B68B6
:102090001B6842F001021A6007E07B681B681A683F
:1020A0007B681B6842F001021A6000231846103753
:1020B000BD4680BD002C01400004004000080040E7
:1020C00080B582B000AF786039607B681B68002201
:1020D0003968184600F087FF7B681B68294A9342DD
:1020E00017D17B681B681A6A41F211131340002B49
:1020F0000FD17B681B681A6A40F244431340002BDF
:1021000007D17B681B685A6C7B681B6822F400420D
:102110005A647B681B681A6A41F211131340002B42
:102120000FD17B681B681A6A40F244431340002BAE
:1021300007D17B681B681A687B681B6822F0010264
:102140001A603B68002B04D17B68012283F83E2093
:1021500013E03B68042B04D17B68012283F83F2005
:102160000BE03B68082B04D17B68012283F84020F8
:1021700003E07B68012283F84120002318460837DA
:10218000BD4680BD002C014080B582B000AF7860B4
:102190007B68002B01D1012341E07B6893F83D303F
:1021A000DBB2002B06D17B68002283F83C207868E4
:1021B000FEF7A4FD7B68022283F83D207B681A6845
:1021C0007B6804331946104600F080FB7B680122CF
:1021D00083F846207B68012283F83E207B68012239
:1021E00083F83F207B68012283F840207B6801222E
:1021F00083F841207B68012283F842207B6801221A
:1022000083F843207B68012283F844207B68012205
:1022100083F845207B68012283F83D20002318467F
:102220000837BD4680BD80B582B000AF78607B685E
:102230001B681B6903F00203022B22D17B681B6819
:10224000DB6803F00203022B1BD17B681B686FF075
:1022500002021A617B6801221A777B681B689B69FE
:1022600003F00303002B03D0786800F013FB05E0B4
:10227000786800F006FB786800F015FB7B680022A8
:102280001A777B681B681B6903F00403042B22D1B7
:102290007B681B68DB6803F00403042B1BD17B689D
:1022A0001B686FF004021A617B6802221A777B6850
:1022B0001B689B6903F44073002B03D0786800F01F
:1022C000E9FA05E0786800F0DCFA786800F0EBFAEB
:1022D0007B6800221A777B681B681B6903F0080380
:1022E000082B22D17B681B68DB6803F00803082BEE
:1022F0001BD17B681B686FF008021A617B6804229F
:102300001A777B681B68DB6903F00303002B03D09B
:10231000786800F0BFFA05E0786800F0B2FA7868F3
:1023200000F0C1FA7B6800221A777B681B681B6982
:1023300003F01003102B22D17B681B68DB6803F0CD
:102340001003102B1BD17B681B686FF010021A6101
:102350007B6808221A777B681B68DB6903F440738B
:10236000002B03D0786800F095FA05E0786800F05B
:1023700088FA786800F097FA7B6800221A777B6801
:102380001B681B6903F00103012B0ED17B681B68DE
:10239000DB6803F00103012B07D17B681B686FF03A
:1023A00001021A617868FEF7E9FA7B681B681B690D
:1023B00003F08003802B0ED17B681B68DB6803F081
:1023C0008003802B07D17B681B686FF080021A6145
:1023D000786800F094FE7B681B681B6903F040037B
:1023E000402B0ED17B681B68DB6803F04003402B59
:1023F00007D17B681B686FF040021A61786800F0B3
:102400005BFA7B681B681B6903F02003202B0ED14D
:102410007B681B68DB6803F02003202B07D17B68F7
:102420001B686FF020021A61786800F05FFE00BF41
:102430000837BD4680BD80B586B000AFF860B96092
:102440007A600023FB75FB6893F83C30012B01D1C7
:10245000022388E0FB68012283F83C207B68002B84
:102460001BD1FB681868BB681968BB685A68BB68F1
:10247000DB6800F015FCFB681B689A69FB681B6849
:1024800022F00C029A61FB681B689969BB689A6824
:10249000FB681B680A439A6160E07B68042B1CD1CF
:1024A000FB681868BB681968BB685A68BB68DB685A
:1024B00000F07EFCFB681B689A69FB681B6822F4CD
:1024C00040629A61FB681B689969BB689B681A0245
:1024D000FB681B680A439A6140E07B68082B1BD1AC
:1024E000FB681868BB681968BB685A68BB68DB681A
:1024F00000F0C9FCFB681B68DA69FB681B6822F006
:102500000C02DA61FB681B68D969BB689A68FB68D2
:102510001B680A43DA6121E07B680C2B1CD1FB6845
:102520001868BB681968BB685A68BB68DB6800F04C
:10253000E5FCFB681B68DA69FB681B6822F44062F3
:10254000DA61FB681B68D969BB689B681A02FB6883
:102550001B680A43DA6101E00123FB75FB68002276
:1025600083F83C20FB7D18461837BD4680BD00002F
:1025700080B586B000AFF860B9607A600023FB7563
:10258000FB6893F83C30012B01D10223AEE0FB68DD
:10259000012283F83C207B680C2B00F29F8001A273
:1025A00052F823F0D9250008DD260008DD260008B2
:1025B000DD26000819260008DD260008DD260008B3
:1025C000DD2600085B260008DD260008DD26000861
:1025D000DD2600089B260008FB681B68B9681846C2
:1025E00000F0D6F9FB681B689A69FB681B6842F02B
:1025F00008029A61FB681B689A69FB681B6822F0F5
:1026000004029A61FB681B689969BB681A69FB68D8
:102610001B680A439A6164E0FB681B68B968184646
:1026200000F01CFAFB681B689A69FB681B6842F49F
:1026300000629A61FB681B689A69FB681B6822F458
:1026400080629A61FB681B689969BB681B691A0202
:10265000FB681B680A439A6143E0FB681B68B96822
:10266000184600F065FAFB681B68DA69FB681B68AE
:1026700042F00802DA61FB681B68DA69FB681B68D4
:1026800022F00402DA61FB681B68D969BB681A6929
:10269000FB681B680A43DA6123E0FB681B68B968C2
:1026A000184600F0AFFAFB681B68DA69FB681B6824
:1026B00042F40062DA61FB681B68DA69FB681B6838
:1026C00022F48062DA61FB681B68D969BB681B6908
:1026D0001A02FB681B680A43DA6102E00123FB75FA
:1026E00000BFFB68002283F83C20FB7D18461837AA
:1026F000BD4680BD80B584B000AF786039600023EE
:10270000FB737B6893F83C30012B01D10223B4E0CA
:102710007B68012283F83C207B68022283F83D20FD
:102720007B681B689B68BB60BB6823F07703BB605A
:10273000BB6823F47F43BB607B681B68BA689A6000
:102740003B681B68B3F5005F3ED0B3F5005F00F255
:102750008780B3F5805F00F08680B3F5805F7FD817
:10276000702B1AD0702B7BD8602B50D0602B77D871
:10277000502B3CD0502B73D8402B58D0402B6FD8C7
:10278000302B64D0302B6BD8202B60D0202B67D817
:10279000002B5CD0102B5AD062E07B6818683B6835
:1027A00099683B685A683B68DB6800F0FDFB7B6812
:1027B0001B689B68BB60BB6843F07703BB607B68AA
:1027C0001B68BA689A604FE07B6818683B68996834
:1027D0003B685A683B68DB6800F0E6FB7B681B6877
:1027E0009A687B681B6842F480429A603CE07B6890
:1027F00018683B6859683B68DB681A4600F0AAFA1B
:102800007B681B685021184600F0B4FB2CE07B6805
:1028100018683B6859683B68DB681A4600F004FB9F
:102820007B681B686021184600F0A4FB1CE07B68F5
:1028300018683B6859683B68DB681A4600F08AFAFA
:102840007B681B684021184600F094FB0CE07B6815
:102850001A683B681B681946104600F08BFB03E0C2
:102860000123FB7300E000BF7B68012283F83D2059
:102870007B68002283F83C20FB7B18461037BD465E
:1028800080BD80B483B000AF786000BF0C37BD4618
:1028900080BC704780B483B000AF786000BF0C3755
:1028A000BD4680BC704780B483B000AF786000BF85
:1028B0000C37BD4680BC704780B483B000AF7860F1
:1028C00000BF0C37BD4680BC7047000080B485B0A7
:1028D00000AF786039607B681B68FB607B68294AC1
:1028E00093420BD07B68B3F1804F07D07B68264AB8
:1028F000934203D07B68254A934208D1FB6823F0BA
:102900007003FB603B685B68FA681343FB607B689D
:102910001C4A93420BD07B68B3F1804F07D07B6891
:10292000194A934203D07B68184A934208D1FB6846
:1029300023F44073FB603B68DB68FA681343FB6079
:10294000FB6823F080023B685B691343FB607B6894
:10295000FA681A603B689A687B68DA623B681A68B2
:102960007B689A627B68074A934203D13B681A6985
:102970007B681A637B6801225A6100BF1437BD4629
:1029800080BC7047002C014000040040000800405B
:1029900080B487B000AF786039607B681B6A7B6168
:1029A0007B681B6A23F001027B681A627B685B68A4
:1029B0003B617B689B69FB60FB6823F07003FB60F5
:1029C000FB6823F00303FB603B681B68FA68134352
:1029D000FB607B6923F002037B613B689B687A693B
:1029E00013437B617B681C4A93420CD17B6923F0C3
:1029F00008037B613B68DB687A6913437B617B6911
:102A000023F004037B617B68134A934211D13B6935
:102A100023F480733B613B6923F400733B613B68A3
:102A20005B693A6913433B613B689B693A691343AD
:102A30003B617B683A695A607B68FA689A613B68D7
:102A40005A687B685A637B687A691A6200BF1C37D0
:102A5000BD4680BC704700BF002C014080B487B0E9
:102A600000AF786039607B681B6A7B617B681B6A9A
:102A700023F010027B681A627B685B683B617B68AD
:102A80009B69FB60FB6823F4E043FB60FB6823F475
:102A90004073FB603B681B681B02FA681343FB60D2
:102AA0007B6923F020037B613B689B681B017A698B
:102AB00013437B617B681D4A93420DD17B6923F0F0
:102AC00080037B613B68DB681B017A6913437B6190
:102AD0007B6923F040037B617B68144A934213D1E6
:102AE0003B6923F480633B613B6923F400633B61F2
:102AF0003B685B699B003A6913433B613B689B6998
:102B00009B003A6913433B617B683A695A607B6872
:102B1000FA689A613B685A687B689A637B687A694D
:102B20001A6200BF1C37BD4680BC7047002C0140B4
:102B300080B487B000AF786039607B681B6A7B61C6
:102B40007B681B6A23F480727B681A627B685B680F
:102B50003B617B68DB69FB60FB6823F07003FB6013
:102B6000FB6823F00303FB603B681B68FA681343B0
:102B7000FB607B6923F400737B613B689B681B02ED
:102B80007A6913437B617B681D4A93420DD17B694F
:102B900023F400637B613B68DB681B027A691343A3
:102BA0007B617B6923F480637B617B68144A934279
:102BB00013D13B6923F480533B613B6923F40053F9
:102BC0003B613B685B691B013A6913433B613B68AE
:102BD0009B691B013A6913433B617B683A695A6000
:102BE0007B68FA68DA613B685A687B68DA637B68FD
:102BF0007A691A6200BF1C37BD4680BC704700BFAF
:102C0000002C014080B487B000AF786039607B68E9
:102C10001B6A3B617B681B6A23F480527B681A62E3
:102C20007B685B687B617B68DB69FB60FB6823F426
:102C3000E043FB60FB6823F44073FB603B681B6868
:102C40001B02FA681343FB603B6923F400533B61AA
:102C50003B689B681B033A6913433B617B680F4ADF
:102C6000934209D17B6923F480437B613B685B69B4
:102C70009B017A6913437B617B687A695A607B6840
:102C8000FA68DA613B685A687B681A647B683A695B
:102C90001A6200BF1C37BD4680BC7047002C014043
:102CA00080B487B000AFF860B9607A603B60FB68C1
:102CB0001B6A3B61FB681B6A23F00102FB681A6216
:102CC000FB689B697B61FB681F4A93420BD0FB68E2
:102CD000B3F1804F07D0FB681C4A934203D0FB68D6
:102CE0001B4A934201D1012300E00023002B08D0AE
:102CF0007B6923F003037B617A697B6813437B6103
:102D000003E07B6943F001037B617B6923F0F003FF
:102D10007B613B681B01DBB27A6913437B613B69D2
:102D200023F00A033B61BB6803F00A033A691343CB
:102D30003B61FB687A699A61FB683A691A6200BF75
:102D40001C37BD4680BC7047002C01400004004089
:102D50000008004080B487B000AFF860B9607A60C6
:102D6000FB681B6A7B61FB681B6A23F00102FB683E
:102D70001A62FB689B693B613B6923F0F0033B618E
:102D80007B681B013A6913433B617B6923F00A03AB
:102D90007B617A69BB6813437B61FB683A699A611E
:102DA000FB687A691A6200BF1C37BD4680BC704759
:102DB00080B487B000AFF860B9607A603B60FB68B0
:102DC0001B6A7B61FB681B6A23F01002FB681A62B6
:102DD000FB689B693B613B6923F440733B617B6803
:102DE0001B023A6913433B613B6923F470433B6127
:102DF0003B681B039BB23A6913433B617B6923F039
:102E0000A0037B61BB681B0103F0A0037A69134335
:102E10007B61FB683A699A61FB687A691A6200BF54
:102E20001C37BD4680BC704780B487B000AFF860E7
:102E3000B9607A60FB681B6A7B61FB681B6A23F0E0
:102E40001002FB681A62FB689B693B613B6923F4D3
:102E500070433B617B681B033A6913433B617B69A9
:102E600023F0A0037B61BB681B017A6913437B617C
:102E7000FB683A699A61FB687A691A6200BF1C377D
:102E8000BD4680BC704780B487B000AFF860B960C1
:102E90007A603B60FB681B6A7B61FB681B6A23F4FA
:102EA0008072FB681A62FB68DB693B613B6923F057
:102EB00003033B613A697B6813433B613B6923F041
:102EC000F0033B613B681B01DBB23A6913433B6192
:102ED0007B6923F400737B61BB681B0203F40073FE
:102EE0007A6913437B61FB683A69DA61FB687A6946
:102EF0001A6200BF1C37BD4680BC704780B487B0E3
:102F000000AFF860B9607A603B60FB681B6A7B6168
:102F1000FB681B6A23F48052FB681A62FB68DB695A
:102F20003B613B6923F440733B617B681B023A6958
:102F300013433B613B6923F470433B613B681B03D4
:102F40009BB23A6913433B617B6923F400537B6175
:102F5000BB681B0303F400537A6913437B61FB686E
:102F60003A69DA61FB687A691A6200BF1C37BD46AC
:102F700080BC704780B485B000AF786039607B68F2
:102F80009B68FB60FB6823F07003FB603A68FB689A
:102F9000134343F00703FB607B68FA689A6000BF45
:102FA0001437BD4680BC704780B487B000AFF8606E
:102FB000B9607A603B60FB689B687B617B6923F446
:102FC0007F437B613B681A027B681A43BB681343EB
:102FD0007A6913437B61FB687A699A6000BF1C378A
:102FE000BD4680BC704780B487B000AFF860B96060
:102FF0007A60BB6803F01F03012202FA03F37B61CE
:10300000FB681A6A7B69DB431A40FB681A62FB683B
:103010001A6ABB6803F01F03796801FA03F31A43C5
:10302000FB681A6200BF1C37BD4680BC70470000B9
:1030300080B485B000AF786039607B6893F83C302D
:10304000012B01D1022346E07B68012283F83C205A
:103050007B68022283F83D207B681B685B68FB600D
:103060007B681B689B68BB60FB6823F07003FB6098
:103070003B681B68FA681343FB607B681B68FA684F
:103080005A607B681B68164A93420ED07B681B68A7
:10309000B3F1804F09D07B681B68124A934204D079
:1030A0007B681B68104A93420CD1BB6823F08003F5
:1030B000BB603B685B68BA681343BB607B681B6896
:1030C000BA689A607B68012283F83D207B68002201
:1030D00083F83C20002318461437BD4680BC704757
:1030E000002C0140000400400008004080B483B080
:1030F00000AF786000BF0C37BD4680BC704780B41D
:1031000083B000AF786000BF0C37BD4680BC70470D
:1031100080B582B000AF78607B68002B01D10123BD
:1031200042E07B6893F84130DBB2002B06D17B682C
:10313000002283F840207868FDF7C6FE7B682422D1
:1031400083F841207B681B68DA687B681B6822F47F
:103150000052DA60786800F02BF97B681B681A6906
:103160007B681B6822F490421A617B681B685A696D
:103170007B681B6822F02A025A617B681B68DA6848
:103180007B681B6842F40052DA607B6800225A6454
:103190007B68202283F841207B68202283F842202C
:1031A0007B6800225A63002318460837BD4680BD5D
:1031B00080B58AB002AFF860B9603B601346FB800F
:1031C00000237B61FB6893F84230DBB2202B7CD17B
:1031D000BB68002B02D0FB88002B01D1012375E0D6
:1031E000FB6800225A64FB68222283F84220FB68B5
:1031F00000221A63FDF702FF7861FB68FA889A855E
:10320000FB68FA88DA85FB689B68B3F5805F08D1B4
:10321000FB681B69002B04D10023FB61BB68BB6109
:1032200003E0BB68FB610023BB6143E03B680093A4
:103230007B6900222021F86800F04CF80346002B3F
:1032400001D0032342E0FB69002B0CD1FB681B6813
:103250005B689BB2C3F308039AB2BB691A80BB696F
:103260000233BB611FE0FB689B68B3F5805F07D04A
:10327000FB689B68002B0AD1FB681B69002B06D1F9
:10328000FB681B685B68DAB2FB691A7008E0FB68D0
:103290001B685B68DBB203F07F03DAB2FB691A706C
:1032A000FB690133FB61FB68DB8D9BB2013B9AB28A
:1032B000FB68DA85FB68DB8D9BB2002BB6D1FB681F
:1032C000202283F84220002300E002231846203702
:1032D000BD4680BD80B590B000AFF860B9603B607E
:1032E0001346FB7150E0BB6CB3F1FF3F4CD0BB6C9D
:1032F000002B07D0FDF782FE02463B68D31ABA6C5A
:103300009A4241D2FB681B680C33BB62BB6A53E82C
:10331000003F7B627B6A23F4D073FB63FB681B680E
:103320000C33FA6B7A633B63396B7A6B41E80023A9
:10333000FB62FB6A002BE5D1FB681B6814337B61E1
:103340007B6953E8003F3B613B6923F00103BB63AA
:10335000FB681B681433BA6B3A62FB61F9693A6A1D
:1033600041E80023BB61BB69002BE5D1FB6820224B
:1033700083F84120FB68202283F84220FB6800226A
:1033800083F8402003230FE0FB681B681A68BB68C2
:103390001340BA689A420CBF01230023DBB21A46DD
:1033A000FB799A429FD0002318464037BD4680BD26
:1033B00080B584B000AF78607B681B681B6923F41C
:1033C00040517B68DA687B681B680A431A617B6836
:1033D0009A687B681B691A437B685B691343BB600F
:1033E0007B681B68DB6823F4B05323F00C037A6816
:1033F0001268B9680B43D3607B681B685B6923F470
:1034000040717B689A697B681B680A435A617B68D4
:103410001B682C4A934203D1FEF754FCF86002E08B
:10342000FEF73CFCF860FA6813469B0013449A00D0
:103430001A447B685B689B00B2FBF3F3224AA2FB51
:1034400003235B091901FA6813469B0013449A0091
:103450001A447B685B689B00B2FBF3F21A4BA3FB38
:1034600002035B09642000FB03F3D31A1B01323310
:10347000154AA2FB03235B0903F0F0031944FA6821
:1034800013469B0013449A001A447B685B689B00B8
:10349000B2FBF3F20C4BA3FB02035B09642000FBBD
:1034A00003F3D31A1B013233074AA2FB03235B0940
:1034B00003F00F027B681B680A449A6000BF103754
:1034C000BD4680BD003801401F85EB5180B485B0FA
:1034D00000AFEFF30583BB60BB68002B0FD1EFF3A8
:1034E00010837B607B68002B09D1104B1B68022B7B
:1034F00009D1EFF311833B603B68002B03D06FF0E1
:103500000503FB600CE0094B1B68002B05D1074B42
:1035100001221A600023FB6002E04FF0FF33FB60E2
:10352000FB6818461437BD4680BC70477001002008
:1035300080B584B000AFEFF30583BB60BB68002BA0
:103540000FD1EFF310837B607B68002B09D1114B07
:103550001B68022B09D1EFF311833B603B68002B02
:1035600003D06FF00503FB600EE00A4B1B68012BD4
:1035700007D1084B02221A6001F090F80023FB608B
:1035800002E04FF0FF33FB60FB6818461037BD4682
:1035900080BD00BF7001002080B592B004AFF8601C
:1035A000B9607A6000237B61EFF305837B627B6AFD
:1035B000002B40F09480EFF310833B623B6A002BBA
:1035C00040F08D80484B1B68022B06D1EFF311832E
:1035D000FB61FB69002B40F08280FB68002B7ED0F2
:1035E00080233B631823FB620023FB7607F11B0358
:1035F0007B634FF0FF33BB627B68002B45D07B6859
:103600001B68002B02D07B681B687B637B689B690F
:10361000002B02D07B689B69FB62FB6A002B08D001
:10362000FB6A382B05D87B685B6803F00103002B2D
:1036300001D0002354E07B685B69002B03D07B68DA
:103640005B699B083B637B689B68002B0ED07B68A3
:10365000DB685B2B0AD97B681B69002B06D07B6873
:103660005B69002B02D00123BB6210E07B689B6882
:10367000002B0CD17B68DB68002B08D17B681B69B1
:10368000002B04D10023BB6201E00023BB62BB6AB4
:10369000012B10D17B681B697A68926802920193B2
:1036A000FB6A0093BB683A6B796BF86800F024FE04
:1036B00003467B6113E0BB6A002B10D13B6B9AB2CF
:1036C00007F114030193FB6A0093BB68796BF868F8
:1036D00000F071FE0346012B01D000237B617B6962
:1036E00018463837BD4680BD7001002080B586B0D1
:1036F00000AF7860EFF305833B613B69002B0FD18E
:10370000EFF31083FB60FB68002B09D10D4B1B68A6
:10371000022B09D1EFF31183BB60BB68002B03D0F0
:103720006FF005037B6107E000237B617B68002B62
:1037300002D0786800F07CFF7B6918461837BD46D8
:1037400080BD00BF7001002080B485B000AFF8607C
:10375000B9607A60FB68064A1A60BB68054A1A605D
:103760007B6880221A6000BF1437BD4680BC70475A
:1037700074010020D001002080B485B000AFF86053
:10378000B9607A60FB68074A1A60BB68064A1A602B
:103790007B684FF480721A6000BF1437BD4680BC4E
:1037A000704700BFD00300202C04002080B483B0F9
:1037B00000AF78607B6803F108027B685A607B6821
:1037C0004FF0FF329A607B6803F108027B68DA6091
:1037D0007B6803F108027B681A617B6800221A602B
:1037E00000BF0C37BD4680BC704780B483B000AFCB
:1037F00078607B6800221A6100BF0C37BD4680BC30
:10380000704780B485B000AF786039607B685B68D2
:10381000FB603B68FA685A60FB689A683B689A608C
:10382000FB689B683A685A60FB683A689A603B6834
:103830007A681A617B681B685A1C7B681A6000BF33
:103840001437BD4680BC704780B485B000AF786047
:1038500039603B681B68BB60BB68B3F1FF3F03D1B5
:103860007B681B69FB600CE07B680833FB6002E04F
:10387000FB685B68FB60FB685B681B68BA689A4220
:10388000F6D2FB685A683B685A603B685B683A68E6
:103890009A603B68FA689A60FB683A685A603B68CD
:1038A0007A681A617B681B685A1C7B681A6000BFC3
:1038B0001437BD4680BC704780B485B000AF7860D7
:1038C0007B681B69FB607B685B687A6892689A60BA
:1038D0007B689B687A6852685A60FB685B687A68A4
:1038E0009A4203D17B689A68FB685A607B68002221
:1038F0001A61FB681B685A1EFB681A60FB681B682C
:1039000018461437BD4680BC7047000080B584B0AF
:1039100000AF786039607B68FB60FB68002B0BD1DF
:103920004FF0500383F31188BFF36F8FBFF34F8FB6
:10393000BB6000BF00BFFDE701F0F8FFFB681A683D
:10394000FB68DB6BF968096C01FB03F31A44FB6845
:103950005A60FB6800229A63FB681A68FB689A60E9
:10396000FB681A68FB68DB6B013BF968096C01FBBB
:1039700003F31A44FB68DA60FB68FF2283F84420F3
:10398000FB68FF2283F845203B68002B14D1FB68BD
:103990001B69002B1AD0FB681033184601F010F990
:1039A0000346002B12D00D4B4FF080521A60BFF32C
:1039B0004F8FBFF36F8F09E0FB6810331846FFF796
:1039C000F5FEFB6824331846FFF7F0FE01F0DEFF3A
:1039D000012318461037BD4680BD00BF04ED00E04E
:1039E00080B58EB002AFF860B9607A603B60FB686A
:1039F000002B0BD14FF0500383F31188BFF36F8F6F
:103A0000BFF34F8FBB6200BF00BFFDE73B68002BD9
:103A10000BD14FF0500383F31188BFF36F8FBFF3C7
:103A20004F8F7B6200BF00BFFDE77B68002B02D099
:103A3000BB68002B01D0012300E00023002B0BD139
:103A40004FF0500383F31188BFF36F8FBFF34F8F95
:103A50003B6200BF00BFFDE77B68002B02D1BB6863
:103A6000002B01D1012300E00023002B0BD14FF0EC
:103A7000500383F31188BFF36F8FBFF34F8FFB6148
:103A800000BF00BFFDE750237B617B69502B0BD04B
:103A90004FF0500383F31188BFF36F8FBFF34F8F45
:103AA000BB6100BF00BFFDE73B68FB62FB6A002B08
:103AB0000DD0FB6A012283F8462097F83820FB6A74
:103AC000009313467A68B968F86800F005F8FB6A55
:103AD00018463037BD4680BD80B584B000AFF86071
:103AE000B9607A60FB70BB68002B03D1BB69BA690F
:103AF0001A6002E0BB697A681A60BB69FA68DA6327
:103B0000BB69BA681A640121B869FFF7FFFEBB6997
:103B1000FA7883F84C2000BF1037BD4680BD000006
:103B200080B58EB000AFF860B9607A603B6000236A
:103B30007B63FB683B633B6B002B0BD14FF0500367
:103B400083F31188BFF36F8FBFF34F8FBB6200BF4A
:103B500000BFFDE7BB68002B03D13B6B1B6C002B48
:103B600001D1012300E00023002B0BD14FF05003C3
:103B700083F31188BFF36F8FBFF34F8F7B6200BF5A
:103B800000BFFDE73B68022B03D13B6BDB6B012BD6
:103B900001D1012300E00023002B0BD14FF0500393
:103BA00083F31188BFF36F8FBFF34F8F3B6200BF6A
:103BB00000BFFDE701F0C8F90346002B02D17B6886
:103BC000002B01D1012300E00023002B0BD14FF08B
:103BD000500383F31188BFF36F8FBFF34F8FFB61E7
:103BE00000BF00BFFDE701F0A1FE3B6B9A6B3B6B92
:103BF000DB6B9A4202D33B68022B29D13A68B96841
:103C0000386B00F00DFAF8623B6B5B6A002B10D04A
:103C10003B6B2433184600F0D3FF0346002B13D030
:103C20003F4B4FF080521A60BFF34F8FBFF36F8F3F
:103C30000AE0FB6A002B07D0394B4FF080521A6024
:103C4000BFF34F8FBFF36F8F01F0A0FE012363E03E
:103C50007B68002B03D101F099FE00235CE07B6BB5
:103C6000002B06D107F11403184601F00DF80123CB
:103C70007B6301F08BFE00F079FD01F057FE3B6B9A
:103C800093F844305BB2B3F1FF3F03D13B6B0022AA
:103C900083F844203B6B93F845305BB2B3F1FF3FB0
:103CA00003D13B6B002283F8452001F06FFE3A1DE3
:103CB00007F114031146184600F0FCFF0346002BE1
:103CC00024D1386B00F0A4FA0346002B18D03B6BCC
:103CD00010337A681146184600F020FF386B00F068
:103CE0002FFA00F051FD0346002B7FF47CAF0C4B04
:103CF0004FF080521A60BFF34F8FBFF36F8F72E7A0
:103D0000386B00F01DFA00F03FFD6CE7386B00F0F7
:103D100017FA00F039FD002318463837BD4680BD3C
:103D200004ED00E080B58EB000AFF860B9607A6055
:103D30003B60FB683B633B6B002B0BD14FF05003A8
:103D400083F31188BFF36F8FBFF34F8F7B6200BF88
:103D500000BFFDE7BB68002B03D13B6B1B6C002B46
:103D600001D1012300E00023002B0BD14FF05003C1
:103D700083F31188BFF36F8FBFF34F8F3B6200BF98
:103D800000BFFDE73B68022B03D13B6BDB6B012BD4
:103D900001D1012300E00023002B0BD14FF0500391
:103DA00083F31188BFF36F8FBFF34F8FFB6100BFA9
:103DB00000BFFDE701F07CFEEFF311824FF05003EE
:103DC00083F31188BFF36F8FBFF34F8FBA617B61AD
:103DD000BB69FB623B6B9A6B3B6BDB6B9A4202D31A
:103DE0003B68022B2CD13B6B93F8453087F82B3086
:103DF0003A68B968386B00F013F997F92B30B3F1D2
:103E0000FF3F12D13B6B5B6A002B16D03B6B243318
:103E1000184600F0D5FE0346002B0ED07B68002B21
:103E20000BD07B6801221A6007E097F82B30013332
:103E3000DBB25AB23B6B83F8452001237B6301E080
:103E400000237B63FB6A3B613B6983F3118800BFFE
:103E50007B6B18463837BD4680BD000080B58CB0FE
:103E600000AFF860B9607A600023FB62FB68BB6258
:103E7000BB6A002B0BD14FF0500383F31188BFF3C3
:103E80006F8FBFF34F8F3B6200BF00BFFDE7BB6882
:103E9000002B03D1BB6A1B6C002B01D1012300E076
:103EA0000023002B0BD14FF0500383F31188BFF395
:103EB0006F8FBFF34F8FFB6100BF00BFFDE701F0C5
:103EC00043F80346002B02D17B68002B01D101236C
:103ED00000E00023002B0BD14FF0500383F3118837
:103EE000BFF36F8FBFF34F8FBB6100BF00BFFDE714
:103EF00001F01CFDBB6A9B6B7B627B6A002B1FD0B1
:103F0000B968B86A00F0F6F87B6A5A1EBB6A9A6311
:103F1000BB6A1B69002B0FD0BB6A1033184600F038
:103F20004FFE0346002B07D03C4B4FF080521A60E7
:103F3000BFF34F8FBFF36F8F01F028FD012369E0BE
:103F40007B68002B03D101F021FD002362E0FB6AB6
:103F5000002B06D107F11003184600F095FE01234F
:103F6000FB6201F013FD00F001FC01F0DFFCBB6A15
:103F700093F844305BB2B3F1FF3F03D1BB6A002238
:103F800083F84420BB6A93F845305BB2B3F1FF3F3E
:103F900003D1BB6A002283F8452001F0F7FC3A1DEB
:103FA00007F110031146184600F084FE0346002B6B
:103FB00023D1B86A00F016F90346002B17D0BB6A6C
:103FC00024337A681146184600F0A8FDB86A00F05C
:103FD000B7F800F0D9FB0346002B89D10F4B4FF007
:103FE00080521A60BFF34F8FBFF36F8F80E7B86ABC
:103FF00000F0A6F800F0C8FB7AE7B86A00F0A0F875
:1040000000F0C2FBB86A00F0EDF80346002B3FF465
:104010006FAF002318463037BD4680BD04ED00E089
:1040200080B586B000AFF860B9607A6000237B612C
:10403000FB689B6B3B61FB681B6C002B0DD1FB6825
:104040001B68002B4DD1FB685B68184600F09AFF97
:104050007861FB6800225A6043E07B68002B19D12D
:10406000FB689868FB681B6C1A46B96801F06AFF28
:10407000FB689A68FB681B6C1A44FB689A60FB68D3
:104080009A68FB685B689A422BD3FB681A68FB68E6
:104090009A6026E0FB68D868FB681B6C1A46B96812
:1040A00001F050FFFB68DA68FB681B6C5B421A4446
:1040B000FB68DA60FB68DA68FB681B689A4207D223
:1040C000FB685A68FB681B6C5B421A44FB68DA6049
:1040D0007B68022B05D13B69002B02D03B69013B79
:1040E0003B613B695A1CFB689A637B691846183729
:1040F000BD4680BD80B582B000AF786039607B6816
:104100001B6C002B18D07B68DA687B681B6C1A4428
:104110007B68DA607B68DA687B685B689A4203D305
:104120007B681A687B68DA607B68D9687B681B6C7F
:104130001A46386801F006FF00BF0837BD4680BD4B
:1041400080B584B000AF786001F0F0FB7B6893F835
:104150004530FB7311E07B685B6A002B12D07B68F3
:104160002433184600F02CFD0346002B01D000F04C
:1041700005FEFB7B013BDBB2FB7397F90F30002B95
:10418000E9DC00E000BF7B68FF2283F8452001F0F6
:10419000FDFB01F0CBFB7B6893F84430BB7311E06F
:1041A0007B681B69002B12D07B681033184600F027
:1041B00007FD0346002B01D000F0E0FDBB7B013B77
:1041C000DBB2BB7397F90E30002BE9DC00E000BFD7
:1041D0007B68FF2283F8442001F0D8FB00BF103732
:1041E000BD4680BD80B584B000AF786001F09EFB15
:1041F0007B689B6B002B02D10123FB6001E0002355
:10420000FB6001F0C3FBFB6818461037BD4680BD5C
:1042100080B584B000AF786001F088FB7B689A6B52
:104220007B68DB6B9A4202D10123FB6001E0002333
:10423000FB6001F0ABFBFB6818461037BD4680BD44
:1042400080B485B000AF786039600023FB6014E073
:104250000E4AFB6852F83330002B0BD10B49FB6838
:104260003A6841F83320094AFB68DB0013447A6856
:104270005A6006E0FB680133FB60FB68072BE7D957
:1042800000BF00BF1437BD4680BC70472C0800201B
:1042900080B586B000AFF860B9607A60FB687B617A
:1042A00001F044FB7B6993F844305BB2B3F1FF3F0C
:1042B00003D17B69002283F844207B6993F8453061
:1042C0005BB2B3F1FF3F03D17B69002283F8452045
:1042D00001F05CFB7B699B6B002B06D17B6924336F
:1042E0007A68B968184600F03FFC7869FFF728FF44
:1042F00000BF1837BD4680BD80B58EB004AFF860F2
:10430000B9607A603B607B6B002B0BD14FF05003A0
:1043100083F31188BFF36F8FBFF34F8F3B6200BFF2
:1043200000BFFDE7BB6B002B0BD14FF0500383F3B5
:104330001188BFF36F8FBFF34F8FFB6100BF00BFCA
:10434000FDE75C233B613B695C2B0BD04FF05003D6
:1043500083F31188BFF36F8FBFF34F8FBB6100BF33
:1043600000BFFDE7BB6B002B1ED07B6B002B1BD06F
:10437000BB6B7B627B6A7A6B1A637B6A022283F86F
:104380005920002303937B6A029307F114030193DE
:104390003B6B00933B687A68B968F86800F050F8A6
:1043A000786A00F0D5F801E000237B617B6918464C
:1043B0002837BD4680BD80B58CB004AFF860B960C9
:1043C0003B601346FB80FB889B00184601F0B0FB66
:1043D00078617B69002B0ED05C2001F0A9FBF861AD
:1043E000FB69002B03D0FB697A691A6305E07869E1
:1043F00001F066FC01E00023FB61FB69002B17D094
:10440000FB69002283F85920FA8800230393FB6993
:104410000293FB6A0193BB6A00933B68B968F86832
:1044200000F00EF8F86900F093F80123BB6102E098
:104430004FF0FF33BB61BB6918462037BD4680BDD6
:1044400080B588B000AFF860B9607A603B603B6BC4
:10445000186B7B689B001A46A52101F047FD3B6B5A
:104460001A6B7B6803F18043013B9B001344BB61E3
:10447000BB6923F00703BB61BB6903F00703002B93
:104480000BD04FF0500383F31188BFF36F8FBFF34E
:104490004F8F7B6100BF00BFFDE70023FB6112E08F
:1044A000BA68FB69134419783A6BFB6913443433D7
:1044B0000A461A70BA68FB6913441B78002B06D0B1
:1044C000FB690133FB61FB690F2BE9D900E000BFF9
:1044D0003B6B002283F84320BB6A372B01D937237B
:1044E000BB623B6BBA6ADA623B6BBA6ADA643B6BFB
:1044F00000221A653B6B04331846FFF776F93B6BD5
:1045000018331846FFF771F93B6B3A6B1A61BB6AB7
:10451000C3F138023B6B9A613B6B3A6B5A623B6B5F
:1045200000225A653B6B002283F858203A68F968EC
:10453000B86901F00BF902463B6B1A60FB6A002B6D
:1045400002D0FB6A3A6B1A6000BF2037BD4680BDBF
:1045500080B582B000AF786001F0E8F92D4B1B68A0
:1045600001332C4A13602C4B1B68002B09D12A4ABB
:104570007B681360274B1B68012B10D100F022FCD5
:104580000DE0264B1B68002B09D1234B1B68DA6A10
:104590007B68DB6A9A4202D81F4A7B681360204B13
:1045A0001B6801331E4A13601D4B1A687B685A64EE
:1045B0007B68DA6A1B4B1B689A4203D97B68DB6A0B
:1045C000184A13607B68DA6A13469B0013449B0009
:1045D000154A1A447B68043319461046FFF711F94F
:1045E00001F0D4F90D4B1B68002B0ED00A4B1B6851
:1045F000DA6A7B68DB6A9A4207D20C4B4FF0805232
:104600001A60BFF34F8FBFF36F8F00BF0837BD46EF
:1046100080BD00BF400D00206C0800204C0D002024
:104620005C0D0020480D00207008002004ED00E023
:1046300080B584B000AF78600023FB607B68002BFE
:1046400018D0144B1B68002B0BD04FF0500383F392
:104650001188BFF36F8FBFF34F8FBB6000BF00BFE8
:10466000FDE700F083F80021786800F0FBFC00F023
:104670008BF8F860FB68002B07D1074B4FF0805296
:104680001A60BFF34F8FBFF36F8F00BF1037BD4667
:1046900080BD00BF680D002004ED00E080B58AB049
:1046A00004AF0023BB6000237B603A46391D07F14D
:1046B00008031846FFF748F839687B68BA68029221
:1046C00001930023009300230A4622492248FFF762
:1046D00013FE0346214A1360204B1B68002B02D0B7
:1046E00001237B6101E000237B617B69012B02D107
:1046F00000F00CFD78617B69012B16D14FF050035F
:1047000083F31188BFF36F8FBFF34F8F3B6100BFFF
:10471000134B4FF0FF321A60124B01221A60124BFA
:1047200000221A6001F090F80FE07B69B3F1FF3FBF
:104730000BD14FF0500383F31188BFF36F8FBFF39A
:104740004F8FFB6000BF00BFFDE700BF1837BD46BD
:1047500080BD00BFA45F0008954D0008640D0020D7
:10476000600D00204C0D0020440D002080B400AFEF
:10477000044B1B680133034A136000BFBD4680BC75
:10478000704700BF680D002080B584B000AF0023E3
:10479000FB600023BB60424B1B68002B0BD14FF02A
:1047A000500383F31188BFF36F8FBFF34F8F3B60CC
:1047B00000BF00BFFDE701F0B9F8394B1B68013BB2
:1047C000374A1360364B1B68002B62D1354B1B6890
:1047D000002B5ED02FE0344BDB68DB68FB60FB68AE
:1047E00018331846FFF768F8FB6804331846FFF7DC
:1047F00063F8FB68DA6A2D4B1B689A4203D9FB68A1
:10480000DB6A2A4A1360FB68DA6A13469B0013448A
:104810009B00274A1A44FB68043319461046FEF7EA
:10482000F0FFFB68DA6A234B1B68DB6A9A4202D30B
:10483000214B01221A601C4B1B68002BCBD1FB685B
:10484000002B01D000F05CFB1C4B1B687B607B687D
:10485000002B10D000F044F80346002B02D0164B7A
:1048600001221A607B68013B7B607B68002BF1D1E1
:10487000124B00221A60104B1B68002B09D0012339
:10488000BB600F4B4FF080521A60BFF34F8FBFF3E6
:104890006F8F01F07BF8BB6818461037BD4680BDAE
:1048A000680D0020400D0020000D0020480D002064
:1048B000700800206C080020540D0020500D0020CE
:1048C00004ED00E080B483B000AF044B1B687B6054
:1048D0007B6818460C37BD4680BC7047440D0020ED
:1048E00080B586B000AF00237B61524B1B68002B64
:1048F00040F08F80504B1B6801333B614E4A3B694F
:1049000013603B69002B21D14C4B1B681B68002BAB
:104910000BD04FF0500383F31188BFF36F8FBFF3B9
:104920004F8F3B6000BF00BFFDE7444B1B68FB603F
:10493000434B1B68414A1360414AFB681360414B7B
:104940001B6801333F4A136000F0DAFA3E4B1B68E4
:104950003A699A424ED3394B1B681B68002B01D130
:10496000012300E00023002B04D0374B4FF0FF322F
:104970001A603FE0314B1B68DB68DB68BB60BB68DB
:104980005B687B603A697B689A4203D22E4A7B68F7
:1049900013602FE0BB6804331846FEF78DFFBB6839
:1049A0009B6A002B04D0BB6818331846FEF784FFBF
:1049B000BB68DA6A254B1B689A4203D9BB68DB6A7D
:1049C000224A1360BB68DA6A13469B0013449B00BB
:1049D0001F4A1A44BB68043319461046FEF711FFFC
:1049E000BB68DA6A1B4B1B68DB6A9A42B3D30123AC
:1049F0007B61B0E7174B1B68DA6A154913469B00C9
:104A000013449B000B441B68012B07D901237B61D6
:104A100004E0114B1B6801330F4A13600F4B1B68F6
:104A2000002B01D001237B617B6918461837BD46F6
:104A300080BD00BF680D0020440D0020F80C002050
:104A4000FC0C0020580D0020600D0020480D0020B7
:104A5000700800206C080020500D0020540D00202C
:104A600080B485B000AF284B1B68002B03D0274BC8
:104A700001221A6042E0254B00221A60244B1B6879
:104A8000FB6011E0FB68002B0BD14FF0500383F368
:104A90001188BFF36F8FBFF34F8F7B6000BF00BFE4
:104AA000FDE7FB68013BFB601A49FA6813469B006F
:104AB00013449B000B441B68002BE3D0FA68134699
:104AC0009B0013449B00134A1344BB60BB685B68A4
:104AD0005A68BB685A60BB685A68BB6808339A4218
:104AE00004D1BB685B685A68BB685A60BB685B6886
:104AF000DB68094A1360064AFB68136000BF14377D
:104B0000BD4680BC704700BF680D0020540D0020DA
:104B1000480D0020700800206C08002080B584B08B
:104B200000AF786039607B68002B0BD14FF05003E9
:104B300083F31188BFF36F8FBFF34F8FFB6000BF0C
:104B400000BFFDE7074B1B68183319467868FEF76E
:104B50007BFE0121386800F085FA00BF1037BD46A2
:104B600080BD00BF6C08002080B586B000AFF86043
:104B7000B9607A60FB68002B0BD14FF0500383F3D0
:104B80001188BFF36F8FBFF34F8F7B6100BF00BFF2
:104B9000FDE70A4B1B6818331946F868FEF731FE2B
:104BA0007B68002B02D04FF0FF33BB607968B86898
:104BB00000F058FA00BF1837BD4680BD6C080020D1
:104BC00080B586B000AF78607B68DB68DB683B61EE
:104BD0003B69002B0BD14FF0500383F31188BFF3D7
:104BE0006F8FBFF34F8FFB6000BF00BFFDE73B69D6
:104BF00018331846FEF760FE1D4B1B68002B1DD1B5
:104C00003B6904331846FEF757FE3B69DA6A194BD5
:104C10001B689A4203D93B69DB6A164A13603B69F9
:104C2000DA6A13469B0013449B00134A1A443B69FB
:104C3000043319461046FEF7E4FD05E03B691833DE
:104C400019460E48FEF7DDFD3B69DA6A0C4B1B681E
:104C5000DB6A9A4205D901237B610A4B01221A6063
:104C600001E000237B617B6918461837BD4680BD93
:104C7000680D0020480D002070080020000D002065
:104C80006C080020540D002080B483B000AF786021
:104C9000064B1A687B681A60054B1A687B685A6075
:104CA00000BF0C37BD4680BC704700BF580D0020C8
:104CB000440D002080B588B000AF786039607B6813
:104CC000002B0BD14FF0500383F31188BFF36F8F8C
:104CD000BFF34F8F3B6100BF00BFFDE73B68002B78
:104CE0000BD14FF0500383F31188BFF36F8FBFF3E5
:104CF0004F8FFB6000BF00BFFDE700F017FE1D4BAC
:104D00001B68BB617B685B68BA69D31A7B613B68CF
:104D10001B68B3F1FF3F02D10023FB6123E07B68F6
:104D20001A68154B1B689A4207D07B685B68BA69A2
:104D30009A4202D30123FB6115E03B681B687A6944
:104D40009A420BD23B681A687B69D21A3B681A6098
:104D50007868FFF799FF0023FB6104E03B680022BD
:104D60001A600123FB6100F011FEFB691846203731
:104D7000BD4680BD440D0020580D002080B400AF1A
:104D8000034B01221A6000BFBD4680BC704700BFC4
:104D9000540D002080B582B000AF786000F052F86A
:104DA000064B1B68012BF9D9054B4FF080521A6056
:104DB000BFF34F8FBFF36F8FF0E700BF7008002085
:104DC00004ED00E080B582B000AF00237B600CE012
:104DD0007A6813469B0013449B00124A13441846FA
:104DE000FEF7E4FC7B6801337B607B68372BEFD9EF
:104DF0000D48FEF7DBFC0D48FEF7D8FC0C48FEF72B
:104E0000D5FC0C48FEF7D2FC0B48FEF7CFFC0B4B51
:104E1000054A1A600A4B054A1A6000BF0837BD46AA
:104E200080BD00BF70080020D00C0020E40C0020E2
:104E3000000D0020140D00202C0D0020F80C002087
:104E4000FC0C002080B582B000AF19E000F06EFDD0
:104E5000104BDB68DB687B607B6804331846FEF729
:104E60002BFD0D4B1B68013B0B4A13600B4B1B6862
:104E7000013B0A4A136000F089FD786800F010F8E1
:104E8000064B1B68002BE1D100BF00BF0837BD46B1
:104E900080BD00BF140D0020400D0020280D002013
:104EA00080B584B000AF78607B6893F85930002BF0
:104EB00008D17B681B6B184600F002FF786800F091
:104EC000FFFE19E07B6893F85930012B03D1786815
:104ED00000F0F6FE10E07B6893F85930022B0BD0FF
:104EE0004FF0500383F31188BFF36F8FBFF34F8FE1
:104EF000FB6000BF00BFFDE700BF1037BD4680BDAF
:104F000080B483B000AF0E4B1B681B68002B01D12F
:104F1000012300E00023002B04D00A4B4FF0FF32A6
:104F20001A6008E0064B1B68DB68DB687B607B6807
:104F30005B68044A136000BF0C37BD4680BC7047F5
:104F4000F80C0020600D002080B483B000AF0B4B44
:104F50001B68002B02D101237B6008E0084B1B6813
:104F6000002B02D102237B6001E000237B607B6881
:104F700018460C37BD4680BC704700BF4C0D002062
:104F8000680D002080B586B000AF78607B683B611B
:104F900000237B617B68002B58D02F4B1B683A693C
:104FA0009A420BD04FF0500383F31188BFF36F8FF9
:104FB000BFF34F8FFB6000BF00BFFDE73B691B6D78
:104FC000002B0BD14FF0500383F31188BFF36F8F89
:104FD000BFF34F8FBB6000BF00BFFDE73B691B6D98
:104FE0005A1E3B691A653B69DA6A3B69DB6C9A4277
:104FF0002CD03B691B6D002B28D13B69043318462C
:10500000FEF75AFC3B69DA6C3B69DA623B69DB6AA2
:10501000C3F138023B699A613B69DA6A0F4B1B683E
:105020009A4203D93B69DB6A0C4A13603B69DA6A2E
:1050300013469B0013449B00094A1A443B690433FE
:1050400019461046FEF7DDFB01237B617B6918469C
:105050001837BD4680BD00BF6C080020480D0020F9
:105060007008002080B584B000AF78603960214BB3
:105070001B68FB60204B1B6804331846FEF71CFCC2
:105080007B68B3F1FF3F0AD13B68002B07D01A4B76
:105090001B68043319461948FEF7B3FB26E0FA688B
:1050A0007B681344BB60144B1B68BA685A60BA68CB
:1050B000FB689A4209D2124B1A680F4B1B680433E3
:1050C00019461046FEF7C0FB10E00E4B1A680A4B5B
:1050D0001B68043319461046FEF7B6FB0A4B1B68E3
:1050E000BA689A4202D2084ABB68136000BF103700
:1050F000BD4680BD440D00206C0800202C0D002012
:10510000FC0C0020F80C0020600D002080B58AB057
:1051100004AF00237B6100F0D9FA1D4B1B68002B04
:1051200021D00023FB600023BB603A1D07F108017A
:1051300007F10C031846FEF71FFB7968BB68FA6895
:10514000029201930223009300230A461149124858
:10515000FFF7D2F80346114A1360104B1B68002B6F
:1051600001D001237B617B69002B0BD14FF05003F1
:1051700083F31188BFF36F8FBFF34F8F3B6100BF85
:1051800000BFFDE77B6918461837BD4680BD00BFEC
:105190009C0D0020AC5F0008C1520008A00D00204B
:1051A00080B58AB000AFF860B9607A603B600023D8
:1051B0007B62FB68002B0BD14FF0500383F3118807
:1051C000BFF36F8FBFF34F8F3B6200BF00BFFDE7A0
:1051D000194B1B68002B2AD0BB683B617B687B6145
:1051E000FB68BB61BB68052B18DCFFF7ADFE03460F
:1051F000022B09D1104B186807F1100100233A6BFC
:10520000FEF78EFC786212E00B4B186807F1100174
:1052100000230022FEF784FC786208E0064B186841
:1052200007F1100100233A68FEF77CFD78627B6A83
:1052300018462837BD4680BD9C0D002080B588B03B
:1052400002AF786039601D4B1B68DB68DB687B61EF
:105250007B6904331846FEF72FFB7B69DB69012B62
:1052600023D17B699A697B68D1187B683A68786931
:1052700000F0CCF80346002B17D000230093002346
:105280007A6800217869FFF78BFF38613B69002B52
:105290000BD14FF0500383F31188BFF36F8FBFF32F
:1052A0004F8FFB6000BF00BFFDE77B695B6A7869D9
:1052B000984700BF1837BD4680BD00BF940D002041
:1052C00080B584B000AF786007F10803184600F09D
:1052D00059F8F860BB681946F86800F005F800F066
:1052E000D7F800BFF0E7000080B584B000AF786069
:1052F0003960FFF73BFA07F10803184600F066F83B
:10530000F860BB68002B30D13B68002B0AD17A686B
:10531000FB689A4206D8FFF737FAF9687868FFF712
:105320008DFF24E03B68002B08D0134B1B681B68E3
:10533000002B0CBF01230023DBB23B600F4B18682E
:105340007A68FB68D31A3A681946FEF7A1FFFFF79F
:105350001BFA0346002B0AD1094B4FF080521A600A
:10536000BFF34F8FBFF36F8F01E0FFF70DFA00BF60
:105370001037BD4680BD00BF980D00209C0D002059
:1053800004ED00E080B485B000AF78600E4B1B6880
:105390001B68002B0CBF01230023DBB21A467B687D
:1053A0001A607B681B68002B05D1074B1B68DB6804
:1053B0001B68FB6001E00023FB60FB6818461437A4
:1053C000BD4680BC704700BF940D002080B584B0FE
:1053D00000AF7860FFF776FAF8600B4B1B68FA684D
:1053E0009A4205D200F010F97B6801221A6002E0AF
:1053F0007B6800221A60044AFB681360FB68184649
:105400001037BD4680BD00BFA40D002080B586B01A
:1054100000AFF860B9607A603B6000237B61FB6895
:10542000BA685A60FB68FA681A61BA687B689A427F
:1054300012D87A683B68D21AFB689B699A4202D3F9
:1054400001237B611BE0104B1A68FB68043319468B
:105450001046FEF7F9F912E07A683B689A4206D2E4
:10546000BA683B689A4202D301237B6107E0074B8D
:105470001A68FB68043319461046FEF7E5F97B69A4
:1054800018461837BD4680BD980D0020940D0020A9
:1054900080B58EB002AFA5E07B68002B19DA3B1D0A
:1054A0000433FB62FB6A002B0BD14FF0500383F3F4
:1054B0001188BFF36F8FBFF34F8FFB6100BF00BF39
:1054C000FDE7FB6A1B68FA6A5068FA6A926811463F
:1054D00098477B68002BC0F28580FB68BB62BB6A83
:1054E0005B69002B04D0BB6A04331846FEF7E4F96D
:1054F0003B461846FFF76AFF78627B68092B6CD839
:1055000001A252F823F000BF3155000831550008C0
:1055100031550008DB5500088F550008C9550008B3
:105520003155000831550008DB5500088F5500083B
:10553000BA68BB6A9B69D118BB687A6AB86AFFF718
:1055400065FF0346002B4AD0BB6A5B6AB86A98477E
:10555000BB6ADB69012B42D1BA68BB6A9B691A44FA
:105560000023009300230021B86AFFF719FE386278
:105570003B6A002B33D14FF0500383F31188BFF304
:105580006F8FBFF34F8FBB6100BF00BFFDE7BA68ED
:10559000BB6A9A61BB6A9B69002B0BD14FF0500329
:1055A00083F31188BFF36F8FBFF34F8F7B6100BF11
:1055B00000BFFDE7BB6A9A697B6AD1187B6A7A6A89
:1055C000B86AFFF723FF0DE0BB6A93F82C30002B7D
:1055D00007D1B86A00F074FB03E000BF02E000BF2F
:1055E00000E000BF074B1B68391D00221846FEF77C
:1055F00035FC0346002B7FF44FAF00BF00BF3037B0
:10560000BD4680BD9C0D002080B588B002AF46E04D
:105610002C4B1B68DB681B683B612A4B1B68DB68F3
:10562000DB68FB60FB6804331846FEF745F9FB684E
:105630005B6AF8689847FB68DB69012B2FD1FB6830
:105640009B693A691344BB60BA683B699A420ED9B8
:10565000FB68BA685A60FB68FA681A61194B1A68E5
:10566000FB68043319461046FEF7EEF817E00023F6
:10567000009300233A690021F868FFF791FD7860F4
:105680007B68002B0BD14FF0500383F31188BFF3DD
:105690006F8FBFF34F8F3B6000BF00BFFDE7094B2B
:1056A0001B681B68002BB3D1064B1B687B61064B44
:1056B0001B68044A1360044A7B69136000BF1837F3
:1056C000BD4680BD940D0020980D002080B582B0AD
:1056D00002AF00F02BF9154B1B68002B20D11448AA
:1056E000FEF764F81348FEF761F8134B104A1A608E
:1056F000124B104A1A6000230093114B114A1021DB
:105700000A20FEF76DF90346084A1360074B1B6831
:10571000002B05D0054B1B680B491846FEF790FD82
:1057200000F034F900BFBD4680BD00BF9C0D0020D5
:105730006C0D0020800D0020940D0020980D00209D
:10574000480E0020A80D0020B45F000880B485B08A
:1057500000AFF860B9607A60FB68043BFB60FB68EF
:105760004FF080721A60FB68043BFB60BB6823F05B
:105770000102FB681A60FB68043BFB60084AFB6897
:105780001A60FB68143BFB607A68FB681A60FB6870
:10579000203BFB60FB6818461437BD4680BC704751
:1057A000A557000880B485B000AF00237B60124B82
:1057B0001B68B3F1FF3F0BD04FF0500383F3118808
:1057C000BFF36F8FBFF34F8FFB6000BF00BFFDE7DC
:1057D0004FF0500383F31188BFF36F8FBFF34F8FE8
:1057E000BB6000BF00BF7B68002BFCD000BF00BFC8
:1057F0001437BD4680BC7047240000200000000024
:10580000074B19680868B0E8F00F80F30988BFF308
:105810006F8F4FF0000080F311884EF00D0E70472F
:105820006C08002000BF00BF06480068006880F3D5
:10583000088862B661B6BFF34F8FBFF36F8F00DF8A
:1058400000BF00BF08ED00E080B584B000AF324B70
:10585000FB60FB681B78DBB27B60FB68FF221A7081
:10586000FB681B78DBB2FB70FB78DBB203F0500304
:10587000DAB22A4B1A702A4B07221A6009E0284B29
:105880001B68013B264A1360FB78DBB25B00DBB28E
:10589000FB70FB78DBB203F08003802BEFD0204B52
:1058A0001B68C3F10703042B0BD04FF0500383F3A5
:1058B0001188BFF36F8FBFF34F8FBB6000BF00BF76
:1058C000FDE7174B1B681B02154A1360144B1B683E
:1058D00003F4E063124A13607B68DAB2FB681A7063
:1058E000104B1B680F4A43F4700313600D4B1B6889
:1058F0000C4A43F07043136000F0B8F80A4B0022E2
:105900001A60FFF791FFFFF7ABF8FFF74BFF00239B
:1059100018461037BD4680BD00E400E0980E002018
:105920009C0E002020ED00E02400002080B483B015
:1059300000AF4FF0500383F31188BFF36F8FBFF3B5
:105940004F8F7B6000BF0F4B1B6801330D4A136004
:105950000C4B1B68012B10D10B4B1B68DBB2002BCF
:105960000BD04FF0500383F31188BFF36F8FBFF359
:105970004F8F3B6000BF00BFFDE700BF0C37BD4647
:1059800080BC70472400002004ED00E080B483B0A8
:1059900000AF124B1B68002B0BD14FF0500383F369
:1059A0001188BFF36F8FBFF34F8F7B6000BF00BFC5
:1059B000FDE70A4B1B68013B084A1360074B1B6855
:1059C000002B05D100233B603B6883F3118800BFA7
:1059D00000BF0C37BD4680BC704700BF24000020CC
:1059E000EFF30980BFF36F8F0D4B1A6820E9F00FBA
:1059F00010602DE908404FF0500080F31188FFF748
:105A00002FF84FF0000080F31188BDE808401968B6
:105A10000868B0E8F00F80F30988BFF36F8F704714
:105A20006C08002000BF00BF80B582B000AF4FF00F
:105A3000500383F31188BFF36F8FBFF34F8F7B60E9
:105A400000BFFEF74DFF0346002B03D0064B4FF07F
:105A500080521A6000233B603B6883F3118800BFCB
:105A600000BF0837BD4680BD04ED00E080B400AF44
:105A70000A4B00221A600A4B00221A60094B1B686D
:105A8000094AA2FB03239B09084A013B1360034B0D
:105A900007221A6000BFBD4680BC704710E000E0DE
:105AA00018E000E018000020D34D621014E000E080
:105AB00080B485B000AFEFF30583FB60FB680F2B6C
:105AC00015D9174AFB6813441B78FB72154B1B78DA
:105AD000FA7A9A420BD24FF0500383F31188BFF346
