:020000040800F2
:1000000000500020D51A00087D160008831600084D
:10001000891600088F1600089516000800000000D9
:1000200000000000000000000000000091630008D4
:100030009B1600080000000071650008B965000803
:100040001D1B00081D1B00081D1B00081D1B0008B0
:100050001D1B00081D1B00081D1B00081D1B0008A0
:100060001D1B00081D1B00081D1B00081D1B000890
:100070001D1B00081D1B00081D1B00081D1B000880
:100080001D1B00081D1B00081D1B00081D1B000870
:100090001D1B00081D1B00081D1B00081D1B000860
:1000A0001D1B0008A91600081D1B00081D1B0008C9
:1000B0001D1B00081D1B00081D1B00081D1B000840
:1000C0001D1B00081D1B00081D1B00081D1B000830
:1000D0001D1B00081D1B00081D1B00081D1B000820
:1000E0001D1B00081D1B00081D1B00080000000050
:1000F0000000000000000000000000000000000000
:0C01000000000000000000005FF808F1A3
:1001100010B5054C237833B9044B13B10448AFF341
:1001200000800123237010BD280000200000000083
:10013000E06A000808B5034B1BB103490348AFF35D
:10014000008008BD000000002C000020E06A0008CC
:1001500081F0004102E000BF83F0004330B54FEA78
:1001600041044FEA430594EA050F08BF90EA020FE5
:100170001FBF54EA000C55EA020C7FEA645C7FEA78
:10018000655C00F0E2804FEA5454D4EB5555B8BF9B
:100190006D420CDD2C4480EA020281EA030382EA0C
:1001A000000083EA010180EA020281EA0303362D9E
:1001B00088BF30BD11F0004F4FEA01314FF4801C71
:1001C0004CEA113102D0404261EB410113F0004F83
:1001D0004FEA03334CEA133302D0524263EB43033A
:1001E00094EA050F00F0A780A4F10104D5F1200ED8
:1001F0000DDB02FA0EFC22FA05F2801841F1000133
:1002000003FA0EF2801843FA05F359410EE0A5F106
:1002100020050EF1200E012A03FA0EFC28BF4CF037
:10022000020C43FA05F3C01851EBE37101F00045ED
:1002300007D54FF0000EDCF1000C7EEB00006EEBFA
:100240000101B1F5801F1BD3B1F5001F0CD3490884
:100250005FEA30004FEA3C0C04F101044FEA4452DB
:1002600012F5800F80F09A80BCF1004F08BF5FEA62
:10027000500C50F1000041EB045141EA050130BD42
:100280005FEA4C0C404141EB0101013C28BFB1F554
:10029000801FE9D291F0000F04BF01460020B1FA9F
:1002A00081F308BF2033A3F10B03B3F120020CDA72
:1002B0000C3208DD02F1140CC2F10C0201FA0CF050
:1002C00021FA02F10CE002F11402D8BFC2F1200CB5
:1002D00001FA02F120FA0CFCDCBF41EA0C0190406B
:1002E000E41AA2BF01EB0451294330BD6FEA0404B4
:1002F0001F3C1CDA0C340EDC04F11404C4F120029F
:1003000020FA04F001FA02F340EA030021FA04F3B0
:1003100045EA030130BDC4F10C04C4F1200220FA07
:1003200002F001FA04F340EA0300294630BD21FA45
:1003300004F0294630BD94F0000F83F4801306BF0B
:1003400081F480110134013D4EE77FEA645C18BFFF
:100350007FEA655C29D094EA050F08BF90EA020F96
:1003600005D054EA000C04BF1946104630BD91EA8E
:10037000030F1EBF0021002030BD5FEA545C05D191
:100380004000494128BF41F0004130BD14F58004D0
:100390003CBF01F5801130BD01F0004545F0FE4144
:1003A00041F470014FF0000030BD7FEA645C1ABF79
:1003B000194610467FEA655C1CBF0B46024650EAB0
:1003C000013406BF52EA033591EA030F41F40021DC
:1003D00030BD00BF90F0000F04BF0021704730B562
:1003E0004FF4806404F132044FF000054FF0000137
:1003F00050E700BF90F0000F04BF0021704730B5F8
:100400004FF4806404F1320410F0004548BF4042CC
:100410004FF000013EE700BF42004FEAE2014FEA21
:1004200031014FEA02701FBF12F07F4393F07F4FFC
:1004300081F06051704732F07F4208BF704793F0FF
:100440007F4F04BF41F40021704730B54FF4607412
:1004500001F0004521F000411CE700BF50EA010215
:1004600008BF704730B54FF000050AE050EA0102BE
:1004700008BF704730B511F0004502D5404261EB2E
:1004800041014FF4806404F132045FEA915C3FF46F
:10049000D8AE4FF003025FEADC0C18BF03325FEA0C
:1004A000DC0C18BF033202EBDC02C2F1200300FABD
:1004B00003FC20FA02F001FA03FE40EA0E0021FAE2
:1004C00002F11444BDE600BF70B54FF0FF0C4CF4D0
:1004D000E06C1CEA11541DBF1CEA135594EA0C0F82
:1004E00095EA0C0F00F0DEF82C4481EA030621EABD
:1004F0004C5123EA4C5350EA013518BF52EA0335F8
:1005000041F4801143F4801338D0A0FB02CE4FF0A9
:100510000005E1FB02E506F00042E0FB03E54FF0D9
:100520000006E1FB03569CF0000F18BF4EF0010ED1
:10053000A4F1FF04B6F5007F64F5407404D25FEACD
:100540004E0E6D4146EB060642EAC62141EA555180
:100550004FEAC52040EA5E504FEACE2EB4F1FD0CC2
:1005600088BFBCF5E06F1ED8BEF1004F08BF5FEA40
:10057000500E50F1000041EB045170BD06F00046F2
:1005800046EA010140EA020081EA0301B4EB5C049F
:10059000C2BFD4EB0C0541EA045170BD41F4801197
:1005A0004FF0000E013C00F3AB8014F1360FDEBFBC
:1005B000002001F0004170BDC4F10004203C35DA98
:1005C0000C341BDC04F11404C4F1200500FA05F31B
:1005D00020FA04F001FA05F240EA020001F00042BC
:1005E00021F0004110EBD37021FA04F642EB060132
:1005F0005EEA430E08BF20EAD37070BDC4F10C045C
:10060000C4F1200500FA04F320FA05F001FA04F21F
:1006100040EA020001F0004110EBD37041F100010B
:100620005EEA430E08BF20EAD37070BDC4F1200516
:1006300000FA05F24EEA020E20FA04F301FA05F27E
:1006400043EA020321FA04F001F0004121FA04F226
:1006500020EA020000EBD3705EEA430E08BF20EAF6
:10066000D37070BD94F0000F0FD101F00046400030
:1006700041EB010111F4801F08BF013CF7D041EAB2
:10068000060195F0000F18BF704703F000465200B6
:1006900043EB030313F4801F08BF013DF7D043EA87
:1006A0000603704794EA0C0F0CEA135518BF95EA3D
:1006B0000C0F0CD050EA410618BF52EA4306D1D1C4
:1006C00081EA030101F000414FF0000070BD50EAE3
:1006D000410606BF1046194652EA430619D094EA6D
:1006E0000C0F02D150EA013613D195EA0C0F05D157
:1006F00052EA03361CBF104619460AD181EA0301AB
:1007000001F0004141F0FE4141F470014FF0000062
:1007100070BD41F0FE4141F4780170BD70B54FF0FD
:10072000FF0C4CF4E06C1CEA11541DBF1CEA13557D
:1007300094EA0C0F95EA0C0F00F0A7F8A4EB05045F
:1007400081EA030E52EA03354FEA013100F0888056
:100750004FEA03334FF0805545EA131343EA12631F
:100760004FEA022245EA111545EA10654FEA0026D4
:100770000EF000419D4208BF964244F1FD0404F58D
:10078000407402D25B084FEA3202B61A65EB0305E9
:100790005B084FEA32024FF480104FF4002CB6EBA6
:1007A000020E75EB030E22BFB61A754640EA0C0026
:1007B0005B084FEA3202B6EB020E75EB030E22BF66
:1007C000B61A754640EA5C005B084FEA3202B6EBA7
:1007D000020E75EB030E22BFB61A754640EA9C0066
:1007E0005B084FEA3202B6EB020E75EB030E22BF36
:1007F000B61A754640EADC0055EA060E18D04FEAF4
:10080000051545EA16754FEA06164FEAC30343EA93
:1008100052734FEAC2025FEA1C1CC0D111F4801F60
:100820000BD141EA00014FF000004FF0004CB6E759
:1008300011F4801F04BF01430020B4F1FD0C88BFF8
:10084000BCF5E06F3FF6AFAEB5EB030C04BFB6EB03
:10085000020C5FEA500C50F1000041EB045170BDF6
:100860000EF0004E4EEA113114EB5C04C2BFD4EB23
:100870000C0541EA045170BD41F480114FF0000EA7
:10088000013C90E645EA060E8DE60CEA135594EA23
:100890000C0F08BF95EA0C0F3FF43BAF94EA0C0F26
:1008A0000AD150EA01347FF434AF95EA0C0F7FF49B
:1008B00025AF104619462CE795EA0C0F06D152EAEF
:1008C00003353FF4FDAE1046194622E750EA4106D3
:1008D00018BF52EA43067FF4C5AE50EA41047FF4E4
:1008E0000DAF52EA43057FF4EBAE12E74FEA410247
:1008F000B2F1E04324BFB3F5001CDCF1FE5C0DD97E
:1009000001F0004C4FEAC0024CEA5070B2F1004FC7
:1009100040EB830008BF20F00100704711F0804FCA
:1009200021D113F13872BCBF01F00040704741F48F
:1009300080114FEA5252C2F11802C2F1200C10FA93
:100940000CF320FA02F018BF40F001004FEAC12377
:100950004FEAD32303FA0CFC40EA0C0023FA02F31B
:100960004FEA4303CCE77FEA625307D150EA0133F1
:100970001EBF4FF0FE4040F44000704701F00040C1
:1009800040F0FE4040F40000704700BF80B584B0E6
:1009900000AF78600023FB737B68012B02D9012331
:1009A000FB735AE02F497A6813469B0013449B005F
:1009B0000B4410331B78022B4DD12A497A68134619
:1009C0009B0013449B000B4411331B78002B07D171
:1009D000254B1B6825497A6851F822205A632CE080
:1009E00020497A6813469B0013449B000B44113343
:1009F0001B78042B07D11C4B1A681C497B6851F8E3
:100A00002330936319E017497A6813469B00134417
:100A10009B000B4411331B78082B07D1124B1A682B
:100A200012497B6851F82330D36306E00E4B1A68F5
:100A30000E497B6851F8233013640A497A681346DB
:100A40009B0013449B000B4411331B781946064846
:100A500002F04EF801E00123FB73FB7B18461037D0
:100A6000BD4680BD6C6B0008040100200000002022
:100A700080B584B000AF78600023FB737B68012BE6
:100A800002D90123FB731AE00F497A6813469B00D1
:100A900013449B000B4410331B78022B0DD10A49E1
:100AA0007A6813469B0013449B000B4411331B7858
:100AB0001946064802F0BEF801E00123FB73FB7BF8
:100AC00018461037BD4680BD6C6B0008040100203D
:100AD00080B584B000AF78600023FB737B68012B86
:100AE00002D90123FB7387E046497A6813469B00CD
:100AF00013449B000B440433186842497A68134638
:100B00009B0013449B000B441B689BB200221946B8
:100B100001F09CFA3B497A6813469B0013449B0002
:100B20000B440C33186837497A6813469B0013440A
:100B30009B000B4408331B689BB20122194601F04D
:100B400085FA30497A6813469B0013449B000B4496
:100B500010331B78022B4DD12A497A6813469B002B
:100B600013449B000B4411331B78002B07D1264BF9
:100B70001B6826497A6851F822205A632CE02149E3
:100B80007A6813469B0013449B000B4411331B7877
:100B9000042B07D11C4B1A681C497B6851F8233081
:100BA000936319E017497A6813469B0013449B002E
:100BB0000B4411331B78082B07D1134B1A681349C8
:100BC0007B6851F82330D36306E00F4B1A680F4956
:100BD0007B6851F8233013640A497A6813469B00F6
:100BE00013449B000B4411331B781946064801F04F
:100BF0007FFF01E00123FB73FB7B18461037BD46E6
:100C000080BD00BF6C6B00080401002000000020C4
:100C100080B485B000AF786039600023FB737B68D7
:100C2000012B02D90123FB735AE030497A6813463D
:100C30009B0013449B000B4410331B78022B4DD1B7
:100C40003B6842F2107202FB03F3294AA2FB032322
:100C50005A0928497B6841F8232024497A681346B9
:100C60009B0013449B000B4411331B78002B07D1CE
:100C7000214B1B681F497A6851F822205A632FE0E4
:100C80001A497A6813469B0013449B000B441133A6
:100C90001B78042B07D1184B1A6816497B6851F84A
:100CA000233093631CE011497A6813469B00134478
:100CB0009B000B4411331B78082B07D10E4B1A688D
:100CC0000C497B6851F82330D36309E00A4B1A685A
:100CD00008497B6851F82330136401E00123FB735A
:100CE000FB7B18461437BD4680BC70476C6B000810
:100CF0001F85EB51000000200401002080B582B068
:100D000000AF0023FB71022301221449144803F0B1
:100D100045F80346BB71BB79002B02D10F4B1B7802
:100D2000FB71FB79462B05D101224FF400510D4890
:100D300001F08CF9094B1B78DBB2422B05D1002264
:100D40004FF40051074801F081F9044B00221A705A
:100D5000FB7918460837BD4680BD00BF440000201F
:100D60004C0100200010014080B582B000AF7860D7
:100D7000FFF7C4FF03461A46024B1A700A2004F01C
:100D800037FAF5E70800002080B582B000AF0023F5
:100D90007B6032210120FFF73BFF6F4B1B78FF2B5D
:100DA00075D0FF2B00F3D080392B6BDC302B80F219
:100DB000B280C9E0423B2F2B00F2C68001A252F85C
:100DC00023F000BFC50E0008490F0008490F0008B6
:100DD000490F0008A10E0008490F0008490F00083C
:100DE000490F0008490F0008490F0008FD0E0008D0
:100DF000490F0008490F0008490F0008490F000873
:100E0000490F0008E90E0008350F0008490F0008D7
:100E1000490F0008490F0008490F0008490F000852
:100E2000490F0008490F0008490F0008490F000842
:100E3000490F0008490F0008490F0008490F000832
:100E4000490F0008490F0008490F0008490F000822
:100E5000490F0008490F0008490F0008490F000812
:100E6000490F0008490F0008490F0008490F000802
:100E7000490F0008490F0008490F0008490F0008F2
:100E8000110F0008712B5FDC422B93DA5CE07B686A
:100E9000002B5BDD00237B600120FFF7E9FD55E0BF
:100EA0002D4B1B7B522B03D02B4B1B7B4C2B02D18E
:100EB0000120FFF7DDFD0020FFF768FD264BFF2234
:100EC0001A7044E0244B1B7B522B03D0224B1B7B1C
:100ED0004C2B02D10120FFF7CBFD0020FFF7F8FDDE
:100EE0001D4BFF221A7032E00120FFF7F1FD7B68F5
:100EF00001337B60184BFF221A7028E00120FFF7B6
:100F000045FD7B6801337B60134BFF221A701EE0A6
:100F1000114B64221A70104B1B7819460020FFF702
:100F200077FE0D4B1B781A460B4B9A600A4BFF223B
:100F30001A700CE00020FFF79BFD0120FFF798FDE1
:100F4000054BFF221A7002E000BF00E000BF022044
:100F500004F04EF921E700BF0800002080B582B000
:100F600000AF786001224FF400410C4801F06EF8A8
:100F70000A2004F03DF900224FF40041074801F037
:100F800065F8074B1B68DA68054B1B6842F00202E4
:100F9000DA60642004F02CF9E4E700BF00080140A7
:100FA0004800002080B582B000AF7860012208219F
:100FB0000B4801F04BF80A2004F01AF9002208212E
:100FC000074801F043F8074B1B68DA68054B1B68BC
:100FD00042F00202DA60642004F00AF9E6E700BF9A
:100FE000000C01404800002080B582B000AF78605E
:100FF0004FF47A7004F0FCF8FAE7000000000000FB
:1010000080B582B000AF78607B681B7F012B40F019
:101010008280894B1B78002B1AD10021786802F05E
:10102000EBF90346854A1360834B01221A707B68F3
:101030001B681A6A7B681B6822F00A021A627B68C6
:101040001B681A6A7B681B6842F002021A6262E03F
:10105000794B1B78012B5ED10021786802F0CCF926
:101060000346774A13607B681B6800225A62744B00
:101070001A68724B1B689A4207D9714B1A686F4BFA
:101080001B68D31A6F4A13600FE06C4B1A686C4BE5
:101090001B689A4209D96A4B1A68684B1B68D31AB5
:1010A00003F57F43FF33674A1360664B1B6818469E
:1010B000FFF790F95EA3D3E90023FFF705FA024694
:1010C0000B46104619464FF000024FF08043FFF7E1
:1010D00025FB02460B4610461946FFF707FC034660
:1010E000594A1360544B00221A707B681B681A6AB5
:1010F0007B681B6822F00A021A627B681A687B68A8
:101100001B68126A1A62514B1B68DA684F4B1B68E6
:1011100022F00202DA607B681B7F022B40F08280A3
:101120004B4B1B78002B1AD10421786802F064F92C
:101130000346484A1360464B01221A707B681B68BD
:101140001A6A7B681B6822F0A0021A627B681B681F
:101150001A6A7B681B6842F020021A6262E03C4B0C
:101160001B78012B5ED10421786802F045F9034613
:10117000394A13607B681B6800225A62364B1A6832
:10118000344B1B689A4207D9334B1A68314B1B68A2
:10119000D31A324A13600FE02E4B1A682E4B1B688D
:1011A0009A4209D92C4B1A682A4B1B68D31A03F5AB
:1011B0007F43FF33294A1360284B1B681846FFF70B
:1011C00009F91BA3D3E90023FFF77EF902460B467A
:1011D000104619464FF000024FF08043FFF79EFA89
:1011E00002460B4610461946FFF780FB03461C4A91
:1011F0001360174B00221A707B681B681A6A7B68A1
:101200001B6822F0A0021A627B681A687B681B6860
:10121000126A1A620D4B1B68DA680C4B1B6822F0CD
:101220000402DA6000BF0837BD4680BDAFF300801E
:101230009CC420B07268A13F980000209C00002050
:10124000A0000020A4000020900000204800002002
:10125000A8000020AC000020B0000020B400002056
:101260009400002080B500AF044A0021044802F039
:1012700089FF0346034A136000BF80BD946B0008DA
:1012800089120008B800002080B582B000AF7860F5
:10129000012003F021F8FBE780B588B000AF07F12B
:1012A000100300221A605A609A60DA60324B9B6920
:1012B000314A43F0100393612F4B9B6903F01003F5
:1012C000FB60FB682C4B9B692B4A43F00403936142
:1012D000294B9B6903F00403BB60BB68264B9B69E9
:1012E000254A43F008039361234B9B6903F00803ED
:1012F0007B607B6800224FF40051204800F0A6FE7E
:1013000000221E211E4800F0A1FE00224FF4A04141
:101310001C4800F09BFE4FF400533B6101237B61AE
:101320000023BB610223FB6107F110031946134838
:1013300000F008FD1E233B6101237B610023BB619C
:101340000223FB6107F1100319460D4800F0FAFC77
:101350004FF4A0433B6101237B610023BB61022367
:10136000FB6107F110031946064800F0EBFC00BFD3
:101370002037BD4680BD00BF001002400010014074
:1013800000080140000C014080B584B002AF00F0BD
:10139000C7FB0023019303230093012364222E49FA
:1013A0002E4803F0E9FD002301930223009301235B
:1013B00064222B492B4803F0DFFD00230193022315
:1013C0000093012364222849284803F0D5FD002317
:1013D000019302230093012364222549254803F049
:1013E000CBFD0023019302230093012364222249B1
:1013F000224803F0C1FD00F043F8FFF74DFF00F075
:10140000F3FA00F0BFF900F05FF902F055FEFFF7C4
:1014100029FF02F083FE4FF0804341F288329A6345
:1014200000237B6002E07B6801337B607B6847F2CE
:101430002F529342F7DD4FF0804342F210729A63CD
:1014400000233B6002E03B6801333B603B6847F2AE
:101450002F529342F7DDDEE7046B0008890D000888
:10146000146B0008690D0008246B00085D0F00086C
:10147000346B0008A50F0008446B0008E90F000852
:1014800080B590B000AF07F118032822002118465C
:1014900005F0ECFA3B1D00221A605A609A60DA608F
:1014A0001A610223BB610123BB621023FB6200238C
:1014B0007B6307F11803184600F0E0FD0346002B9C
:1014C00001D000F02BF80F237B600023BB600023CA
:1014D000FB6000233B6100237B613B1D002118461C
:1014E00001F04EF80346002B01D000F017F800BFC2
:1014F0004037BD4680BD000080B582B000AF786047
:101500007B681B68044A934201D100F01FFB00BFB7
:101510000837BD4680BD00BF002C014080B400AF3D
:1015200072B600BFFEE7000080B584B000AF184B74
:101530009B69174A43F001039361154B9B6903F0C4
:101540000103BB60BB68124BDB69114A43F0805357
:10155000D3610F4BDB6903F080537B607B68002213
:101560000F216FF0010000F0C2FB0A4B5B68FB60CB
:10157000FB6823F0E063FB60FB6843F00073FB60F3
:10158000044AFB68536000BF1037BD4680BD00BFF2
:10159000001002400000014080B58CB000AF7860C0
:1015A0000023BB6200237B62002387F82F302E4B81
:1015B0009B692D4A43F4006393612B4B9B6903F4B1
:1015C0000063BB60BB6807F10C0207F11003114612
:1015D000184601F045F901F02FF9B862BB6A234AB9
:1015E000A2FB03239B0C013B7B62214B214A1A6027
:1015F0001F4B40F2E732DA601D4A7B6A53601C4B96
:1016000000221A611A4B00229A60194B00229A613B
:10161000174801F073F9034687F82F3097F82F30F9
:10162000002B1BD1124801F0B9F9034687F82F307F
:1016300097F82F30002B11D1192000F074FB7B6834
:101640000F2B08D800227968192000F050FB0A4AB5
:101650007B68136002E0012387F82F3097F82F3062
:1016600018463037BD4680BD0010024083DE1B4364
:10167000BC000020002C01401C00002080B400AF02
:10168000FEE780B400AFFEE780B400AFFEE780B4B1
:1016900000AFFEE780B400AFFEE780B400AF00BF4C
:1016A000BD4680BC7047000080B500AF024801F025
:1016B00074FB00BF80BD00BFBC00002080B400AF41
:1016C00000BFBD4680BC704780B586B000AF07F153
:1016D000100300221A605A603B4600221A605A60CA
:1016E0009A60DA60264B4FF080421A60244B072242
:1016F0005A60234B00229A60214B4FF6FF72DA604A
:101700001F4B00221A611E4B00229A611C4801F0F7
:10171000F5FA0346002B01D0FFF700FF00233B61E1
:1017200000237B6107F110031946154802F076FA91
:101730000346002B01D0FFF7F1FE00233B6001239D
:101740007B600023BB600423FB603B4600221946FC
:101750000B4801F02AFC0346002B01D0FFF7DEFE08
:101760003B4604221946064801F01FFC0346002BA5
:1017700001D0FFF7D3FE00BF1837BD4680BD00BFC4
:101780004800002080B58EB000AF07F1280300228A
:101790001A605A609A60DA6007F1200300221A602A
:1017A0005A603B1D00221A605A609A60DA601A6122
:1017B0005A619A612C4B2D4A1A602B4B07225A60B2
:1017C000294B00229A60284B44F62062DA60264BAF
:1017D00000221A61244B00229A61234801F08EF8FE
:1017E0000346002B01D0FFF799FE4FF48053BB62F4
:1017F00007F1280319461C4801F036FD0346002B6B
:1018000001D0FFF78BFE184801F01AF90346002BB0
:1018100001D0FFF783FE00233B6200237B6207F1C8
:1018200020031946104802F0F9F90346002B01D0B5
:10183000FFF774FE60237B600023BB600023FB6026
:1018400000237B613B1D00221946074801F04AFC3A
:101850000346002B01D0FFF761FE034800F092F829
:1018600000BF3837BD4680BD0401002000040040A1
:1018700080B58AB000AF786007F1140300221A60C7
:101880005A609A60DA607B681B68B3F1804F4ED172
:10189000294BDB69284A43F00103D361264BDB69FE
:1018A00003F001033B613B69234B9B69224A43F0F0
:1018B00004039361204B9B6903F00403FB60FB6806
:1018C0001D4B9B691C4A43F0080393611A4B9B69AB
:1018D00003F00803BB60BB684FF400437B61002347
:1018E000BB610023FB6107F114031946134800F0A4
:1018F00029FA08237B610023BB610023FB6107F108
:10190000140319460E4800F01DFA0E4B5B687B620B
:101910007B6A23F440737B627B6A43F0E0637B6203
:101920007B6A43F480737B62064A7B6A536000BF24
:101930002837BD4680BD00BF0010024000080140AE
:10194000000C01400000014080B485B000AF786019
:101950007B681B68094A93420BD1094BDB69084A33
:1019600043F00203D361064BDB6903F00203FB6023
:10197000FB6800BF1437BD4680BC704700040040C0
:101980000010024080B588B000AF786007F1100306
:1019900000221A605A609A60DA607B681B680F4AFE
:1019A000934217D10E4B9B690D4A43F00403936198
:1019B0000B4B9B6903F00403FB60FB6840233B6116
:1019C00002237B610223FB6107F1100319460548DE
:1019D00000F0B8F900BF2037BD4680BD00040040CC
:1019E000001002400008014080B500AF114B124AC0
:1019F0001A60104B4FF416525A600E4B00229A6038
:101A00000C4B0022DA600B4B00221A61094B0C22AE
:101A10005A61084B00229A61064B0022DA610548A0
:101A200002F06CF90346002B01D0FFF777FD00BFF1
:101A300080BD00BF4C0100200038014080B588B057
:101A400000AF786007F1100300221A605A609A60B4
:101A5000DA607B681B681C4A934231D11B4B9B693F
:101A60001A4A43F480439361184B9B6903F4804303
:101A7000FB60FB68154B9B69144A43F004039361B8
:101A8000124B9B6903F00403BB60BB684FF4007307
:101A90003B6102237B610323FB6107F110031946BD
:101AA0000B4800F04FF94FF480633B6100237B61EA
:101AB0000023BB6107F110031946054800F042F905
:101AC00000BF2037BD4680BD0038014000100240F5
:101AD00000080140FFF7F2FD0B480C490C4A0023B7
:101AE00002E0D458C4500433C4188C42F9D3094AD4
:101AF000094C002301E013600432A242FBD304F03E
:101B0000BDFFFFF741FC70470000002028000020C7
:101B1000EC6B000828000020E01A0020FEE700001F
:101B200080B500AF084B1B68074A43F010031360F1
:101B3000032000F0D1F80F20FFF72EFDFFF7F4FC93
:101B40000023184680BD00BF0020024080B400AFD3
:101B5000054B1B781A46054B1B681344034A136058
:101B600000BFBD4680BC70472000002094010020CB
:101B700080B400AF024B1B681846BD4680BC70475E
:101B80009401002080B485B000AF78607B6803F0DA
:101B90000703FB600C4BDB68BB60BA684FF6FF03C2
:101BA0001340BB60FB681A02BB68134343F0BF637A
:101BB00043F40033BB60044ABB68D36000BF1437F2
:101BC000BD4680BC704700BF00ED00E080B400AFB0
:101BD000044BDB681B0A03F007031846BD4680BCB4
:101BE000704700BF00ED00E080B483B000AF034653
:101BF000FB7197F90730002B0BDBFB7903F01F0219
:101C0000064997F907305B09012000FA02F241F812
:101C1000232000BF0C37BD4680BC704700E100E0C8
:101C200080B483B000AF03463960FB7197F9073089
:101C3000002B0ADB3B68DAB20C4997F90730120136
:101C4000D2B20B4483F800230AE03B68DAB20849B9
:101C5000FB7903F00F03043B1201D2B20B441A7656
:101C600000BF0C37BD4680BC704700BF00E100E0FC
:101C700000ED00E080B489B000AFF860B9607A6030
:101C8000FB6803F00703FB61FB69C3F10703042B47
:101C900028BF0423BB61FB690433062B02D9FB690F
:101CA000033B00E000237B614FF0FF32BB6902FA87
:101CB00003F3DA43BB681A407B699A404FF0FF3167
:101CC0007B6901FA03F3D9437B680B401343184641
:101CD0002437BD4680BC704780B582B000AF7860C5
:101CE0007868FFF74FFF00BF0837BD4680BD80B55D
:101CF00086B000AF0346B9607A60FB7300237B6156
:101D0000FFF764FF78617A68B9687869FFF7B2FF16
:101D1000024697F90F3011461846FFF781FF00BFC2
:101D20001837BD4680BD80B582B000AF0346FB7159
:101D300097F907301846FFF757FF00BF0837BD4631
:101D400080BD000080B48BB000AF786039600023A4
:101D50007B6200233B6269E101227B6A02FA03F3A2
:101D6000FB613B681B68FA691340BB61BA69FB6998
:101D70009A4240F058813B685B689A4A93425ED031
:101D8000984A934275D8984A934258D0964A9342BB
:101D90006FD8964A934252D0944A934269D8944A53
:101DA00093424CD0924A934263D8924A934246D08F
:101DB000904A93425DD8122B2AD8122B59D801A2EF
:101DC00052F823F03F1E0008191E00082B1E0008C1
:101DD0006D1E0008731E0008731E0008731E0008A5
:101DE000731E0008731E0008731E0008731E00088F
:101DF000731E0008731E0008731E0008731E00087F
:101E0000731E0008731E0008211E0008351E0008FE
:101E1000794A934213D02CE03B68DB683B6229E0AF
:101E20003B68DB6804333B6224E03B68DB680833D3
:101E30003B621FE03B68DB680C333B621AE03B68A7
:101E40009B68002B02D104233B6213E03B689B6834
:101E5000012B05D108233B627B68FA691A6109E00E
:101E600008233B627B68FA695A6103E000233B6206
:101E700000E000BFBB69FF2B01D87B6801E07B68F5
:101E800004337B61BB69FF2B02D87B6A9B0002E0B5
:101E90007B6A083B9B003B617B691A680F213B69A9
:101EA00001FA03F3DB431A40396A3B6901FA03F391
:101EB0001A437B691A603B685B6803F08053002B10
:101EC00000F0B1804D4B9B694C4A43F00103936194
:101ED0004A4B9B6903F00103BB60BB68484A7B6ABD
:101EE0009B08023352F82330FB607B6A03F0030344
:101EF0009B000F2202FA03F3DB43FA681340FB60F6
:101F00007B68404A934213D07B683F4A93420DD08E
:101F10007B683E4A934207D07B683D4A934201D199
:101F2000032306E0042304E0022302E0012300E08F
:101F300000237A6A02F0030292009340FA68134386
:101F4000FB602F497B6A9B080233FA6841F8232023
:101F50003B685B6803F48013002B06D02D4B9A6816
:101F60002C49BB6913438B6006E02A4B9A68BB6916
:101F7000DB43284913408B603B685B6803F4001324
:101F8000002B06D0234BDA682249BB691343CB6090
:101F900006E0204BDA68BB69DB431E491340CB6087
:101FA0003B685B6803F40033002B06D0194B5A687A
:101FB0001849BB6913434B6006E0164B5A68BB696E
:101FC000DB43144913404B603B685B6803F4803388
:101FD000002B21D00F4B1A680E49BB6913430B60CD
:101FE00021E000BF0000321000003110000022107C
:101FF000000021100000121000001110001002401B
:102000000000014000080140000C014000100140A8
:1020100000140140000401400B4B1A68BB69DB430C
:10202000094913400B607B6A01337B623B681A6885
:102030007B6A22FA03F3002B7FF48EAE00BF00BF51
:102040002C37BD4680BC70470004014080B483B08B
:1020500000AF78600B467B8013467B707B78002B4B
:1020600003D07A887B681A6103E07B881A047B6856
:102070001A6100BF0C37BD4680BC704780B586B082
:1020800000AF78607B68002B01D1012372E27B688E
:102090001B6803F00103002B00F08780924B5B6804
:1020A00003F00C03042B0CD08F4B5B6803F00C0384
:1020B000082B12D18C4B5B6803F48033B3F5803F5F
:1020C0000BD1894B1B6803F40033002B6CD07B6869
:1020D0005B68002B68D101234CE27B685B68B3F539
:1020E000803F06D1804B1B687F4A43F480331360E6
:1020F0002EE07B685B68002B0CD17B4B1B687A4A17
:1021000023F480331360784B1B68774A23F48023D1
:1021100013601DE07B685B68B3F5A02F0CD1724B98
:102120001B68714A43F4802313606F4B1B686E4A2F
:1021300043F4803313600BE06B4B1B686A4A23F453
:1021400080331360684B1B68674A23F48023136055
:102150007B685B68002B13D0FFF70AFD386108E04D
:10216000FFF706FD02463B69D31A642B01D903230E
:1021700000E25D4B1B6803F40033002BF0D014E049
:10218000FFF7F6FC386108E0FFF7F2FC02463B6916
:10219000D31A642B01D90323ECE1534B1B6803F4DE
:1021A0000033002BF0D100E000BF7B681B6803F018
:1021B0000203002B63D04C4B5B6803F00C03002B35
:1021C0000BD0494B5B6803F00C03082B1CD1464B2A
:1021D0005B6803F48033002B16D1434B1B6803F07C
:1021E0000203002B05D07B681B69012B01D0012362
:1021F000C0E13D4B1B6823F0F8027B685B69DB00A4
:10220000394913430B603AE07B681B69002B20D0EF
:10221000364B01221A60FFF7ABFC386108E0FFF78C
:10222000A7FC02463B69D31A022B01D90323A1E183
:102230002D4B1B6803F00203002BF0D02A4B1B68C8
:1022400023F0F8027B685B69DB00274913430B60CE
:1022500015E0264B00221A60FFF78AFC386108E07F
:10226000FFF786FC02463B69D31A022B01D90323F0
:1022700080E11D4B1B6803F00203002BF0D17B684B
:102280001B6803F00803002B3AD07B689B69002B86
:1022900019D0174B01221A60FFF76AFC386108E079
:1022A000FFF766FC02463B69D31A022B01D90323D0
:1022B00060E10D4B5B6A03F00203002BF0D00120BC
:1022C00000F0FEFA1CE00A4B00221A60FFF750FCF7
:1022D00038610FE0FFF74CFC02463B69D31A022B32
:1022E00008D9032346E100BF00100240000042422B
:1022F00080044242924B5B6A03F00203002BE9D157
:102300007B681B6803F00403002B00F0A680002309
:10231000FB758B4BDB6903F08053002B0DD1884B91
:10232000DB69874A43F08053D361854BDB6903F057
:102330008053BB60BB680123FB75824B1B6803F4B1
:102340008073002B18D17F4B1B687E4A43F4807347
:102350001360FFF70DFC386108E0FFF709FC024647
:102360003B69D31A642B01D9032303E1754B1B6826
:1023700003F48073002BF0D07B68DB68012B06D15F
:102380006F4B1B6A6E4A43F0010313622DE07B68BA
:10239000DB68002B0CD16A4B1B6A694A23F00103EE
:1023A0001362674B1B6A664A23F0040313621CE046
:1023B0007B68DB68052B0CD1614B1B6A604A43F0DC
:1023C000040313625E4B1B6A5D4A43F00103136210
:1023D0000BE05B4B1B6A5A4A23F001031362584B14
:1023E0001B6A574A23F0040313627B68DB68002BE7
:1023F00015D0FFF7BDFB38610AE0FFF7B9FB0246D5
:102400003B69D31A41F28832934201D90323B1E0E8
:102410004B4B1B6A03F00203002BEED014E0FFF7D6
:10242000A7FB38610AE0FFF7A3FB02463B69D31A1A
:1024300041F28832934201D903239BE0404B1B6A4F
:1024400003F00203002BEED1FB7D012B05D13C4BA9
:10245000DB693B4A23F08053D3617B68DB69002B47
:1024600000F08780364B5B6803F00C03082B61D0CB
:102470007B68DB69022B46D1334B00221A60FFF7E1
:1024800077FB386108E0FFF773FB02463B69D31A1C
:10249000022B01D903236DE0294B1B6803F0007365
:1024A000002BF0D17B681B6AB3F5803F08D1244B29
:1024B0005B6823F400327B689B68214913434B60BF
:1024C0001F4B5B6823F474127B68196A7B685B6A34
:1024D0000B431B4913434B601B4B01221A60FFF750
:1024E00047FB386108E0FFF743FB02463B69D31A1C
:1024F000022B01D903233DE0114B1B6803F000734D
:10250000002BF0D035E0104B00221A60FFF730FBB3
:10251000386108E0FFF72CFB02463B69D31A022B17
:1025200001D9032326E0064B1B6803F00073002B40
:10253000F0D11EE07B68DB69012B07D1012319E094
:102540000010024000700040600042420B4B5B688C
:10255000FB60FB6803F480327B681B6A9A4206D1F9
:10256000FB6803F470127B685B6A9A4201D0012316
:1025700000E0002318461837BD4680BD0010024019
:1025800080B584B000AF786039607B68002B01D1E2
:102590000123D0E06A4B1B6803F007033A689A42B4
:1025A00010D9674B1B6823F0070265493B6813434A
:1025B0000B60634B1B6803F007033A689A4201D033
:1025C0000123B8E07B681B6803F00203002B20D0D6
:1025D0007B681B6803F00403002B05D0594B5B6834
:1025E000584A43F4E06353607B681B6803F00803B8
:1025F000002B05D0534B5B68524A43F46053536041
:10260000504B5B6823F0F0027B689B684D49134395
:102610004B607B681B6803F00103002B40D07B6894
:102620005B68012B07D1474B1B6803F40033002B79
:1026300015D101237FE07B685B68022B07D1414BFA
:102640001B6803F00073002B09D1012373E03D4B9D
:102650001B6803F00203002B01D101236BE0394B0F
:102660005B6823F003027B685B68364913434B6069
:10267000FFF77EFAF8600AE0FFF77AFA0246FB6895
:10268000D31A41F28832934201D9032353E02D4BF0
:102690005B6803F00C027B685B689B009A42EBD19D
:1026A000274B1B6803F007033A689A4210D2244B69
:1026B0001B6823F0070222493B6813430B60204B41
:1026C0001B6803F007033A689A4201D0012332E005
:1026D0007B681B6803F00403002B08D0194B5B6870
:1026E00023F4E0627B68DB68164913434B607B6828
:1026F0001B6803F00803002B09D0124B5B6823F41E
:1027000060527B681B69DB000E4913434B6000F08D
:1027100021F802460B4B5B681B0903F00F030A49C3
:10272000CB5C22FA03F3094A1360094B1B68184675
:10273000FEF732FF002318461037BD4680BD00BFAC
:102740000020024000100240B86B00081800002072
:102750001C00002080B487B000AF0023FB60002382
:10276000BB6000237B6100237B6000233B611E4B29
:102770005B68FB60FB6803F00C03042B02D0082BA2
:1027800003D027E0194B3B6127E0FB689B0C03F06B
:102790000F03174AD35C7B60FB6803F48033002B84
:1027A00010D0114B5B685B0C03F00103114AD35C42
:1027B000BB607B680D4A03FB02F2BB68B2FBF3F31C
:1027C0007B6104E07B680C4A02FB03F37B617B695D
:1027D0003B6102E0054B3B6100BF3B6918461C377B
:1027E000BD4680BC704700BF0010024000127A0056
:1027F000D06B0008E06B000800093D0080B400AF1A
:10280000024B1B681846BD4680BC7047180000206C
:1028100080B500AFFFF7F2FF0246054B5B681B0A6D
:1028200003F007030349CB5C22FA03F3184680BD8B
:1028300000100240C86B000880B500AFFFF7DEFF54
:102840000246054B5B68DB0A03F007030349CB5CD8
:1028500022FA03F3184680BD00100240C86B00083E
:1028600080B483B000AF786039607B680F221A6053
:10287000114B5B6803F003027B685A600E4B5B6888
:1028800003F0F0027B689A600B4B5B6803F4E06234
:102890007B68DA60084B5B68DB0803F4E0627B6806
:1028A0001A61064B1B6803F007023B681A6000BF01
:1028B0000C37BD4680BC704700100240002002402B
:1028C00080B485B000AF78600A4B1B680A4AA2FB4F
:1028D00003235B0A7A6802FB03F3FB6000BFFB681B
:1028E0005A1EFA60002BF9D100BF00BF1437BD4655
:1028F00080BC704718000020D34D621080B582B0B4
:1029000000AF78607B68002B01D1012341E07B6838
:1029100093F83D30DBB2002B06D17B68002283F8B0
:102920003C207868FFF710F87B68022283F83D208E
:102930007B681A687B6804331946104600F0BCFDBA
:102940007B68012283F846207B68012283F83E20C1
:102950007B68012283F83F207B68012283F84020B6
:102960007B68012283F841207B68012283F84220A2
:102970007B68012283F843207B68012283F844208E
:102980007B68012283F845207B68012283F83D2083
:10299000002318460837BD4680BD000080B485B0CE
:1029A00000AF78607B6893F83D30DBB2012B01D03B
:1029B00001233AE07B68022283F83D207B681B6894
:1029C000DA687B681B6842F00102DA607B681B688A
:1029D000184A93420ED07B681B68B3F1804F09D030
:1029E0007B681B68144A934204D07B681B68134AB7
:1029F000934211D17B681B689B6803F00703FB605F
:102A0000FB68062B10D07B681B681A687B681B6804
:102A100042F001021A6007E07B681B681A687B6855
:102A20001B6842F001021A60002318461437BD46A5
:102A300080BC7047002C01400004004000080040AA
:102A400080B582B000AF78607B68002B01D1012394
:102A500041E07B6893F83D30DBB2002B06D17B6808
:102A6000002283F83C20786800F039F87B68022265
:102A700083F83D207B681A687B680433194610464A
:102A800000F01AFD7B68012283F846207B68012252
:102A900083F83E207B68012283F83F207B68012277
:102AA00083F840207B68012283F841207B68012263
:102AB00083F842207B68012283F843207B6801224F
:102AC00083F844207B68012283F845207B6801223B
:102AD00083F83D20002318460837BD4680BD80B4EA
:102AE00083B000AF786000BF0C37BD4680BC704734
:102AF00080B584B000AF786039603B68002B09D1A5
:102B00007B6893F83E30DBB2012B14BF0123002316
:102B1000DBB222E03B68042B09D17B6893F83F309D
:102B2000DBB2012B14BF01230023DBB215E03B68AD
:102B3000082B09D17B6893F84030DBB2012B14BF1E
:102B400001230023DBB208E07B6893F84130DBB25D
:102B5000012B14BF01230023DBB2002B01D0012382
:102B60005EE03B68002B04D17B68022283F83E20A4
:102B700013E03B68042B04D17B68022283F83F20DA
:102B80000BE03B68082B04D17B68022283F84020CD
:102B900003E07B68022283F841207B681B680122E6
:102BA0003968184601F015F87B681B681E4A934285
:102BB00007D17B681B685A6C7B681B6842F4004233
:102BC0005A647B681B68184A93420ED07B681B6866
:102BD000B3F1804F09D07B681B68144A934204D03C
:102BE0007B681B68124A934211D17B681B689B6803
:102BF00003F00703FB60FB68062B10D07B681B68A3
:102C00001A687B681B6842F001021A6007E07B6863
:102C10001B681A687B681B6842F001021A60002377
:102C200018461037BD4680BD002C0140000400400E
:102C30000008004080B582B000AF786039607B68E2
:102C40001B6800223968184600F0C3FF7B681B68C8
:102C5000294A934217D17B681B681A6A41F2111303
:102C60001340002B0FD17B681B681A6A40F2444363
:102C70001340002B07D17B681B685A6C7B681B686C
:102C800022F400425A647B681B681A6A41F21113ED
:102C90001340002B0FD17B681B681A6A40F2444333
:102CA0001340002B07D17B681B681A687B681B6880
:102CB00022F001021A603B68002B04D17B680122DC
:102CC00083F83E2013E03B68042B04D17B6801228B
:102CD00083F83F200BE03B68082B04D17B6801227E
:102CE00083F8402003E07B68012283F84120002321
:102CF00018460837BD4680BD002C014080B582B023
:102D000000AF78607B68002B01D1012341E07B6834
:102D100093F83D30DBB2002B06D17B68002283F8AC
:102D20003C207868FEF7A4FD7B68022283F83D20F2
:102D30007B681A687B6804331946104600F0BCFBB8
:102D40007B68012283F846207B68012283F83E20BD
:102D50007B68012283F83F207B68012283F84020B2
:102D60007B68012283F841207B68012283F842209E
:102D70007B68012283F843207B68012283F844208A
:102D80007B68012283F845207B68012283F83D207F
:102D9000002318460837BD4680BD80B582B000AF1D
:102DA00078607B681B681B6903F00203022B22D149
:102DB0007B681B68DB6803F00203022B1BD17B6876
:102DC0001B686FF002021A617B6801221A777B6828
:102DD0001B689B6903F00303002B03D07868FEF7A0
:102DE0000FF905E0786800F04BFB786800F051FBC4
:102DF0007B6800221A777B681B681B6903F0040359
:102E0000042B22D17B681B68DB6803F00403042BCE
:102E10001BD17B681B686FF004021A617B68022279
:102E20001A777B681B689B6903F44073002B03D0FF
:102E30007868FEF7E5F805E0786800F021FB78682F
:102E400000F027FB7B6800221A777B681B681B69F0
:102E500003F00803082B22D17B681B68DB6803F0B2
:102E60000803082B1BD17B681B686FF008021A61EE
:102E70007B6804221A777B681B68DB6903F0030315
:102E8000002B03D07868FEF7BBF805E0786800F007
:102E9000F7FA786800F0FDFA7B6800221A777B6801
:102EA0001B681B6903F01003102B22D17B681B6881
:102EB000DB6803F01003102B1BD17B681B686FF0DD
:102EC00010021A617B6808221A777B681B68DB692D
:102ED00003F44073002B03D07868FEF791F805E007
:102EE000786800F0CDFA786800F0D3FA7B680022A9
:102EF0001A777B681B681B6903F00103012B0ED155
:102F00007B681B68DB6803F00103012B07D17B683A
:102F10001B686FF001021A617868FEF7EDFA7B68B2
:102F20001B681B6903F08003802B0ED17B681B6834
:102F3000DB6803F08003802B07D17B681B686FF090
:102F400080021A61786800F0D0FE7B681B681B69FC
:102F500003F04003402B0ED17B681B68DB6803F055
:102F60004003402B07D17B681B686FF040021A6159
:102F7000786800F097FA7B681B681B6903F02003F0
:102F8000202B0ED17B681B68DB6803F02003202B0D
:102F900007D17B681B686FF020021A61786800F027
:102FA0009BFE00BF0837BD4680BD80B586B000AF30
:102FB000F860B9607A600023FB75FB6893F83C30D9
:102FC000012B01D1022388E0FB68012283F83C2019
:102FD0007B68002B1BD1FB681868BB681968BB684D
:102FE0005A68BB68DB6800F051FCFB681B689A6993
:102FF000FB681B6822F00C029A61FB681B689969E8
:10300000BB689A68FB681B680A439A6160E07B684A
:10301000042B1CD1FB681868BB681968BB685A6828
:10302000BB68DB6800F0BAFCFB681B689A69FB6848
:103030001B6822F440629A61FB681B689969BB684F
:103040009B681A02FB681B680A439A6140E07B6830
:10305000082B1BD1FB681868BB681968BB685A68E5
:10306000BB68DB6800F005FDFB681B68DA69FB687C
:103070001B6822F00C02DA61FB681B68D969BB6827
:103080009A68FB681B680A43DA6121E07B680C2BB5
:103090001CD1FB681868BB681968BB685A68BB68B4
:1030A000DB6800F021FDFB681B68DA69FB681B68C0
:1030B00022F44062DA61FB681B68D969BB689B68CF
:1030C0001A02FB681B680A43DA6101E00123FB7501
:1030D000FB68002283F83C20FB7D18461837BD466C
:1030E00080BD000080B586B000AFF860B9607A603E
:1030F0000023FB75FB6893F83C30012B01D10223C0
:10310000AEE0FB68012283F83C207B680C2B00F2C8
:103110009F8001A252F823F04D310008513200087F
:1031200051320008513200088D3100085132000838
:103130005132000851320008CF31000851320008E6
:1031400051320008513200080F320008FB681B683A
:10315000B968184600F012FAFB681B689A69FB68A8
:103160001B6842F008029A61FB681B689A69FB6859
:103170001B6822F004029A61FB681B689969BB68AE
:103180001A69FB681B680A439A6164E0FB681B6864
:10319000B968184600F058FAFB681B689A69FB6822
:1031A0001B6842F400629A61FB681B689A69FB68BD
:1031B0001B6822F480629A61FB681B689969BB688E
:1031C0001B691A02FB681B680A439A6143E0FB68AB
:1031D0001B68B968184600F0A1FAFB681B68DA6939
:1031E000FB681B6842F00802DA61FB681B68DA6959
:1031F000FB681B6822F00402DA61FB681B68D9696E
:10320000BB681A69FB681B680A43DA6123E0FB6844
:103210001B68B968184600F0EBFAFB681B68DA69AE
:10322000FB681B6842F40062DA61FB681B68DA69BC
:10323000FB681B6822F48062DA61FB681B68D9694D
:10324000BB681B691A02FB681B680A43DA6102E06B
:103250000123FB7500BFFB68002283F83C20FB7D47
:1032600018461837BD4680BD80B584B000AF786081
:1032700039600023FB737B6893F83C30012B01D14C
:103280000223B4E07B68012283F83C207B680222A1
:1032900083F83D207B681B689B68BB60BB6823F09C
:1032A0007703BB60BB6823F47F43BB607B681B680C
:1032B000BA689A603B681B68B3F5005F3ED0B3F50F
:1032C000005F00F28780B3F5805F00F08680B3F581
:1032D000805F7FD8702B1AD0702B7BD8602B50D09A
:1032E000602B77D8502B3CD0502B73D8402B58D024
:1032F000402B6FD8302B64D0302B6BD8202B60D074
:10330000202B67D8002B5CD0102B5AD062E07B6852
:1033100018683B6899683B685A683B68DB6800F04E
:1033200039FC7B681B689B68BB60BB6843F0770314
:10333000BB607B681B68BA689A604FE07B6818685E
:103340003B6899683B685A683B68DB6800F022FC80
:103350007B681B689A687B681B6842F480429A60AD
:103360003CE07B6818683B6859683B68DB681A4634
:1033700000F0E6FA7B681B685021184600F0F0FB6D
:103380002CE07B6818683B6859683B68DB681A4624
:1033900000F040FB7B681B686021184600F0E0FBF2
:1033A0001CE07B6818683B6859683B68DB681A4614
:1033B00000F0C6FA7B681B684021184600F0D0FB7D
:1033C0000CE07B681A683B681B681946104600F0E1
:1033D000C7FB03E00123FB7300E000BF7B68012211
:1033E00083F83D207B68002283F83C20FB7B184655
:1033F0001037BD4680BD000080B485B000AF786056
:1034000039600023FB603B680C2B31D801A252F8D5
:1034100023F000BF493400087134000871340008FB
:103420007134000853340008713400087134000806
:10343000713400085D3400087134000871340008EC
:1034400071340008673400087B681B685B6BFB60A5
:103450000FE07B681B689B6BFB600AE07B681B6866
:10346000DB6BFB6005E07B681B681B6CFB6000E0AE
:1034700000BFFB6818461437BD4680BC704700BFCC
:1034800080B483B000AF786000BF0C37BD4680BC0D
:10349000704780B483B000AF786000BF0C37BD4682
:1034A00080BC704780B483B000AF786000BF0C3739
:1034B000BD4680BC7047000080B485B000AF786026
:1034C00039607B681B68FB607B68294A93420BD09C
:1034D0007B68B3F1804F07D07B68264A934203D0C4
:1034E0007B68254A934208D1FB6823F07003FB6098
:1034F0003B685B68FA681343FB607B681C4A934235
:103500000BD07B68B3F1804F07D07B68194A934298
:1035100003D07B68184A934208D1FB6823F44073B8
:10352000FB603B68DB68FA681343FB60FB6823F0D1
:1035300080023B685B691343FB607B68FA681A6032
:103540003B689A687B68DA623B681A687B689A62B3
:103550007B68074A934203D13B681A697B681A6308
:103560007B6801225A6100BF1437BD4680BC70479A
:10357000002C0140000400400008004080B487B0E7
:1035800000AF786039607B681B6A7B617B681B6A6F
:1035900023F001027B681A627B685B683B617B6891
:1035A0009B69FB60FB6823F07003FB60FB6823F002
:1035B0000303FB603B681B68FA681343FB607B698D
:1035C00023F002037B613B689B687A6913437B614C
:1035D0007B681C4A93420CD17B6923F008037B6112
:1035E0003B68DB687A6913437B617B6923F00403E2
:1035F0007B617B68134A934211D13B6923F480734A
:103600003B613B6923F400733B613B685B693A694A
:1036100013433B613B689B693A6913433B617B6899
:103620003A695A607B68FA689A613B685A687B68B5
:103630005A637B687A691A6200BF1C37BD4680BC3A
:10364000704700BF002C014080B487B000AF7860A5
:1036500039607B681B6A7B617B681B6A23F0100200
:103660007B681A627B685B683B617B689B69FB6077
:10367000FB6823F4E043FB60FB6823F44073FB60CA
:103680003B681B681B02FA681343FB607B6923F0ED
:1036900020037B613B689B681B017A6913437B6154
:1036A0007B681D4A93420DD17B6923F080037B61C7
:1036B0003B68DB681B017A6913437B617B6923F0FC
:1036C00040037B617B68144A934213D13B6923F426
:1036D00080633B613B6923F400633B613B685B694A
:1036E0009B003A6913433B613B689B699B003A69C5
:1036F00013433B617B683A695A607B68FA689A6158
:103700003B685A687B689A637B687A691A6200BF73
:103710001C37BD4680BC7047002C014080B487B088
:1037200000AF786039607B681B6A7B617B681B6ACD
:1037300023F480727B681A627B685B683B617B68FC
:10374000DB69FB60FB6823F07003FB60FB6823F020
:103750000303FB603B681B68FA681343FB607B69EB
:1037600023F400737B613B689B681B027A691343F7
:103770007B617B681D4A93420DD17B6923F4006312
:103780007B613B68DB681B027A6913437B617B6961
:1037900023F480637B617B68144A934213D13B69B5
:1037A00023F480533B613B6923F400533B613B6846
:1037B0005B691B013A6913433B613B689B691B01D1
:1037C0003A6913433B617B683A695A607B68FA68DF
:1037D000DA613B685A687B68DA637B687A691A62E7
:1037E00000BF1C37BD4680BC704700BF002C0140A5
:1037F00080B487B000AF786039607B681B6A3B613A
:103800007B681B6A23F480527B681A627B685B6862
:103810007B617B68DB69FB60FB6823F4E043FB6052
:10382000FB6823F44073FB603B681B681B02FA686B
:103830001343FB603B6923F400533B613B689B6887
:103840001B033A6913433B617B680F4A934209D1DA
:103850007B6923F480437B613B685B699B017A69E8
:1038600013437B617B687A695A607B68FA68DA6126
:103870003B685A687B681A647B683A691A6200BFC1
:103880001C37BD4680BC7047002C014080B487B017
:1038900000AFF860B9607A603B60FB681B6A3B610F
:1038A000FB681B6A23F00102FB681A62FB689B69D4
:1038B0007B61FB681F4A93420BD0FB68B3F1804FDA
:1038C00007D0FB681C4A934203D0FB681B4A934213
:1038D00001D1012300E00023002B08D07B6923F0F5
:1038E00003037B617A697B6813437B6103E07B6937
:1038F00043F001037B617B6923F0F0037B613B684C
:103900001B01DBB27A6913437B613B6923F00A0335
:103910003B61BB6803F00A033A6913433B61FB68F0
:103920007A699A61FB683A691A6200BF1C37BD4622
:1039300080BC7047002C014000040040000800409B
:1039400080B487B000AFF860B9607A60FB681B6A2A
:103950007B61FB681B6A23F00102FB681A62FB684B
:103960009B693B613B6923F0F0033B617B681B0172
:103970003A6913433B617B6923F00A037B617A69EF
:10398000BB6813437B61FB683A699A61FB687A699B
:103990001A6200BF1C37BD4680BC704780B487B038
:1039A00000AFF860B9607A603B60FB681B6A7B61BE
:1039B000FB681B6A23F01002FB681A62FB689B69B4
:1039C0003B613B6923F440733B617B681B023A69AE
:1039D00013433B613B6923F470433B613B681B032A
:1039E0009BB23A6913433B617B6923F0A0037B617F
:1039F000BB681B0103F0A0037A6913437B61FB687A
:103A00003A699A61FB687A691A6200BF1C37BD4641
:103A100080BC704780B487B000AFF860B9607A604E
:103A2000FB681B6A7B61FB681B6A23F01002FB6862
:103A30001A62FB689B693B613B6923F470433B61FD
:103A40007B681B033A6913433B617B6923F0A00346
:103A50007B61BB681B017A6913437B61FB683A6930
:103A60009A61FB687A691A6200BF1C37BD4680BC48
:103A7000704780B487B000AFF860B9607A603B608F
:103A8000FB681B6A7B61FB681B6A23F48072FB681E
:103A90001A62FB68DB693B613B6923F003033B610E
:103AA0003A697B6813433B613B6923F0F0033B6158
:103AB0003B681B01DBB23A6913433B617B6923F42A
:103AC00000737B61BB681B0203F400737A691343C4
:103AD0007B61FB683A69DA61FB687A691A6200BF48
:103AE0001C37BD4680BC704780B487B000AFF8601B
:103AF000B9607A603B60FB681B6A7B61FB681B6A8C
:103B000023F48052FB681A62FB68DB693B613B6906
:103B100023F440733B617B681B023A6913433B61AA
:103B20003B6923F470433B613B681B039BB23A69DA
:103B300013433B617B6923F400537B61BB681B0328
:103B400003F400537A6913437B61FB683A69DA61D5
:103B5000FB687A691A6200BF1C37BD4680BC70479B
:103B600080B485B000AF786039607B689B68FB608B
:103B7000FB6823F07003FB603A68FB68134343F073
:103B80000703FB607B68FA689A6000BF1437BD4684
:103B900080BC704780B487B000AFF860B9607A60CD
:103BA0003B60FB689B687B617B6923F47F437B619F
:103BB0003B681A027B681A43BB6813437A69134354
:103BC0007B61FB687A699A6000BF1C37BD4680BC88
:103BD000704780B487B000AFF860B9607A60BB68A6
:103BE00003F01F03012202FA03F37B61FB681A6AE8
:103BF0007B69DB431A40FB681A62FB681A6ABB6880
:103C000003F01F03796801FA03F31A43FB681A6291
:103C100000BF1C37BD4680BC7047000080B485B033
:103C200000AF786039607B6893F83C30012B01D19C
:103C3000022346E07B68012283F83C207B68022255
:103C400083F83D207B681B685B68FB607B681B68B2
:103C50009B68BB60FB6823F07003FB603B681B68DC
:103C6000FA681343FB607B681B68FA685A607B68DC
:103C70001B68164A93420ED07B681B68B3F1804FD5
:103C800009D07B681B68124A934204D07B681B688A
:103C9000104A93420CD1BB6823F08003BB603B68A1
:103CA0005B68BA681343BB607B681B68BA689A603C
:103CB0007B68012283F83D207B68002283F83C204A
:103CC000002318461437BD4680BC7047002C0140C5
:103CD000000400400008004080B483B000AF78606A
:103CE00000BF0C37BD4680BC704780B483B000AFC6
:103CF000786000BF0C37BD4680BC704780B582B08D
:103D000000AF78607B68002B01D1012342E07B6823
:103D100093F84130DBB2002B06D17B68002283F898
:103D200040207868FDF78AFE7B68242283F84120D2
:103D30007B681B68DA687B681B6822F40052DA60D3
:103D4000786800F02BF97B681B681A697B681B6830
:103D500022F490421A617B681B685A697B681B6871
:103D600022F02A025A617B681B68DA687B681B684C
:103D700042F40052DA607B6800225A647B68202299
:103D800083F841207B68202283F842207B68002250
:103D90005A63002318460837BD4680BD80B58AB0F7
:103DA00002AFF860B9603B601346FB8000237B6183
:103DB000FB6893F84230DBB2202B7CD1BB68002B30
:103DC00002D0FB88002B01D1012375E0FB680022A3
:103DD0005A64FB68222283F84220FB6800221A639F
:103DE000FDF7C6FE7861FB68FA889A85FB68FA8859
:103DF000DA85FB689B68B3F5805F08D1FB681B69B7
:103E0000002B04D10023FB61BB68BB6103E0BB68EE
:103E1000FB610023BB6143E03B6800937B690022A8
:103E20002021F86800F04CF80346002B01D0032352
:103E300042E0FB69002B0CD1FB681B685B689BB2FE
:103E4000C3F308039AB2BB691A80BB690233BB6132
:103E50001FE0FB689B68B3F5805F07D0FB689B6839
:103E6000002B0AD1FB681B69002B06D1FB681B687D
:103E70005B68DAB2FB691A7008E0FB681B685B6874
:103E8000DBB203F07F03DAB2FB691A70FB6901331E
:103E9000FB61FB68DB8D9BB2013B9AB2FB68DA8564
:103EA000FB68DB8D9BB2002BB6D1FB68202283F828
:103EB0004220002300E0022318462037BD4680BD83
:103EC00080B590B000AFF860B9603B601346FB71FD
:103ED00050E0BB6CB3F1FF3F4CD0BB6C002B07D064
:103EE000FDF746FE02463B68D31ABA6C9A4241D2AD
:103EF000FB681B680C33BB62BB6A53E8003F7B6204
:103F00007B6A23F4D073FB63FB681B680C33FA6B8A
:103F10007A633B63396B7A6B41E80023FB62FB6A8F
:103F2000002BE5D1FB681B6814337B617B6953E888
:103F3000003F3B613B6923F00103BB63FB681B68E7
:103F40001433BA6B3A62FB61F9693A6A41E80023BB
:103F5000BB61BB69002BE5D1FB68202283F84120BF
:103F6000FB68202283F84220FB68002283F840206F
:103F700003230FE0FB681B681A68BB681340BA682C
:103F80009A420CBF01230023DBB21A46FB799A4206
:103F90009FD0002318464037BD4680BD80B584B011
:103FA00000AF78607B681B681B6923F440517B6815
:103FB000DA687B681B680A431A617B689A687B68C9
:103FC0001B691A437B685B691343BB607B681B6892
:103FD000DB6823F4B05323F00C037A681268B968E5
:103FE0000B43D3607B681B685B6923F440717B687B
:103FF0009A697B681B680A435A617B681B682C4A74
:10400000934203D1FEF718FCF86002E0FEF700FCD3
:10401000F860FA6813469B0013449A001A447B68C0
:104020005B689B00B2FBF3F3224AA2FB03235B090C
:104030001901FA6813469B0013449A001A447B68DE
:104040005B689B00B2FBF3F21A4BA3FB02035B0914
:10405000642000FB03F3D31A1B013233154AA2FB81
:1040600003235B0903F0F0031944FA6813469B002D
:1040700013449A001A447B685B689B00B2FBF3F21E
:104080000C4BA3FB02035B09642000FB03F3D31A70
:104090001B013233074AA2FB03235B0903F00F0223
:1040A0007B681B680A449A6000BF1037BD4680BD1C
:1040B000003801401F85EB5180B485B000AFEFF3AD
:1040C0000583BB60BB68002B0FD1EFF310837B60CF
:1040D0007B68002B09D1104B1B68022B09D1EFF331
:1040E00011833B603B68002B03D06FF00503FB603E
:1040F0000CE0094B1B68002B05D1074B01221A600D
:104100000023FB6002E04FF0FF33FB60FB681846C2
:104110001437BD4680BC70479801002080B584B03C
:1041200000AFEFF30583BB60BB68002B0FD1EFF34B
:1041300010837B607B68002B09D1114B1B68022B1D
:1041400009D1EFF311833B603B68002B03D06FF084
:104150000503FB600EE00A4B1B68012B07D1084BDF
:1041600002221A6001F078F80023FB6002E04FF0B1
:10417000FF33FB60FB6818461037BD4680BD00BFAB
:104180009801002080B592B004AFF860B9607A6001
:1041900000237B61EFF305837B627B6A002B40F099
:1041A0009480EFF310833B623B6A002B40F08D80DC
:1041B000484B1B68022B06D1EFF31183FB61FB69AF
:1041C000002B40F08280FB68002B7ED080233B6375
:1041D0001823FB620023FB7607F11B037B634FF080
:1041E000FF33BB627B68002B45D07B681B68002BCC
:1041F00002D07B681B687B637B689B69002B02D0C5
:104200007B689B69FB62FB6A002B08D0FB6A382B3A
:1042100005D87B685B6803F00103002B01D0002305
:1042200054E07B685B69002B03D07B685B699B086B
:104230003B637B689B68002B0ED07B68DB685B2B45
:104240000AD97B681B69002B06D07B685B69002B51
:1042500002D00123BB6210E07B689B68002B0CD16D
:104260007B68DB68002B08D17B681B69002B04D1BD
:104270000023BB6201E00023BB62BB6A012B10D1AB
:104280007B681B697A68926802920193FB6A0093CB
:10429000BB683A6B796BF86800F012FE03467B61ED
:1042A00013E0BB6A002B10D13B6B9AB207F11403E9
:1042B0000193FB6A0093BB68796BF86800F05CFEC1
:1042C0000346012B01D000237B617B6918463837F8
:1042D000BD4680BD9801002080B586B000AF7860F3
:1042E000EFF305833B613B69002B0FD1EFF31083A4
:1042F000FB60FB68002B09D10D4B1B68022B09D119
:10430000EFF31183BB60BB68002B03D06FF0050394
:104310007B6107E000237B617B68002B02D078681B
:1043200000F066FF7B6918461837BD4680BD00BFA8
:104330009801002080B485B000AFF860B9607A6061
:10434000FB68064A1A60BB68054A1A607B688022CF
:104350001A6000BF1437BD4680BC70479C01002026
:10436000F801002080B485B000AFF860B9607A60D1
:10437000FB68074A1A60BB68064A1A607B684FF4FC
:1043800080721A6000BF1437BD4680BC704700BF02
:10439000F80300205404002080B483B000AF78609C
:1043A0007B6803F108027B685A607B684FF0FF323C
:1043B0009A607B6803F108027B68DA607B6803F12E
:1043C00008027B681A617B6800221A6000BF0C3704
:1043D000BD4680BC704780B483B000AF78607B6816
:1043E00000221A6100BF0C37BD4680BC704780B404
:1043F00085B000AF786039607B685B68FB603B68C4
:10440000FA685A60FB689A683B689A60FB689B6828
:104410003A685A60FB683A689A603B687A681A6141
:104420007B681B685A1C7B681A6000BF1437BD4646
:1044300080BC704780B485B000AF786039603B685D
:104440001B68BB60BB68B3F1FF3F03D17B681B698E
:10445000FB600CE07B680833FB6002E0FB685B6894
:10446000FB60FB685B681B68BA689A42F6D2FB681F
:104470005A683B685A603B685B683A689A603B6878
:10448000FA689A60FB683A685A603B687A681A6111
:104490007B681B685A1C7B681A6000BF1437BD46D6
:1044A00080BC704780B485B000AF78607B681B69C2
:1044B000FB607B685B687A6892689A607B689B683F
:1044C0007A6852685A60FB685B687A689A4203D1DE
:1044D0007B689A68FB685A607B6800221A61FB68F7
:1044E0001B685A1EFB681A60FB681B681846143765
:1044F000BD4680BC7047000080B584B000AF7860D6
:1045000039607B68FB60FB68002B0AD14FF05003D9
:1045100083F31188BFF36F8FBFF34F8FBB6000BF72
:10452000FEE701F0CBFFFB681A68FB68DB6BF968FC
:10453000096C01FB03F31A44FB685A60FB68002214
:104540009A63FB681A68FB689A60FB681A68FB68E4
:10455000DB6B013BF968096C01FB03F31A44FB6850
:10456000DA60FB68FF2283F84420FB68FF2283F8AF
:1045700045203B68002B14D1FB681B69002B1AD027
:10458000FB681033184601F0F1F80346002B12D0F7
:104590000C4B4FF080521A60BFF34F8FBFF36F8FF9
:1045A00009E0FB6810331846FFF7F6FEFB6824337A
:1045B0001846FFF7F1FE01F0B1FF0123184610374E
:1045C000BD4680BD04ED00E080B58EB002AFF8605E
:1045D000B9607A603B60FB68002B0AD14FF0500352
:1045E00083F31188BFF36F8FBFF34F8FBB6200BFA0
:1045F000FEE73B68002B0AD14FF0500383F311888C
:10460000BFF36F8FBFF34F8F7B6200BFFEE77B6806
:10461000002B02D0BB68002B01D0012300E0002357
:10462000002B0AD14FF0500383F31188BFF36F8F33
:10463000BFF34F8F3B6200BFFEE77B68002B02D1C8
:10464000BB68002B01D1012300E00023002B0AD11D
:104650004FF0500383F31188BFF36F8FBFF34F8F79
:10466000FB6100BFFEE750237B617B69502B0AD0C2
:104670004FF0500383F31188BFF36F8FBFF34F8F59
:10468000BB6100BFFEE73B68FB62FB6A002B0DD0FD
:10469000FB6A012283F8462097F83820FB6A0093D2
:1046A00013467A68B968F86800F005F8FB6A18469E
:1046B0003037BD4680BD80B584B000AFF860B960CA
:1046C0007A60FB70BB68002B03D1BB69BA691A60C2
:1046D00002E0BB697A681A60BB69FA68DA63BB6991
:1046E000BA681A640121B869FFF706FFBB69FA7856
:1046F00083F84C2000BF1037BD4680BD80B58EB01A
:1047000000AFF860B9607A603B6000237B63FB68B0
:104710003B633B6B002B0AD14FF0500383F31188AE
:10472000BFF36F8FBFF34F8FBB6200BFFEE7BB6865
:10473000002B03D13B6B1B6C002B01D1012300E04C
:104740000023002B0AD14FF0500383F31188BFF3ED
:104750006F8FBFF34F8F7B6200BFFEE73B68022B7A
:1047600003D13B6BDB6B012B01D1012300E0002364
:10477000002B0AD14FF0500383F31188BFF36F8FE2
:10478000BFF34F8F3B6200BFFEE701F0B1F9034674
:10479000002B02D17B68002B01D1012300E0002314
:1047A000002B0AD14FF0500383F31188BFF36F8FB2
:1047B000BFF34F8FFB6100BFFEE701F07FFE3B6B55
:1047C0009A6B3B6BDB6B9A4202D33B68022B29D17D
:1047D0003A68B968386B00F007FAF8623B6B5B6ABD
:1047E000002B10D03B6B2433184600F0BFFF03466C
:1047F000002B13D03F4B4FF080521A60BFF34F8F06
:10480000BFF36F8F0AE0FB6A002B07D0394B4FF0E4
:1048100080521A60BFF34F8FBFF36F8F01F07EFE9F
:10482000012363E07B68002B03D101F077FE0023B6
:104830005CE07B6B002B06D107F11403184600F0F7
:10484000F9FF01237B6301F069FE00F06BFD01F0CD
:1048500035FE3B6B93F844305BB2B3F1FF3F03D1BD
:104860003B6B002283F844203B6B93F845305BB2EE
:10487000B3F1FF3F03D13B6B002283F8452001F0E9
:104880004DFE3A1D07F114031146184600F0E8FFEB
:104890000346002B24D1386B00F09EFA0346002B10
:1048A00018D03B6B10337A681146184600F00EFFA3
:1048B000386B00F029FA00F043FD0346002B7FF42B
:1048C0007CAF0C4B4FF080521A60BFF34F8FBFF399
:1048D0006F8F72E7386B00F017FA00F031FD6CE76C
:1048E000386B00F011FA00F02BFD00231846383722
:1048F000BD4680BD04ED00E080B58EB000AFF8602D
:10490000B9607A603B60FB683B633B6B002B0AD16C
:104910004FF0500383F31188BFF36F8FBFF34F8FB6
:104920007B6200BFFEE7BB68002B03D13B6B1B6CB7
:10493000002B01D1012300E00023002B0AD14FF00E
:10494000500383F31188BFF36F8FBFF34F8F3B6228
:1049500000BFFEE73B68022B03D13B6BDB6B012BF7
:1049600001D1012300E00023002B0AD14FF05003B6
:1049700083F31188BFF36F8FBFF34F8FFB6100BFCD
:10498000FEE701F05DFEEFF311824FF0500383F379
:104990001188BFF36F8FBFF34F8FBA617B61BB6923
:1049A000FB623B6B9A6B3B6BDB6B9A4202D33B68BF
:1049B000022B2CD13B6B93F8453087F82B303A68AB
:1049C000B968386B00F010F997F92B30B3F1FF3F5D
:1049D00012D13B6B5B6A002B16D03B6B243318461D
:1049E00000F0C4FE0346002B0ED07B68002B0BD0DA
:1049F0007B6801221A6007E097F82B300133DBB2A5
:104A00005AB23B6B83F8452001237B6301E000230E
:104A10007B63FB6A3B613B6983F3118800BF7B6B5F
:104A200018463837BD4680BD80B58CB000AFF86001
:104A3000B9607A600023FB62FB68BB62BB6A002B33
:104A40000AD14FF0500383F31188BFF36F8FBFF388
:104A50004F8F3B6200BFFEE7BB68002B03D1BB6AF0
:104A60001B6C002B01D1012300E00023002B0AD195
:104A70004FF0500383F31188BFF36F8FBFF34F8F55
:104A8000FB6100BFFEE701F033F80346002B02D1C3
:104A90007B68002B01D1012300E00023002B0AD109
:104AA0004FF0500383F31188BFF36F8FBFF34F8F25
:104AB000BB6100BFFEE701F001FDBB6A9B6B7B623F
:104AC0007B6A002B1FD0B968B86A00F0F7F87B6AE0
:104AD0005A1EBB6A9A63BB6A1B69002B0FD0BB6A64
:104AE0001033184600F042FE0346002B07D03D4B22
:104AF0004FF080521A60BFF34F8FBFF36F8F01F0FA
:104B00000DFD012369E07B68002B03D101F006FD58
:104B1000002362E0FB6A002B06D107F11003184660
:104B200000F088FE0123FB6201F0F8FC00F0FAFBC4
:104B300001F0C4FCBB6A93F844305BB2B3F1FF3FB1
:104B400003D1BB6A002283F84420BB6A93F8453046
:104B50005BB2B3F1FF3F03D1BB6A002283F845206B
:104B600001F0DCFC3A1D07F110031146184600F075
:104B700077FE0346002B23D1B86A00F017F90346ED
:104B8000002B17D0BB6A24337A681146184600F010
:104B90009DFDB86A00F0B8F800F0D2FB0346002B88
:104BA00089D1104B4FF080521A60BFF34F8FBFF383
:104BB0006F8F80E7B86A00F0A7F800F0C1FB7AE7D2
:104BC000B86A00F0A1F800F0BBFBB86A00F0EEF89C
:104BD0000346002B3FF46FAF002318463037BD4625
:104BE00080BD00BF04ED00E080B586B000AFF86086
:104BF000B9607A6000237B61FB689B6B3B61FB685B
:104C00001B6C002B0DD1FB681B68002B4DD1FB6882
:104C10005B68184600F08AFF7861FB6800225A60E2
:104C200043E07B68002B19D1FB689868FB681B6C1C
:104C30001A46B96801F046FFFB689A68FB681B6C6E
:104C40001A44FB689A60FB689A68FB685B689A4242
:104C50002BD3FB681A68FB689A6026E0FB68D8686B
:104C6000FB681B6C1A46B96801F02CFFFB68DA6818
:104C7000FB681B6C5B421A44FB68DA60FB68DA680D
:104C8000FB681B689A4207D2FB685A68FB681B6C7A
:104C90005B421A44FB68DA607B68022B05D13B69F2
:104CA000002B02D03B69013B3B613B695A1CFB680E
:104CB0009A637B6918461837BD4680BD80B582B0BF
:104CC00000AF786039607B681B6C002B18D07B6864
:104CD000DA687B681B6C1A447B68DA607B68DA6888
:104CE0007B685B689A4203D37B681A687B68DA60EA
:104CF0007B68D9687B681B6C1A46386801F0E2FE55
:104D000000BF0837BD4680BD80B584B000AF786075
:104D100001F0D4FB7B6893F84530FB7311E07B68AE
:104D20005B6A002B12D07B682433184600F01EFD0E
:104D30000346002B01D000F0F5FDFB7B013BDBB20D
:104D4000FB7397F90F30002BE9DC00E000BF7B68B4
:104D5000FF2283F8452001F0E1FB01F0AFFB7B6807
:104D600093F84430BB7311E07B681B69002B12D0B1
:104D70007B681033184600F0F9FC0346002B01D085
:104D800000F0D0FDBB7B013BDBB2BB7397F90E306B
:104D9000002BE9DC00E000BF7B68FF2283F84420A1
:104DA00001F0BCFB00BF1037BD4680BD80B584B0AC
:104DB00000AF786001F082FB7B689B6B002B02D117
:104DC0000123FB6001E00023FB6001F0A7FBFB680F
:104DD00018461037BD4680BD80B584B000AF7860FE
:104DE00001F06CFB7B689A6B7B68DB6B9A4202D1AB
:104DF0000123FB6001E00023FB6001F08FFBFB68F7
:104E000018461037BD4680BD80B485B000AF7860CD
:104E100039600023FB6014E00E4AFB6852F833301F
:104E2000002B0BD10B49FB683A6841F83320094A43
:104E3000FB68DB0013447A685A6006E0FB680133C4
:104E4000FB60FB68072BE7D900BF00BF1437BD46E6
:104E500080BC70475408002080B586B000AFF86071
:104E6000B9607A60FB687B6101F028FB7B6993F88D
:104E700044305BB2B3F1FF3F03D17B69002283F87A
:104E800044207B6993F845305BB2B3F1FF3F03D117
:104E90007B69002283F8452001F040FB7B699B6B16
:104EA000002B06D17B6924337A68B968184600F074
:104EB00031FC7869FFF728FF00BF1837BD4680BD79
:104EC00080B58EB004AFF860B9607A603B607B6BF0
:104ED000002B0AD14FF0500383F31188BFF36F8F7B
:104EE000BFF34F8F3B6200BFFEE7BB6B002B0AD1C5
:104EF0004FF0500383F31188BFF36F8FBFF34F8FD1
:104F0000FB6100BFFEE75C233B613B695C2B0AD081
:104F10004FF0500383F31188BFF36F8FBFF34F8FB0
:104F2000BB6100BFFEE7BB6B002B1ED07B6B002B71
:104F30001BD0BB6B7B627B6A7A6B1A637B6A022233
:104F400083F85920002303937B6A029307F114032B
:104F500001933B6B00933B687A68B968F86800F08E
:104F600050F8786A00F0D4F801E000237B617B6997
:104F700018462837BD4680BD80B58CB004AFF860B8
:104F8000B9603B601346FB80FB889B00184601F02C
:104F900095FB78617B69002B0ED05C2001F08EFBC5
:104FA000F861FB69002B03D0FB697A691A6305E09D
:104FB000786901F047FC01E00023FB61FB69002BED
:104FC00017D0FB69002283F85920FA880023039345
:104FD000FB690293FB6A0193BB6A00933B68B96863
:104FE000F86800F00EF8F86900F092F80123BB6150
:104FF00002E04FF0FF33BB61BB6918462037BD4666
:1050000080BD80B588B000AFF860B9607A603B6061
:105010003B6B186B7B689B001A46A52101F026FDAF
:105020003B6B1A6B7B6803F18043013B9B0013448D
:10503000BB61BB6923F00703BB61BB6903F00703D6
:10504000002B0AD04FF0500383F31188BFF36F8F0A
:10505000BFF34F8F7B6100BFFEE70023FB6112E0CF
:10506000BA68FB69134419783A6BFB69134434330B
:105070000A461A70BA68FB6913441B78002B06D0E5
:10508000FB690133FB61FB690F2BE9D900E000BF2D
:105090003B6B002283F84320BB6A372B01D93723AF
:1050A000BB623B6BBA6ADA623B6BBA6ADA643B6B2F
:1050B00000221A653B6B04331846FFF78CF93B6BF3
:1050C00018331846FFF787F93B6B3A6B1A61BB6AD6
:1050D000C3F138023B6B9A613B6B3A6B5A623B6B94
:1050E00000225A653B6B002283F858203A68F96821
:1050F000B86901F0EFF802463B6B1A60FB6A002BBF
:1051000002D0FB6A3A6B1A6000BF2037BD4680BDF3
:1051100080B582B000AF786001F0D0F92D4B1B68EC
:1051200001332C4A13602C4B1B68002B09D12A4AEF
:105130007B681360274B1B68012B10D100F016FC15
:105140000DE0264B1B68002B09D1234B1B68DA6A44
:105150007B68DB6A9A4202D81F4A7B681360204B47
:105160001B6801331E4A13601D4B1A687B685A6422
:105170007B68DA6A1B4B1B689A4203D97B68DB6A3F
:10518000184A13607B68DA6A13469B0013449B003D
:10519000154A1A447B68043319461046FFF727F96D
:1051A00001F0BCF90D4B1B68002B0ED00A4B1B689D
:1051B000DA6A7B68DB6A9A4207D20C4B4FF0805266
:1051C0001A60BFF34F8FBFF36F8F00BF0837BD4624
:1051D00080BD00BF680D002094080020740D0020E1
:1051E000840D0020700D00209808002004ED00E0E0
:1051F00080B584B000AF78600023FB607B68002B33
:1052000017D0134B1B68002B0AD04FF0500383F3C9
:105210001188BFF36F8FBFF34F8FBB6000BFFEE7F6
:1052200000F080F80021786800F0EEFC00F088F8CB
:10523000F860FB68002B07D1064B4FF080521A60D4
:10524000BFF34F8FBFF36F8F00BF1037BD4680BDD8
:10525000900D002004ED00E080B58AB004AF00237B
:10526000BB6000237B603A46391D07F108031846EE
:10527000FFF760F839687B68BA68029201930023EF
:10528000009300230A4621492148FFF719FE0346EF
:10529000204A13601F4B1B68002B02D001237B6147
:1052A00001E000237B617B69012B02D100F000FD4E
:1052B00078617B69012B16D14FF0500383F311887D
:1052C000BFF36F8FBFF34F8F3B6100BF124B4FF0A7
:1052D000FF321A60114B01221A60114B00221A6032
:1052E00001F07AF80EE07B69B3F1FF3F0AD14FF08D
:1052F000500383F31188BFF36F8FBFF34F8FFB60B1
:1053000000BFFEE700BF1837BD4680BD546B0008E4
:105310003D5900088C0D0020880D0020740D0020E0
:105320006C0D002080B400AF044B1B680133034AAE
:10533000136000BFBD4680BC704700BF900D0020C9
:1053400080B584B000AF0023FB600023BB60424BFC
:105350001B68002B0AD14FF0500383F31188BFF371
:105360006F8FBFF34F8F3B6000BFFEE701F0A6F8E1
:10537000394B1B68013B384A1360374B1B68002BC5
:1053800062D1364B1B68002B5ED02FE0344BDB68BC
:10539000DB68FB60FB6818331846FFF783F8FB688F
:1053A00004331846FFF77EF8FB68DA6A2D4B1B685A
:1053B0009A4203D9FB68DB6A2A4A1360FB68DA6AFF
:1053C00013469B0013449B00274A1A44FB6804338E
:1053D00019461046FFF70BF8FB68DA6A234B1B6887
:1053E000DB6A9A4202D3224B01221A601C4B1B68D3
:1053F000002BCBD1FB68002B01D000F055FB1D4BDF
:105400001B687B607B68002B10D000F045F80346DA
:10541000002B02D0164B01221A607B68013B7B6097
:105420007B68002BF1D1134B00221A60104B1B68D4
:10543000002B09D00123BB600F4B4FF080521A6044
:10544000BFF34F8FBFF36F8F01F068F8BB6818464A
:105450001037BD4680BD00BF900D0020680D0020B4
:10546000280D0020700D00209808002094080020CE
:105470007C0D0020780D002004ED00E080B483B0A6
:1054800000AF044B1B687B607B6818460C37BD4639
:1054900080BC70476C0D002080B586B000AF002343
:1054A0007B61514B1B68002B40F08E804F4B1B687B
:1054B00001333B614D4A3B6913603B69002B20D1AE
:1054C0004B4B1B681B68002B0AD04FF0500383F333
:1054D0001188BFF36F8FBFF34F8F3B6000BFFEE7B4
:1054E000434B1B68FB60434B1B68414A1360414AB6
:1054F000FB681360404B1B6801333F4A136000F0A8
:10550000D3FA3E4B1B683A699A424ED3384B1B681C
:105510001B68002B01D1012300E00023002B04D0E5
:10552000364B4FF0FF321A603FE0314B1B68DB68AF
:10553000DB68BB60BB685B687B603A697B689A42EA
:1055400003D22E4A7B6813602FE0BB6804331846F1
:10555000FEF7A8FFBB689B6A002B04D0BB6818331A
:105560001846FEF79FFFBB68DA6A254B1B689A4214
:1055700003D9BB68DB6A224A1360BB68DA6A134648
:105580009B0013449B001F4A1A44BB68043319460E
:105590001046FEF72CFFBB68DA6A1B4B1B68DB6A00
:1055A0009A42B3D301237B61B0E7174B1B68DA6AD9
:1055B000144913469B0013449B000B441B68012BAA
:1055C00007D901237B6104E0104B1B6801330F4AAC
:1055D00013600F4B1B68002B01D001237B617B699B
:1055E00018461837BD4680BD900D00206C0D002078
:1055F000200D0020240D0020800D0020880D0020AB
:10560000700D00209808002094080020780D0020DC
:105610007C0D002080B485B000AF274B1B68002BA9
:1056200003D0264B01221A6041E0244B00221A606D
:10563000234B1B68FB6010E0FB68002B0AD14FF086
:10564000500383F31188BFF36F8FBFF34F8F7B60DD
:1056500000BFFEE7FB68013BFB601A49FA6813468E
:105660009B0013449B000B441B68002BE4D0FA689A
:1056700013469B0013449B00124A1344BB60BB6853
:105680005B685A68BB685A60BB685A68BB68083375
:105690009A4204D1BB685B685A68BB685A60BB68B1
:1056A0005B68DB68084A1360054AFB68136000BF4B
:1056B0001437BD4680BC7047900D00207C0D002043
:1056C000700D0020980800209408002080B584B058
:1056D00000AF786039607B68002B0AD14FF050032F
:1056E00083F31188BFF36F8FBFF34F8FFB6000BF51
:1056F000FEE7074B1B68183319467868FEF79AFED9
:105700000121386800F080FA00BF1037BD4680BD27
:105710009408002080B586B000AFF860B9607A6068
:10572000FB68002B0AD14FF0500383F31188BFF3BD
:105730006F8FBFF34F8F7B6100BFFEE70A4B1B6883
:1057400018331946F868FEF752FE7B68002B02D02A
:105750004FF0FF33BB607968B86800F055FA00BFBE
:105760001837BD4680BD00BF9408002080B586B0C4
:1057700000AF78607B68DB68DB683B613B69002BCE
:105780000AD14FF0500383F31188BFF36F8FBFF33B
:105790004F8FFB6000BFFEE73B6918331846FEF7EA
:1057A00081FE1E4B1B68002B1DD13B69043318463C
:1057B000FEF778FE3B69DA6A194B1B689A4203D9F7
:1057C0003B69DB6A164A13603B69DA6A13469B0041
:1057D00013449B00134A1A443B690433194610468C
:1057E000FEF705FE05E03B69183319460E48FEF743
:1057F000FEFD3B69DA6A0D4B1B68DB6A9A4205D9EC
:1058000001237B610A4B01221A6001E000237B61C6
:105810007B6918461837BD4680BD00BF900D00203B
:10582000700D002098080020280D0020940800200A
:105830007C0D002080B483B000AF7860064B1A68FE
:105840007B681A60054B1A687B685A6000BF0C378A
:10585000BD4680BC704700BF800D00206C0D00204D
:1058600080B588B000AF786039607B68002B0AD1C2
:105870004FF0500383F31188BFF36F8FBFF34F8F47
:105880003B6100BFFEE73B68002B0AD14FF050039D
:1058900083F31188BFF36F8FBFF34F8FFB6000BF9F
:1058A000FEE700F00BFE1D4B1B68BB617B685B686D
:1058B000BA69D31A7B613B681B68B3F1FF3F02D121
:1058C0000023FB6123E07B681A68154B1B689A4232
:1058D00007D07B685B68BA699A4202D30123FB61F7
:1058E00015E03B681B687A699A420BD23B681A68DC
:1058F0007B69D21A3B681A607868FFF79BFF002328
:10590000FB6104E03B6800221A600123FB6100F0A8
:1059100005FEFB6918462037BD4680BD6C0D002092
:10592000800D002080B400AF034B01221A6000BF3D
:10593000BD4680BC704700BF7C0D002080B582B0A2
:1059400000AF786000F052F8064B1B68012BF9D9C4
:10595000054B4FF080521A60BFF34F8FBFF36F8F2C
:10596000F0E700BF9808002004ED00E080B582B0A9
:1059700000AF00237B600CE07A6813469B00134461
:105980009B00124A13441846FEF706FD7B6801335C
:105990007B607B68372BEFD90D48FEF7FDFC0D4887
:1059A000FEF7FAFC0C48FEF7F7FC0C48FEF7F4FC97
:1059B0000B48FEF7F1FC0B4B054A1A600A4B054AEF
:1059C0001A6000BF0837BD4680BD00BF98080020A0
:1059D000F80C00200C0D0020280D00203C0D0020AC
:1059E000540D0020200D0020240D002080B582B031
:1059F00000AF19E000F062FD104BDB68DB687B60F4
:105A00007B6804331846FEF74DFD0D4B1B68013BC8
:105A10000B4A13600B4B1B68013B0A4A136000F0F2
:105A20007DFD786800F010F8064B1B68002BE1D173
:105A300000BF00BF0837BD4680BD00BF3C0D002041
:105A4000680D0020500D002080B584B000AF786054
:105A50007B6893F85930002B08D17B681B6B184684
:105A600000F0F0FE786800F0EDFE18E07B6893F837
:105A70005930012B03D1786800F0E4FE0FE07B6819
:105A800093F85930022B0AD04FF0500383F311885A
:105A9000BFF36F8FBFF34F8FFB6000BFFEE700BF08
:105AA0001037BD4680BD000080B483B000AF0E4B00
:105AB0001B681B68002B01D1012300E00023002B91
:105AC00004D00A4B4FF0FF321A6008E0064B1B6807
:105AD000DB68DB687B607B685B68044A136000BF3F
