:020000040800F2
:10000000005000205D150008ED110008F3110008F4
:10001000F9110008FF110008051200080000000097
:100020000000000000000000000000000B120008AB
:100030001712000800000000231200082F12000809
:10004000A5150008A5150008A5150008A5150008A8
:10005000A5150008A5150008A5150008A515000898
:10006000A5150008A5150008A5150008A515000888
:10007000A5150008A5150008A5150008A515000878
:10008000A5150008A5150008A5150008A515000868
:10009000A5150008A5150008A5150008A515000858
:1000A000A5150008A5150008A51500083D120008B3
:1000B000A5150008A5150008A5150008A515000838
:1000C000A5150008A5150008A5150008A515000828
:1000D000A515000851120008A5150008A51500086F
:1000E000A5150008A5150008A515000800000000CA
:1000F0000000000000000000000000000000000000
:0C01000000000000000000005FF808F1A3
:1001100010B5054C237833B9044B13B10448AFF341
:1001200000800123237010BD0C000020000000009F
:100130003842000808B5034B1BB103490348AFF32D
:10014000008008BD000000001000002038420008B8
:1001500081F0004102E000BF83F0004330B54FEA78
:1001600041044FEA430594EA050F08BF90EA020FE5
:100170001FBF54EA000C55EA020C7FEA645C7FEA78
:10018000655C00F0E2804FEA5454D4EB5555B8BF9B
:100190006D420CDD2C4480EA020281EA030382EA0C
:1001A000000083EA010180EA020281EA0303362D9E
:1001B00088BF30BD11F0004F4FEA01314FF4801C71
:1001C0004CEA113102D0404261EB410113F0004F83
:1001D0004FEA03334CEA133302D0524263EB43033A
:1001E00094EA050F00F0A780A4F10104D5F1200ED8
:1001F0000DDB02FA0EFC22FA05F2801841F1000133
:1002000003FA0EF2801843FA05F359410EE0A5F106
:1002100020050EF1200E012A03FA0EFC28BF4CF037
:10022000020C43FA05F3C01851EBE37101F00045ED
:1002300007D54FF0000EDCF1000C7EEB00006EEBFA
:100240000101B1F5801F1BD3B1F5001F0CD3490884
:100250005FEA30004FEA3C0C04F101044FEA4452DB
:1002600012F5800F80F09A80BCF1004F08BF5FEA62
:10027000500C50F1000041EB045141EA050130BD42
:100280005FEA4C0C404141EB0101013C28BFB1F554
:10029000801FE9D291F0000F04BF01460020B1FA9F
:1002A00081F308BF2033A3F10B03B3F120020CDA72
:1002B0000C3208DD02F1140CC2F10C0201FA0CF050
:1002C00021FA02F10CE002F11402D8BFC2F1200CB5
:1002D00001FA02F120FA0CFCDCBF41EA0C0190406B
:1002E000E41AA2BF01EB0451294330BD6FEA0404B4
:1002F0001F3C1CDA0C340EDC04F11404C4F120029F
:1003000020FA04F001FA02F340EA030021FA04F3B0
:1003100045EA030130BDC4F10C04C4F1200220FA07
:1003200002F001FA04F340EA0300294630BD21FA45
:1003300004F0294630BD94F0000F83F4801306BF0B
:1003400081F480110134013D4EE77FEA645C18BFFF
:100350007FEA655C29D094EA050F08BF90EA020F96
:1003600005D054EA000C04BF1946104630BD91EA8E
:10037000030F1EBF0021002030BD5FEA545C05D191
:100380004000494128BF41F0004130BD14F58004D0
:100390003CBF01F5801130BD01F0004545F0FE4144
:1003A00041F470014FF0000030BD7FEA645C1ABF79
:1003B000194610467FEA655C1CBF0B46024650EAB0
:1003C000013406BF52EA033591EA030F41F40021DC
:1003D00030BD00BF90F0000F04BF0021704730B562
:1003E0004FF4806404F132044FF000054FF0000137
:1003F00050E700BF90F0000F04BF0021704730B5F8
:100400004FF4806404F1320410F0004548BF4042CC
:100410004FF000013EE700BF42004FEAE2014FEA21
:1004200031014FEA02701FBF12F07F4393F07F4FFC
:1004300081F06051704732F07F4208BF704793F0FF
:100440007F4F04BF41F40021704730B54FF4607412
:1004500001F0004521F000411CE700BF50EA010215
:1004600008BF704730B54FF000050AE050EA0102BE
:1004700008BF704730B511F0004502D5404261EB2E
:1004800041014FF4806404F132045FEA915C3FF46F
:10049000D8AE4FF003025FEADC0C18BF03325FEA0C
:1004A000DC0C18BF033202EBDC02C2F1200300FABD
:1004B00003FC20FA02F001FA03FE40EA0E0021FAE2
:1004C00002F11444BDE600BF70B54FF0FF0C4CF4D0
:1004D000E06C1CEA11541DBF1CEA135594EA0C0F82
:1004E00095EA0C0F00F0DEF82C4481EA030621EABD
:1004F0004C5123EA4C5350EA013518BF52EA0335F8
:1005000041F4801143F4801338D0A0FB02CE4FF0A9
:100510000005E1FB02E506F00042E0FB03E54FF0D9
:100520000006E1FB03569CF0000F18BF4EF0010ED1
:10053000A4F1FF04B6F5007F64F5407404D25FEACD
:100540004E0E6D4146EB060642EAC62141EA555180
:100550004FEAC52040EA5E504FEACE2EB4F1FD0CC2
:1005600088BFBCF5E06F1ED8BEF1004F08BF5FEA40
:10057000500E50F1000041EB045170BD06F00046F2
:1005800046EA010140EA020081EA0301B4EB5C049F
:10059000C2BFD4EB0C0541EA045170BD41F4801197
:1005A0004FF0000E013C00F3AB8014F1360FDEBFBC
:1005B000002001F0004170BDC4F10004203C35DA98
:1005C0000C341BDC04F11404C4F1200500FA05F31B
:1005D00020FA04F001FA05F240EA020001F00042BC
:1005E00021F0004110EBD37021FA04F642EB060132
:1005F0005EEA430E08BF20EAD37070BDC4F10C045C
:10060000C4F1200500FA04F320FA05F001FA04F21F
:1006100040EA020001F0004110EBD37041F100010B
:100620005EEA430E08BF20EAD37070BDC4F1200516
:1006300000FA05F24EEA020E20FA04F301FA05F27E
:1006400043EA020321FA04F001F0004121FA04F226
:1006500020EA020000EBD3705EEA430E08BF20EAF6
:10066000D37070BD94F0000F0FD101F00046400030
:1006700041EB010111F4801F08BF013CF7D041EAB2
:10068000060195F0000F18BF704703F000465200B6
:1006900043EB030313F4801F08BF013DF7D043EA87
:1006A0000603704794EA0C0F0CEA135518BF95EA3D
:1006B0000C0F0CD050EA410618BF52EA4306D1D1C4
:1006C00081EA030101F000414FF0000070BD50EAE3
:1006D000410606BF1046194652EA430619D094EA6D
:1006E0000C0F02D150EA013613D195EA0C0F05D157
:1006F00052EA03361CBF104619460AD181EA0301AB
:1007000001F0004141F0FE4141F470014FF0000062
:1007100070BD41F0FE4141F4780170BD70B54FF0FD
:10072000FF0C4CF4E06C1CEA11541DBF1CEA13557D
:1007300094EA0C0F95EA0C0F00F0A7F8A4EB05045F
:1007400081EA030E52EA03354FEA013100F0888056
:100750004FEA03334FF0805545EA131343EA12631F
:100760004FEA022245EA111545EA10654FEA0026D4
:100770000EF000419D4208BF964244F1FD0404F58D
:10078000407402D25B084FEA3202B61A65EB0305E9
:100790005B084FEA32024FF480104FF4002CB6EBA6
:1007A000020E75EB030E22BFB61A754640EA0C0026
:1007B0005B084FEA3202B6EB020E75EB030E22BF66
:1007C000B61A754640EA5C005B084FEA3202B6EBA7
:1007D000020E75EB030E22BFB61A754640EA9C0066
:1007E0005B084FEA3202B6EB020E75EB030E22BF36
:1007F000B61A754640EADC0055EA060E18D04FEAF4
:10080000051545EA16754FEA06164FEAC30343EA93
:1008100052734FEAC2025FEA1C1CC0D111F4801F60
:100820000BD141EA00014FF000004FF0004CB6E759
:1008300011F4801F04BF01430020B4F1FD0C88BFF8
:10084000BCF5E06F3FF6AFAEB5EB030C04BFB6EB03
:10085000020C5FEA500C50F1000041EB045170BDF6
:100860000EF0004E4EEA113114EB5C04C2BFD4EB23
:100870000C0541EA045170BD41F480114FF0000EA7
:10088000013C90E645EA060E8DE60CEA135594EA23
:100890000C0F08BF95EA0C0F3FF43BAF94EA0C0F26
:1008A0000AD150EA01347FF434AF95EA0C0F7FF49B
:1008B00025AF104619462CE795EA0C0F06D152EAEF
:1008C00003353FF4FDAE1046194622E750EA4106D3
:1008D00018BF52EA43067FF4C5AE50EA41047FF4E4
:1008E0000DAF52EA43057FF4EBAE12E74FEA410247
:1008F000B2F1E04324BFB3F5001CDCF1FE5C0DD97E
:1009000001F0004C4FEAC0024CEA5070B2F1004FC7
:1009100040EB830008BF20F00100704711F0804FCA
:1009200021D113F13872BCBF01F00040704741F48F
:1009300080114FEA5252C2F11802C2F1200C10FA93
:100940000CF320FA02F018BF40F001004FEAC12377
:100950004FEAD32303FA0CFC40EA0C0023FA02F31B
:100960004FEA4303CCE77FEA625307D150EA0133F1
:100970001EBF4FF0FE4040F44000704701F00040C1
:1009800040F0FE4040F40000704700BF4FF0FF3CD5
:1009900006E000BF4FF0010C02E000BF4FF0010C79
:1009A0004DF804CD4FEA40024FEA41037FEA226C42
:1009B00018BF7FEA236C11D001B052EA530C18BF64
:1009C00090EA010F58BFB2EB030088BFC81738BFC9
:1009D0006FEAE17018BF40F0010070477FEA226CB7
:1009E00002D15FEA402C05D17FEA236CE4D15FEAB3
:1009F000412CE1D05DF8040B704700BF84460846E7
:100A00006146FFE70FB5FFF7C9FF002848BF10F1A7
:100A1000000F0FBD4DF808EDFFF7F4FF0CBF0120EC
:100A200000205DF808FB00BF4DF808EDFFF7EAFF76
:100A300034BF012000205DF808FB00BF4DF808ED31
:100A4000FFF7E0FF94BF012000205DF808FB00BF26
:100A50004DF808EDFFF7D2FF94BF012000205DF8AC
:100A600008FB00BF4DF808EDFFF7C8FF34BF0120B9
:100A700000205DF808FB00BF80B582B000AF786051
:100A80000B467B807B681B681D4A93421ED17A8887
:100A90004FF47A731B491C4802F044FD194B1B7834
:100AA000462B04D101220121184801F05EF9154BB3
:100AB0001B78422B04D100220121144801F055F982
:100AC00001221049124802F0B0FD10E07B681B685B
:100AD000104A93420BD17A884FF47A7309490C4833
:100AE00002F020FD01220749074802F09EFD012285
:100AF0000449786802F099FD00BF0837BD4680BD03
:100B00000038014048010020000100200008014099
:100B1000B80000200044004080B582B000AF00F073
:100B200043FD00F065F800F0ADF900F057F900F072
:100B3000A5F800F007F900F07BF90021254801F045
:100B400027FE0421234801F023FE234801F086FDFF
:100B500000F0BCFC00F0DEFC01222049204802F03D
:100B600064FD01221D491F4802F05FFD00F0AEFC4C
:100B700078601D497868FFF775FF0346002B05D0A4
:100B800001220121194801F0F0F804E000220121BE
:100B9000164801F0EAF800F0BDFC386012493868E8
:100BA000FFF760FF0346002B05D0012202210F480A
:100BB00001F0DBF804E0002202210C4801F0D5F836
:100BC0000A2000F053FD4FF48061084801F0B6F8A8
:100BD000CCE700BF28000020700000204801002062
:100BE000B800002000010020000020410008014062
:100BF00080B590B000AF07F11803282200211846F5
:100C000003F0EEFA3B1D00221A605A609A60DA6027
:100C10001A610123BB614FF48033FB6100233B6207
:100C20000123BB6202237B634FF48033BB634FF429
:100C3000E013FB6307F11803184601F0AFF8034611
:100C4000002B01D000F09AF90F237B600223BB60D8
:100C50000023FB604FF480633B6100237B613B1DFD
:100C60000221184601F01CFB0346002B01D000F0C6
:100C700085F900BF4037BD4680BD000080B586B015
:100C800000AF07F1100300221A605A603B460022B1
:100C90001A605A609A60DA60284B294A1A60274B1A
:100CA00047225A60254B00229A60244B4FF6FE7271
:100CB000DA60224B00221A61204B00225A611F4B3E
:100CC00000229A611D4801F013FD0346002B01D05C
:100CD00000F054F900233B6100237B6107F110030E
:100CE0001946164802F05EFB0346002B01D000F0C7
:100CF00045F900233B6001237B600023BB60042394
:100D0000FB603B46002219460C4801F055FF0346A4
:100D1000002B01D000F032F90023FB603B46042297
:100D20001946064801F048FF0346002B01D000F0A9
:100D300025F900BF1837BD4680BD00BF2800002040
:100D4000002C014080B586B000AF07F108030022F7
:100D50001A605A609A60DA603B4600221A605A6054
:100D60001D4B4FF080421A601B4B47225A601A4BB2
:100D700000229A60184B4FF6FE72DA60164B002282
:100D80001A61154B00229A61134801F017FC0346C3
:100D9000002B01D000F0F2F84FF48053BB6007F154
:100DA000080319460C4801F0A3FF0346002B01D0AD
:100DB00000F0E4F800233B6000237B603B461946CB
:100DC000054802F0EFFA0346002B01D000F0D6F8F8
:100DD00000BF1837BD4680BD7000002080B500AF51
:100DE000114B124A1A60104B4FF4E1325A600E4B0D
:100DF00000229A600C4B0022DA600B4B00221A6131
:100E0000094B0C225A61084B00229A61064B0022C2
:100E1000DA61054802F036FB0346002B01D000F0F2
:100E2000ADF800BF80BD00BFB80000200038014011
:100E300080B500AF114B124A1A60104B4FF4165296
:100E40005A600E4B00229A600C4B0022DA600B4B6A
:100E500000221A61094B0C225A61084B00229A6148
:100E6000064B0022DA61054802F00CFB0346002B1A
:100E700001D000F083F800BF80BD00BF000100205A
:100E80000044004080B588B000AF07F11003002295
:100E90001A605A609A60DA60354B9B69344A43F0B5
:100EA00020039361324B9B6903F02003FB60FB68D6
:100EB0002F4B9B692E4A43F0040393612C4B9B6993
:100EC00003F00403BB60BB68294B9B69284A43F0CD
:100ED00008039361264B9B6903F008037B607B68E2
:100EE00000220321234800F040FF00224FF440512C
:100EF000214800F03AFF01233B6101237B6102237B
:100F0000BB610223FB6107F110031946194800F089
:100F100091FD02233B6101237B610023BB6102231E
:100F2000FB6107F110031946124800F083FD4FF4EE
:100F300040533B6101237B610023BB610223FB61C2
:100F400007F1100319460C4800F074FD4FF480635C
:100F50003B6100237B610223BB6107F1100319464B
:100F6000044800F067FD00BF2037BD4680BD00BFCC
:100F70000010024000080140000C014080B400AFA6
:100F800072B600BFFEE7000080B485B000AF154B1D
:100F90009B69144A43F001039361124B9B6903F070
:100FA0000103BB60BB680F4BDB690E4A43F0805303
:100FB000D3610C4BDB6903F080537B607B680A4B89
:100FC0005B68FB60FB6823F0E063FB60FB6843F059
:100FD0000073FB60044AFB68536000BF1437BD46D2
:100FE00080BC7047001002400000014080B588B00E
:100FF00000AF786007F1100300221A605A609A600F
:10100000DA607B681B681A4A93422CD1194B9B69A2
:10101000184A43F400639361164B9B6903F4006321
:10102000FB60FB68134B9B69124A43F00403936116
:10103000104B9B6903F00403BB60BB684FF4407323
:101040003B6100237B610023BB6107F1100319465C
:10105000094800F0EFFC002200211B2000F001FCF9
:101060001B2000F01AFC00BF2037BD4680BD00BF2A
:10107000002C0140001002400008014080B485B0FF
:1010800000AF78607B681B68B3F1804F0BD1084BD1
:10109000DB69074A43F00103D361054BDB6903F0C9
:1010A0000103FB60FB6800BF1437BD4680BC70477E
:1010B0000010024080B58CB000AF786007F11C03CF
:1010C00000221A605A609A60DA607B681B68414AA5
:1010D000934246D1404B9B693F4A43F4804393611E
:1010E0003D4B9B6903F48043BB61BB693A4B9B69F1
:1010F000394A43F008039361374B9B6903F00803B7
:101100007B617B694023FB6102233B620323BB625B
:1011100007F11C031946314800F08CFC8023FB6169
:1011200000233B6200237B6207F11C0319462B4816
:1011300000F080FC2A4B5B68FB62FB6A43F0E063D3
:10114000FB62FB6A43F00403FB62254AFB6A5360BF
:1011500000220021252000F084FB252000F09DFBCB
:1011600034E07B681B681F4A93422FD11A4BDB691E
:10117000194A43F40033D361174BDB6903F400339E
:101180003B613B69144B9B69134A43F00403936131
:10119000114B9B6903F00403FB60FB680423FB61B4
:1011A00002233B620323BB6207F11C0319460E486E
:1011B00000F040FC0823FB6100233B6200237B62BC
:1011C00007F11C031946084800F034FC00BF303713
:1011D000BD4680BD0038014000100240000C0140B7
:1011E00000000140004400400008014080B400AF0E
:1011F000FEE780B400AFFEE780B400AFFEE780B446
:1012000000AFFEE780B400AFFEE780B400AF00BFE0
:10121000BD4680BC704780B400AF00BFBD4680BCF7
:10122000704780B400AF00BFBD4680BC704780B53A
:1012300000AF00F0FFF900BF80BD000080B500AF37
:10124000024801F0B1FB00BF80BD00BF28000020B4
:1012500080B500AF024802F045FA00BF80BD00BF74
:10126000B800002080B400AF00BFBD4680BC70470E
:1012700080B483B000AF0346FB80084B1B6800229C
:101280005A6200BF054B1B685A6AFB889A42F9D321
:1012900000BF00BF0C37BD4680BC70477000002007
:1012A00080B582B000AF78607B681B687C4A93424F
:1012B00040F0EC807B681B7F012B71D1794B1B7850
:1012C000002B1AD10021786801F0DAFD0346764A36
:1012D0001360744B01221A707B681B681A6A7B6862
:1012E0001B6822F00A021A627B681B681A6A7B6814
:1012F0001B6842F002021A6252E00021786801F095
:10130000BFFD0346694A1360684B1A68664B1B6849
:101310009A4205D9654B1A68634B1B68D31A07E0DC
:10132000624B1A68604B1B68D31A03F57F43FF3387
:101330005F4A13605E4B1B681846FFF74BF856A3D5
:10134000D3E90023FFF7C0F802460B4610461946C2
:101350004FF000024FF08043FFF7E0F902460B46E2
:1013600010461946FFF7C2FA0346524A13604D4B26
:1013700000221A707B681B681A6A7B681B6822F05F
:101380000A021A627B681A687B681B68126A1A6212
:101390007B681B68DA687B681B6822F00202DA60EF
:1013A0007B681B7F022B71D1434B1B78002B1AD11A
:1013B0000421786801F064FD0346404A13603E4B07
:1013C00001221A707B681B681A6A7B681B6822F00E
:1013D000A0021A627B681B681A6A7B681B6842F06D
:1013E00020021A6252E00421786801F049FD0346A8
:1013F000334A1360324B1A68304B1B689A4205D946
:101400002F4B1A682D4B1B68D31A07E02C4B1A6818
:101410002A4B1B68D31A03F57F43FF33294A136015
:10142000284B1B681846FEF7D5FF1BA3D3E9002302
:10143000FFF74AF802460B46104619464FF00002E5
:101440004FF08043FFF76AF902460B4610461946F3
:10145000FFF74CFA03461C4A1360174B00221A7020
:101460007B681B681A6A7B681B6822F0A0021A62FC
:101470007B681A687B681B68126A1A627B681B6843
:10148000DA687B681B6822F00402DA6000BF083764
:10149000BD4680BDAFF300809CC420B07268A13F00
:1014A000002C0140490100204C0100205001002087
:1014B00054010020580100205C0100206001002040
:1014C00064010020680100206C01002080B500AF9D
:1014D00001224FF480510C4800F047FC0A20FFF72E
:1014E000C7FE00224FF48051074800F03EFC074B36
:1014F0001B68DA68054B1B6842F00202DA60044B95
:101500001B68184680BD00BF000C01402800002069
:101510005801002080B500AF01224FF400510C4863
:1015200000F023FC0A20FFF7A3FE00224FF4005135
:10153000074800F01AFC074B1B68DA68054B1B686C
:1015400042F00402DA60044B1B68184680BD00BFFD
:10155000000C01402800002058010020FFF782FE07
:101560000B480C490C4A002302E0D458C450043301
:10157000C4188C42F9D3094A094C002301E01360D6
:101580000432A242FBD302F033FEFFF7C5FA7047E4
:10159000000000200C000020844200080C00002005
:1015A00074010020FEE7000080B500AF084B1B6807
:1015B000074A43F010031360032000F047F90F209F
:1015C00000F008F8FFF7E0FC0023184680BD00BFDC
:1015D0000020024080B582B000AF7860124B1A68DC
:1015E000124B1B7819464FF47A73B3FBF1F3B2FB3D
:1015F000F3F3184600F05FF90346002B01D00123F6
:101600000EE07B680F2B0AD8002279684FF0FF307C
:1016100000F027F9064A7B681360002300E00123ED
:1016200018460837BD4680BD000000200800002095
:101630000400002080B400AF054B1B781A46054B10
:101640001B681344034A136000BFBD4680BC70474B
:10165000080000207001002080B400AF024B1B681E
:101660001846BD4680BC70477001002080B584B02C
:1016700000AF7860FFF7F0FFB8607B68FB60FB6845
:10168000B3F1FF3F05D00A4B1B781A46FB681344A1
:10169000FB6000BFFFF7E0FF0246BB68D31AFA68A1
:1016A0009A42F7D800BF00BF1037BD4680BD00BFCB
:1016B0000800002080B485B000AF78607B6803F03C
:1016C0000703FB600C4BDB68BB60BA684FF6FF0397
:1016D0001340BB60FB681A02BB68134343F0BF634F
:1016E00043F40033BB60044ABB68D36000BF1437C7
:1016F000BD4680BC704700BF00ED00E080B400AF85
:10170000044BDB681B0A03F007031846BD4680BC88
:10171000704700BF00ED00E080B483B000AF034627
:10172000FB7197F90730002B0BDBFB7903F01F02ED
:10173000064997F907305B09012000FA02F241F8E7
:10174000232000BF0C37BD4680BC704700E100E09D
:1017500080B483B000AF03463960FB7197F907305E
:10176000002B0ADB3B68DAB20C4997F9073012010B
:10177000D2B20B4483F800230AE03B68DAB208498E
:10178000FB7903F00F03043B1201D2B20B441A762B
:1017900000BF0C37BD4680BC704700BF00E100E0D1
:1017A00000ED00E080B489B000AFF860B9607A6005
:1017B000FB6803F00703FB61FB69C3F10703042B1C
:1017C00028BF0423BB61FB690433062B02D9FB69E4
:1017D000033B00E000237B614FF0FF32BB6902FA5C
:1017E00003F3DA43BB681A407B699A404FF0FF313C
:1017F0007B6901FA03F3D9437B680B401343184616
:101800002437BD4680BC704780B582B000AF786099
:101810007B68013BB3F1807F01D301230FE00A4ACB
:101820007B68013B53600F214FF0FF30FFF790FFC3
:10183000054B00229A60044B07221A6000231846C9
:101840000837BD4680BD00BF10E000E080B582B023
:1018500000AF78607868FFF72DFF00BF0837BD46FE
:1018600080BD80B586B000AF0346B9607A60FB7377
:1018700000237B61FFF742FF78617A68B968786975
:10188000FFF790FF024697F90F3011461846FFF711
:101890005FFF00BF1837BD4680BD80B582B000AF86
:1018A0000346FB7197F907301846FFF735FF00BF75
:1018B0000837BD4680BD80B582B000AF78607868DB
:1018C000FFF7A2FF034618460837BD4680BD80B427
:1018D00085B000AF78600023FB737B6893F82130FC
:1018E000DBB2022B08D07B6804229A637B6800225B
:1018F00083F82020012320E07B681B681A687B683E
:101900001B6822F00E021A607B681B681A687B68ED
:101910001B6822F001021A607B681A6C7B68DB6B23
:10192000012101FA02F25A607B68012283F821202A
:101930007B68002283F82020FB7B18461437BD46C5
:1019400080BC704780B584B000AF78600023FB7323
:101950007B6893F82130DBB2022B05D07B68042230
:101960009A630123FB7351E07B681B681A687B68EC
:101970001B6822F00E021A607B681B681A687B687D
:101980001B6822F001021A607B681B68224A93429E
:1019900029D07B681B68214A934222D07B681B6850
:1019A0001F4A93421AD07B681B681E4A934212D08A
:1019B0007B681B681C4A93420AD07B681B681B4AE1
:1019C000934202D14FF480130EE04FF080730BE08E
:1019D0004FF4803308E04FF4805305E04FF48073F8
:1019E00002E0102300E00123114A53607B680122CA
:1019F00083F821207B68002283F820207B685B6BC2
:101A0000002B03D07B685B6B78689847FB7B18469C
:101A10001037BD4680BD00BF080002401C000240D8
:101A20003000024044000240580002406C00024076
:101A30000000024080B48BB000AF786039600023B2
:101A40007B6200233B6269E101227B6A02FA03F3B5
:101A5000FB613B681B68FA691340BB61BA69FB69AB
:101A60009A4240F058813B685B689A4A93425ED044
:101A7000984A934275D8984A934258D0964A9342CE
:101A80006FD8964A934252D0944A934269D8944A66
:101A900093424CD0924A934263D8924A934246D0A2
:101AA000904A93425DD8122B2AD8122B59D801A202
:101AB00052F823F02F1B0008091B00081B1B00080D
:101AC0005D1B0008631B0008631B0008631B000804
:101AD000631B0008631B0008631B0008631B0008EE
:101AE000631B0008631B0008631B0008631B0008DE
:101AF000631B0008631B0008111B0008251B00085E
:101B0000794A934213D02CE03B68DB683B6229E0C2
:101B10003B68DB6804333B6224E03B68DB680833E6
:101B20003B621FE03B68DB680C333B621AE03B68BA
:101B30009B68002B02D104233B6213E03B689B6847
:101B4000012B05D108233B627B68FA691A6109E021
:101B500008233B627B68FA695A6103E000233B6219
:101B600000E000BFBB69FF2B01D87B6801E07B6808
:101B700004337B61BB69FF2B02D87B6A9B0002E0C8
:101B80007B6A083B9B003B617B691A680F213B69BC
:101B900001FA03F3DB431A40396A3B6901FA03F3A4
:101BA0001A437B691A603B685B6803F08053002B23
:101BB00000F0B1804D4B9B694C4A43F001039361A7
:101BC0004A4B9B6903F00103BB60BB68484A7B6AD0
:101BD0009B08023352F82330FB607B6A03F0030357
:101BE0009B000F2202FA03F3DB43FA681340FB6009
:101BF0007B68404A934213D07B683F4A93420DD0A2
:101C00007B683E4A934207D07B683D4A934201D1AC
:101C1000032306E0042304E0022302E0012300E0A2
:101C200000237A6A02F0030292009340FA68134399
:101C3000FB602F497B6A9B080233FA6841F8232036
:101C40003B685B6803F48013002B06D02D4B9A6829
:101C50002C49BB6913438B6006E02A4B9A68BB6929
:101C6000DB43284913408B603B685B6803F4001337
:101C7000002B06D0234BDA682249BB691343CB60A3
:101C800006E0204BDA68BB69DB431E491340CB609A
:101C90003B685B6803F40033002B06D0194B5A688D
:101CA0001849BB6913434B6006E0164B5A68BB6981
:101CB000DB43144913404B603B685B6803F480339B
:101CC000002B21D00F4B1A680E49BB6913430B60E0
:101CD00021E000BF0000321000003110000022108F
:101CE000000021100000121000001110001002402E
:101CF0000000014000080140000C014000100140BC
:101D000000140140000401400B4B1A68BB69DB431F
:101D1000094913400B607B6A01337B623B681A6898
:101D20007B6A22FA03F3002B7FF48EAE00BF00BF64
:101D30002C37BD4680BC70470004014080B485B09C
:101D400000AF78600B467B807B689A687B88134085
:101D5000002B02D00123FB7301E00023FB73FB7B0C
:101D600018461437BD4680BC704780B483B000AFBE
:101D700078600B467B8013467B707B78002B03D00A
:101D80007A887B681A6103E07B881A047B681A6191
:101D900000BF0C37BD4680BC7047000080B586B0E0
:101DA00000AF78607B68002B01D1012372E27B6871
:101DB0001B6803F00103002B00F08780924B5B68E7
:101DC00003F00C03042B0CD08F4B5B6803F00C0367
:101DD000082B12D18C4B5B6803F48033B3F5803F42
:101DE0000BD1894B1B6803F40033002B6CD07B684C
:101DF0005B68002B68D101234CE27B685B68B3F51C
:101E0000803F06D1804B1B687F4A43F480331360C8
:101E10002EE07B685B68002B0CD17B4B1B687A4AF9
:101E200023F480331360784B1B68774A23F48023B4
:101E300013601DE07B685B68B3F5A02F0CD1724B7B
:101E40001B68714A43F4802313606F4B1B686E4A12
:101E500043F4803313600BE06B4B1B686A4A23F436
:101E600080331360684B1B68674A23F48023136038
:101E70007B685B68002B13D0FFF7EEFB386108E04E
:101E8000FFF7EAFB02463B69D31A642B01D903230F
:101E900000E25D4B1B6803F40033002BF0D014E02C
:101EA000FFF7DAFB386108E0FFF7D6FB02463B6933
:101EB000D31A642B01D90323ECE1534B1B6803F4C1
:101EC0000033002BF0D100E000BF7B681B6803F0FB
:101ED0000203002B63D04C4B5B6803F00C03002B18
:101EE0000BD0494B5B6803F00C03082B1CD1464B0D
:101EF0005B6803F48033002B16D1434B1B6803F05F
:101F00000203002B05D07B681B69012B01D0012344
:101F1000C0E13D4B1B6823F0F8027B685B69DB0086
:101F2000394913430B603AE07B681B69002B20D0D2
:101F3000364B01221A60FFF78FFB386108E0FFF78C
:101F40008BFB02463B69D31A022B01D90323A1E183
:101F50002D4B1B6803F00203002BF0D02A4B1B68AB
:101F600023F0F8027B685B69DB00274913430B60B1
:101F700015E0264B00221A60FFF76EFB386108E07F
:101F8000FFF76AFB02463B69D31A022B01D90323F0
:101F900080E11D4B1B6803F00203002BF0D17B682E
:101FA0001B6803F00803002B3AD07B689B69002B69
:101FB00019D0174B01221A60FFF74EFB386108E079
:101FC000FFF74AFB02463B69D31A022B01D90323D0
:101FD00060E10D4B5B6A03F00203002BF0D001209F
:101FE00000F0CEFA1CE00A4B00221A60FFF734FB27
:101FF00038610FE0FFF730FB02463B69D31A022B32
:1020000008D9032346E100BF00100240000042420D
:1020100080044242924B5B6A03F00203002BE9D139
:102020007B681B6803F00403002B00F0A6800023EC
:10203000FB758B4BDB6903F08053002B0DD1884B74
:10204000DB69874A43F08053D361854BDB6903F03A
:102050008053BB60BB680123FB75824B1B6803F494
:102060008073002B18D17F4B1B687E4A43F480732A
:102070001360FFF7F1FA386108E0FFF7EDFA024666
:102080003B69D31A642B01D9032303E1754B1B6809
:1020900003F48073002BF0D07B68DB68012B06D142
:1020A0006F4B1B6A6E4A43F0010313622DE07B689D
:1020B000DB68002B0CD16A4B1B6A694A23F00103D1
:1020C0001362674B1B6A664A23F0040313621CE029
:1020D0007B68DB68052B0CD1614B1B6A604A43F0BF
:1020E000040313625E4B1B6A5D4A43F001031362F3
:1020F0000BE05B4B1B6A5A4A23F001031362584BF7
:102100001B6A574A23F0040313627B68DB68002BC9
:1021100015D0FFF7A1FA38610AE0FFF79DFA0246F1
:102120003B69D31A41F28832934201D90323B1E0CB
:102130004B4B1B6A03F00203002BEED014E0FFF7B9
:102140008BFA38610AE0FFF787FA02463B69D31A37
:1021500041F28832934201D903239BE0404B1B6A32
:1021600003F00203002BEED1FB7D012B05D13C4B8C
:10217000DB693B4A23F08053D3617B68DB69002B2A
:1021800000F08780364B5B6803F00C03082B61D0AE
:102190007B68DB69022B46D1334B00221A60FFF7C4
:1021A0005BFA386108E0FFF757FA02463B69D31A39
:1021B000022B01D903236DE0294B1B6803F0007348
:1021C000002BF0D17B681B6AB3F5803F08D1244B0C
:1021D0005B6823F400327B689B68214913434B60A2
:1021E0001F4B5B6823F474127B68196A7B685B6A17
:1021F0000B431B4913434B601B4B01221A60FFF733
:102200002BFA386108E0FFF727FA02463B69D31A38
:10221000022B01D903233DE0114B1B6803F000732F
:10222000002BF0D035E0104B00221A60FFF714FAB3
:10223000386108E0FFF710FA02463B69D31A022B17
:1022400001D9032326E0064B1B6803F00073002B23
:10225000F0D11EE07B68DB69012B07D1012319E077
:102260000010024000700040600042420B4B5B686F
:10227000FB60FB6803F480327B681B6A9A4206D1DC
:10228000FB6803F470127B685B6A9A4201D00123F9
:1022900000E0002318461837BD4680BD00100240FC
:1022A00080B584B000AF786039607B68002B01D1C5
:1022B0000123D0E06A4B1B6803F007033A689A4297
:1022C00010D9674B1B6823F0070265493B6813432D
:1022D0000B60634B1B6803F007033A689A4201D016
:1022E0000123B8E07B681B6803F00203002B20D0B9
:1022F0007B681B6803F00403002B05D0594B5B6817
:10230000584A43F4E06353607B681B6803F008039A
:10231000002B05D0534B5B68524A43F46053536023
:10232000504B5B6823F0F0027B689B684D49134378
:102330004B607B681B6803F00103002B40D07B6877
:102340005B68012B07D1474B1B6803F40033002B5C
:1023500015D101237FE07B685B68022B07D1414BDD
:102360001B6803F00073002B09D1012373E03D4B80
:102370001B6803F00203002B01D101236BE0394BF2
:102380005B6823F003027B685B68364913434B604C
:10239000FFF762F9F8600AE0FFF75EF90246FB68B2
:1023A000D31A41F28832934201D9032353E02D4BD3
:1023B0005B6803F00C027B685B689B009A42EBD180
:1023C000274B1B6803F007033A689A4210D2244B4C
:1023D0001B6823F0070222493B6813430B60204B24
:1023E0001B6803F007033A689A4201D0012332E0E8
:1023F0007B681B6803F00403002B08D0194B5B6853
:1024000023F4E0627B68DB68164913434B607B680A
:102410001B6803F00803002B09D0124B5B6823F400
:1024200060527B681B69DB000E4913434B6000F070
:1024300021F802460B4B5B681B0903F00F030A49A6
:10244000CB5C22FA03F3094A1360094B1B68184658
:10245000FFF7C0F8002318461037BD4680BD00BF07
:1024600000200240001002405042000800000020FE
:102470000400002080B487B000AF0023FB6000237D
:10248000BB6000237B6100237B6000233B611E4B0C
:102490005B68FB60FB6803F00C03042B02D0082B85
:1024A00003D027E0194B3B6127E0FB689B0C03F04E
:1024B0000F03174AD35C7B60FB6803F48033002B67
:1024C00010D0114B5B685B0C03F00103114AD35C25
:1024D000BB607B680D4A03FB02F2BB68B2FBF3F3FF
:1024E0007B6104E07B680C4A02FB03F37B617B6940
:1024F0003B6102E0054B3B6100BF3B6918461C375E
:10250000BD4680BC704700BF0010024000127A0038
:10251000684200087842000800093D0080B400AF1E
:10252000024B1B681846BD4680BC70470000002067
:1025300080B500AFFFF7F2FF0246054B5B681B0A50
:1025400003F007030349CB5C22FA03F3184680BD6E
:10255000001002406042000880B500AFFFF7DEFFC8
:102560000246054B5B68DB0A03F007030349CB5CBB
:1025700022FA03F3184680BD0010024060420008B2
:1025800080B485B000AF78600A4B1B680A4AA2FB92
:1025900003235B0A7A6802FB03F3FB6000BFFB685E
:1025A0005A1EFA60002BF9D100BF00BF1437BD4698
:1025B00080BC704700000020D34D621080B582B00F
:1025C00000AF78607B68002B01D1012341E07B687C
:1025D00093F83D30DBB2002B06D17B68002283F8F4
:1025E0003C207868FEF74AFD7B68022283F83D2094
:1025F0007B681A687B6804331946104600F0A8FC13
:102600007B68012283F846207B68012283F83E2004
:102610007B68012283F83F207B68012283F84020F9
:102620007B68012283F841207B68012283F84220E5
:102630007B68012283F843207B68012283F84420D1
:102640007B68012283F845207B68012283F83D20C6
:10265000002318460837BD4680BD000080B485B011
:1026600000AF78607B6893F83D30DBB2012B01D07E
:10267000012332E07B68022283F83D207B681B68DF
:10268000184A93420ED07B681B68B3F1804F09D083
:102690007B681B68144A934204D07B681B68134A0A
:1026A000934211D17B681B689B6803F00703FB60B2
:1026B000FB68062B10D07B681B681A687B681B6858
:1026C00042F001021A6007E07B681B681A687B68A9
:1026D0001B6842F001021A60002318461437BD46F9
:1026E00080BC7047002C01400004004000080040FE
:1026F00080B582B000AF78607B68002B01D10123E8
:1027000041E07B6893F83D30DBB2002B06D17B685B
:10271000002283F83C207868FEF768FC7B68022280
:1027200083F83D207B681A687B680433194610469D
:1027300000F00EFC7B68012283F846207B680122B2
:1027400083F83E207B68012283F83F207B680122CA
:1027500083F840207B68012283F841207B680122B6
:1027600083F842207B68012283F843207B680122A2
:1027700083F844207B68012283F845207B6801228E
:1027800083F83D20002318460837BD4680BD000071
:1027900080B584B000AF786039600023FB733B687C
:1027A000002B04D17B6893F83E30DBB213E03B682A
:1027B000042B04D17B6893F83F30DBB20BE03B681D
:1027C000082B04D17B6893F84030DBB203E07B68D0
:1027D00093F84130DBB2BB733B68002B04D17B68BC
:1027E00093F84230DBB213E03B68042B04D17B68E2
:1027F00093F84330DBB20BE03B68082B04D17B68D5
:1028000093F84430DBB203E07B6893F84530DBB2E9
:102810007B73BB7B012B02D17B7B012B01D001237E
:10282000B8E03B68002B04D17B68022283F83E208D
:1028300013E03B68042B04D17B68022283F83F201D
:102840000BE03B68082B04D17B68022283F8402010
:1028500003E07B68022283F841203B68002B04D10F
:102860007B68022283F8422013E03B68042B04D1EA
:102870007B68022283F843200BE03B68082B04D1DD
:102880007B68022283F8442003E07B68022283F8FD
:1028900045203B680C2B41D801A252F823F000BF21
:1028A000D52800081D2900081D2900081D29000839
:1028B000E72800081D2900081D2900081D29000817
:1028C000F92800081D2900081D2900081D290008F5
:1028D0000B2900087B681B68DA687B681B6842F07C
:1028E0000202DA601DE07B681B68DA687B681B689F
:1028F00042F00402DA6014E07B681B68DA687B68E7
:102900001B6842F00802DA600BE07B681B68DA683B
:102910007B681B6842F01002DA6002E00123FB735F
:1029200000BFFB7B002B34D17B681B680122396818
:10293000184600F012FD7B681B68184A93420ED0BF
:102940007B681B68B3F1804F09D07B681B68144A11
:10295000934204D07B681B68124A934211D17B6872
:102960001B689B6803F00703BB60BB68062B10D095
:102970007B681B681A687B681B6842F001021A605A
:1029800007E07B681B681A687B681B6842F00102DD
:102990001A60FB7B18461037BD4680BD002C0140F5
:1029A000000400400008004080B582B000AF7860AD
:1029B0007B681B681B6903F00203022B22D17B6832
:1029C0001B68DB6803F00203022B1BD17B681B68CA
:1029D0006FF002021A617B6801221A777B681B681C
:1029E0009B6903F00303002B03D07868FEF758FCC3
:1029F00005E0786800F091FA786800F097FA7B6853
:102A000000221A777B681B681B6903F00403042B00
:102A100022D17B681B68DB6803F00403042B1BD105
:102A20007B681B686FF004021A617B6802221A77C8
:102A30007B681B689B6903F44073002B03D07868A4
:102A4000FEF72EFC05E0786800F067FA786800F081
:102A50006DFA7B6800221A777B681B681B6903F09C
:102A60000803082B22D17B681B68DB6803F008038E
:102A7000082B1BD17B681B686FF008021A617B680A
:102A800004221A777B681B68DB6903F00303002BC1
:102A900003D07868FEF704FC05E0786800F03DFAA2
:102AA000786800F043FA7B6800221A777B681B681D
:102AB0001B6903F01003102B22D17B681B68DB68B5
:102AC00003F01003102B1BD17B681B686FF0100202
:102AD0001A617B6808221A777B681B68DB6903F43C
:102AE0004073002B03D07868FEF7DAFB05E07868C6
:102AF00000F013FA786800F019FA7B6800221A7760
:102B00007B681B681B6903F00103012B0ED17B68F6
:102B10001B68DB6803F00103012B07D17B681B688E
:102B20006FF001021A61786800F0EEF97B681B68AB
:102B30001B6903F08003802B0ED17B681B68DB6868
:102B400003F08003802B07D17B681B686FF0800245
:102B50001A61786800F08DFC7B681B681B6903F0C4
:102B60004003402B0ED17B681B68DB6803F04003F9
:102B7000402B07D17B681B686FF040021A617868B0
:102B800000F0DDF97B681B681B6903F02003202B34
:102B90000ED17B681B68DB6803F02003202B07D174
:102BA0007B681B686FF020021A61786800F058FC9F
:102BB00000BF0837BD4680BD80B586B000AFF86065
:102BC000B9607A600023FB75FB6893F83C30012BF9
:102BD00001D1022388E0FB68012283F83C207B6856
:102BE000002B1BD1FB681868BB681968BB685A6862
:102BF000BB68DB6800F00EFAFB681B689A69FB682B
:102C00001B6822F00C029A61FB681B689969BB681B
:102C10009A68FB681B680A439A6160E07B68042B32
:102C20001CD1FB681868BB681968BB685A68BB6828
:102C3000DB6800F077FAFB681B689A69FB681B6821
:102C400022F440629A61FB681B689969BB689B68C3
:102C50001A02FB681B680A439A6140E07B68082BF4
:102C60001BD1FB681868BB681968BB685A68BB68E9
:102C7000DB6800F0C2FAFB681B68DA69FB681B6856
:102C800022F00C02DA61FB681B68D969BB689A689C
:102C9000FB681B680A43DA6121E07B680C2B1CD1BE
:102CA000FB681868BB681968BB685A68BB68DB6852
:102CB00000F0DEFAFB681B68DA69FB681B6822F427
:102CC0004062DA61FB681B68D969BB689B681A02BD
:102CD000FB681B680A43DA6101E00123FB75FB68AE
:102CE000002283F83C20FB7D18461837BD4680BD86
:102CF00080B584B000AF786039600023FB737B68D7
:102D000093F83C30012B01D10223B4E07B6801220F
:102D100083F83C207B68022283F83D207B681B6897
:102D20009B68BB60BB6823F07703BB60BB6823F480
:102D30007F43BB607B681B68BA689A603B681B680E
:102D4000B3F5005F3ED0B3F5005F00F28780B3F5C6
:102D5000805F00F08680B3F5805F7FD8702B1AD03B
:102D6000702B7BD8602B50D0602B77D8502B3CD069
:102D7000502B73D8402B58D0402B6FD8302B64D0B9
:102D8000302B6BD8202B60D0202B67D8002B5CD049
:102D9000102B5AD062E07B6818683B6899683B68E2
:102DA0005A683B68DB6800F0B9FA7B681B689B686F
:102DB000BB60BB6843F07703BB607B681B68BA6885
:102DC0009A604FE07B6818683B6899683B685A686E
:102DD0003B68DB6800F0A2FA7B681B689A687B6836
:102DE0001B6842F480429A603CE07B6818683B684C
:102DF00059683B68DB681A4600F066F97B681B6817
:102E00005021184600F070FA2CE07B6818683B6887
:102E100059683B68DB681A4600F0C0F97B681B689C
:102E20006021184600F060FA1CE07B6818683B6877
:102E300059683B68DB681A4600F046F97B681B68F6
:102E40004021184600F050FA0CE07B681A683B6895
:102E50001B681946104600F047FA03E00123FB7394
:102E600000E000BF7B68012283F83D207B680022E0
:102E700083F83C20FB7B18461037BD4680BD000020
:102E800080B485B000AF786039600023FB603B6898
:102E90000C2B31D801A252F823F000BFD12E00082C
:102EA000F92E0008F92E0008F92E0008DB2E000884
:102EB000F92E0008F92E0008F92E0008E52E00086A
:102EC000F92E0008F92E0008F92E0008EF2E000850
:102ED0007B681B685B6BFB600FE07B681B689B6B10
:102EE000FB600AE07B681B68DB6BFB6005E07B68CE
:102EF0001B681B6CFB6000E000BFFB6818461437C2
:102F0000BD4680BC704700BF80B483B000AF78601E
:102F100000BF0C37BD4680BC704780B483B000AFA3
:102F2000786000BF0C37BD4680BC704780B483B06A
:102F300000AF786000BF0C37BD4680BC704780B4DE
:102F400083B000AF786000BF0C37BD4680BC7047CF
:102F500080B485B000AF786039607B681B68FB6027
:102F60007B68294A93420BD07B68B3F1804F07D02E
:102F70007B68264A934203D07B68254A934208D156
:102F8000FB6823F07003FB603B685B68FA681343DF
:102F9000FB607B681C4A93420BD07B68B3F1804F87
:102FA00007D07B68194A934203D07B68184A934242
:102FB00008D1FB6823F44073FB603B68DB68FA6868
:102FC0001343FB60FB6823F080023B685B6913439B
:102FD000FB607B68FA681A603B689A687B68DA6213
:102FE0003B681A687B689A627B68074A934203D100
:102FF0003B681A697B681A637B6801225A6100BFCB
:103000001437BD4680BC7047002C014000040040CE
:103010000008004080B487B000AFF860B9607A6003
:103020003B60FB681B6A3B61FB681B6A23F0010283
:10303000FB681A62FB689B697B61FB681F4A9342CD
:103040000BD0FB68B3F1804F07D0FB681C4A93425A
:1030500003D0FB681B4A934201D1012300E0002307
:10306000002B08D07B6923F003037B617A697B68BE
:1030700013437B6103E07B6943F001037B617B6960
:1030800023F0F0037B613B681B01DBB27A691343D9
:103090007B613B6923F00A033B61BB6803F00A03D1
:1030A0003A6913433B61FB687A699A61FB683A6944
:1030B0001A6200BF1C37BD4680BC7047002C01401F
:1030C000000400400008004080B487B000AFF86002
:1030D000B9607A60FB681B6A7B61FB681B6A23F03E
:1030E0000102FB681A62FB689B693B613B6923F044
:1030F000F0033B617B681B013A6913433B617B69C9
:1031000023F00A037B617A69BB6813437B61FB6828
:103110003A699A61FB687A691A6200BF1C37BD463A
:1031200080BC704780B487B000AFF860B9607A6047
:103130003B60FB681B6A7B61FB681B6A23F0100223
:10314000FB681A62FB689B693B613B6923F440732F
:103150003B617B681B023A6913433B613B6923F483
:1031600070433B613B681B039BB23A6913433B616D
:103170007B6923F0A0037B61BB681B0103F0A00304
:103180007A6913437B61FB683A699A61FB687A69E3
:103190001A6200BF1C37BD4680BC704780B487B040
:1031A00000AFF860B9607A60FB681B6A7B61FB68FE
:1031B0001B6A23F01002FB681A62FB689B693B6183
:1031C0003B6923F470433B617B681B033A691343FB
:1031D0003B617B6923F0A0037B61BB681B017A69BB
:1031E00013437B61FB683A699A61FB687A691A62EA
:1031F00000BF1C37BD4680BC704780B487B000AFAD
:10320000F860B9607A603B60FB681B6A7B61FB68B1
:103210001B6A23F48072FB681A62FB68DB693B61FE
:103220003B6923F003033B613A697B6813433B61CD
:103230003B6923F0F0033B613B681B01DBB23A6959
:1032400013433B617B6923F400737B61BB681B0202
:1032500003F400737A6913437B61FB683A69DA61AE
:10326000FB687A691A6200BF1C37BD4680BC704794
:1032700080B487B000AFF860B9607A603B60FB68EB
:103280001B6A7B61FB681B6A23F48052FB681A622D
:10329000FB68DB693B613B6923F440733B617B68FE
:1032A0001B023A6913433B613B6923F470433B6162
:1032B0003B681B039BB23A6913433B617B6923F470
:1032C00000537B61BB681B0303F400537A6913430B
:1032D0007B61FB683A69DA61FB687A691A6200BF50
:1032E0001C37BD4680BC704780B485B000AF7860A5
:1032F00039607B689B68FB60FB6823F07003FB60B0
:103300003A68FB68134343F00703FB607B68FA6885
:103310009A6000BF1437BD4680BC704780B487B048
:1033200000AFF860B9607A603B60FB689B687B61C6
:103330007B6923F47F437B613B681A027B681A43F5
:10334000BB6813437A6913437B61FB687A699A60AF
:1033500000BF1C37BD4680BC704780B487B000AF4B
:10336000F860B9607A60BB6803F01F03012202FABB
:1033700003F37B61FB681A6A7B69DB431A40FB68D5
:103380001A62FB681A6ABB6803F01F03796801FAC6
:1033900003F31A43FB681A6200BF1C37BD4680BCAA
:1033A0007047000080B485B000AF786039607B68FA
:1033B00093F83C30012B01D1022346E07B680122C7
:1033C00083F83C207B68022283F83D207B681B68E1
:1033D0005B68FB607B681B689B68BB60FB6823F0D5
:1033E0007003FB603B681B68FA681343FB607B68F3
:1033F0001B68FA685A607B681B68164A93420ED0B5
:103400007B681B68B3F1804F09D07B681B68124A48
:10341000934204D07B681B68104A93420CD1BB686E
:1034200023F08003BB603B685B68BA681343BB60F2
:103430007B681B68BA689A607B68012283F83D202C
:103440007B68002283F83C20002318461437BD46D1
:1034500080BC7047002C0140000400400008004080
:1034600080B483B000AF786000BF0C37BD4680BC2D
:10347000704780B483B000AF786000BF0C37BD46A2
:1034800080BC704780B582B000AF78607B68002B4D
:1034900001D1012342E07B6893F84130DBB2002B7D
:1034A00006D17B68002283F840207868FDF702FE91
:1034B0007B68242283F841207B681B68DA687B687C
:1034C0001B6822F40052DA60786800F0FBFD7B682C
:1034D0001B681A697B681B6822F490421A617B683A
:1034E0001B685A697B681B6822F02A025A617B6854
:1034F0001B68DA687B681B6842F40052DA607B68FC
:1035000000225A647B68202283F841207B682022B5
:1035100083F842207B6800225A630023184608374C
:10352000BD4680BD80B58AB002AFF860B9603B602F
:103530001346FB8000237B61FB6893F84130DBB2CC
:10354000202B6DD1BB68002B02D0FB88002B01D152
:10355000012366E0FB6800225A64FB68212283F89D
:103560004120FEF779F87861FB68FA889A84FB6855
:10357000FA88DA84FB689B68B3F5805F08D1FB6842
:103580001B69002B04D10023FB61BB68BB6103E016
:10359000BB68FB610023BB612AE03B6800937B6949
:1035A00000228021F86800F04AFB0346002B01D07E
:1035B000032336E0FB69002B0BD1BB691B881A463D
:1035C000FB681B68C2F308025A60BB690233BB6127
:1035D00007E0FB691A78FB681B685A60FB690133D6
:1035E000FB61FB68DB8C9BB2013B9AB2FB68DA841F
:1035F000FB68DB8C9BB2002BCFD13B6800937B69CF
:1036000000224021F86800F01AFB0346002B01D08D
:10361000032306E0FB68202283F84120002300E01A
:10362000022318462037BD4680BD80B58CB000AF60
:10363000F860B9601346FB80FB6893F84230DBB258
:10364000202B4AD1BB68002B02D0FB88002B01D174
:10365000012343E0FB6801221A63FB6800225A63DE
:10366000FB881A46B968F86800F057FB034687F8EC
:103670002F3097F82F30002B2CD1FB681B6B012BC0
:1036800025D100233B61FB681B681B683B61FB681D
:103690001B685B683B613B69FB681B680C33BB6163
:1036A000BB6953E8003F7B617B6943F01003BB6259
:1036B000FB681B680C33BA6A7A623B62396A7A6AC1
:1036C00041E80023FB61FB69002BE5D102E0012307
:1036D00087F82F3097F82F3000E002231846303754
:1036E000BD4680BD80B5BAB000AF78607B681B680E
:1036F0001B68C7F8E4307B681B68DB68C7F8E030FC
:103700007B681B685B69C7F8DC300023C7F8D830DA
:103710000023C7F8D430D7F8E43003F00F03C7F81C
:10372000D830D7F8D830002B0FD1D7F8E43003F0D9
:103730002003002B09D0D7F8E03003F02003002B42
:1037400003D0786800F0FFFB5BE2D7F8D830002B9D
:1037500000F0DE80D7F8DC3003F00103002B06D147
:10376000D7F8E03003F49073002B00F0D180D7F845
:10377000E43003F00103002B0BD0D7F8E03003F462
:103780008073002B05D07B685B6C43F001027B6883
:103790005A64D7F8E43003F00403002B0BD0D7F8B9
:1037A000DC3003F00103002B05D07B685B6C43F039
:1037B00002027B685A64D7F8E43003F00203002B5E
:1037C0000BD0D7F8DC3003F00103002B05D07B6869
:1037D0005B6C43F004027B685A64D7F8E43003F072
:1037E0000803002B11D0D7F8E03003F02003002BA2
:1037F00005D1D7F8DC3003F00103002B05D07B683E
:103800005B6C43F008027B685A647B685B6C002B3E
:1038100000F0F281D7F8E43003F02003002B08D049
:10382000D7F8E03003F02003002B02D0786800F0D6
:103830008AFB7B681B685B6903F04003002B14BFA5
:1038400001230023DBB2C7F8D4307B685B6C03F044
:103850000803002B03D1D7F8D430002B4FD0786861
:1038600000F094FA7B681B685B6903F04003002B4F
:1038700041D07B681B681433C7F89C30D7F89C3064
:1038800053E8003FC7F89830D7F8983023F040034A
:10389000C7F8D0307B681B681433D7F8D020C7F83E
:1038A000A820C7F8A430D7F8A410D7F8A82041E87A
:1038B0000023C7F8A030D7F8A030002BD9D17B68FF
:1038C000DB6B002B13D07B68DB6B7E4A5A637B6813
:1038D000DB6B1846FEF736F80346002B16D07B68E4
:1038E000DB6B5B6B7A68D26B104698470EE07868AA
:1038F00000F09CF90AE0786800F098F906E0786832
:1039000000F094F97B6800225A6475E100BF73E10E
:103910007B681B6B012B40F04F81D7F8E43003F03C
:103920001003002B00F04881D7F8E03003F01003BB
:10393000002B00F041810023BB607B681B681B6883
:10394000BB607B681B685B68BB60BB687B681B688F
:103950005B6903F04003002B00F0B6807B68DB6BF3
:103960001B685B68A7F8BE30B7F8BE30002B00F0CC
:1039700045817B689B8DB7F8BE209A4280F03E81DE
:103980007B68B7F8BE20DA857B68DB6B9B69202BF0
:1039900000F088807B681B680C33C7F88830D7F844
:1039A000883053E8003FC7F88430D7F8843023F4D8
:1039B0008073C7F8B8307B681B680C33D7F8B82021
:1039C000C7F89420C7F89030D7F89010D7F8942013
:1039D00041E80023C7F88C30D7F88C30002BD9D1C0
:1039E0007B681B6814337B677B6F53E8003F3B6742
:1039F0003B6F23F00103C7F8B4307B681B681433B6
:103A0000D7F8B420C7F88020FB67F96FD7F880207B
:103A100041E80023BB67BB6F002BE1D17B681B68CB
:103A200014333B663B6E53E8003FFB65FB6D23F0B0
:103A30004003C7F8B0307B681B681433D7F8B02058
:103A4000FA66BB66B96EFA6E41E800237B667B6E50
:103A5000002BE3D17B68202283F842207B68002280
:103A60001A637B681B680C33FB64FB6C53E8003FF4
:103A7000BB64BB6C23F01003C7F8AC307B681B68D9
:103A80000C33D7F8AC20BA657B65796DBA6D41E827
:103A900000233B653B6D002BE3D17B68DB6B184655
:103AA000FDF715FF7B6802225A637B689A8D7B685D
:103AB000DB8D9BB2D31A9BB219467868FCF7DCFF0A
:103AC0009CE000BF513E00087B689A8D7B68DB8DCF
:103AD0009BB2D31AA7F8CE307B68DB8D9BB2002B4C
:103AE00000F08E80B7F8CE30002B00F089807B6824
:103AF0001B680C33BB63BB6B53E8003F7B637B6B82
:103B000023F49073C7F8C8307B681B680C33D7F870
:103B1000C8207A643B64396C7A6C41E80023FB630B
:103B2000FB6B002BE3D17B681B6814337B627B6AE1
:103B300053E8003F3B623B6A23F00103C7F8C430FF
:103B40007B681B681433D7F8C4203A63FB62F96AB8
:103B50003A6B41E80023BB62BB6A002BE3D17B6870
:103B6000202283F842207B6800221A637B681B684E
:103B70000C333B613B6953E8003FFB60FB6823F07B
:103B80001003C7F8C0307B681B680C33D7F8C0201F
:103B9000FA61BB61B969FA6941E800237B617B691D
:103BA000002BE3D17B6802225A63B7F8CE30194666
:103BB0007868FCF761FF23E0D7F8E43003F0800376
:103BC000002B09D0D7F8E03003F08003002B03D09E
:103BD000786800F051F914E0D7F8E43003F04003BE
:103BE000002B0ED0D7F8E03003F04003002B08D0B4
:103BF000786800F090F904E000BF02E000BF00E048
:103C000000BFE837BD4680BD80B483B000AF7860A8
:103C100000BF0C37BD4680BC704780B483B000AF96
:103C2000786000BF0C37BD4680BC704780B483B05D
:103C300000AF786000BF0C37BD4680BC704780B5D0
:103C400090B000AFF860B9603B601346FB7150E084
:103C5000BB6CB3F1FF3F4CD0BB6C002B07D0FDF722
:103C6000FBFC02463B68D31ABA6C9A4241D2FB680D
:103C70001B680C33BB62BB6A53E8003F7B627B6A04
:103C800023F4D073FB63FB681B680C33FA6B7A6315
:103C90003B63396B7A6B41E80023FB62FB6A002BC4
:103CA000E5D1FB681B6814337B617B6953E8003FF7
:103CB0003B613B6923F00103BB63FB681B68143362
:103CC000BA6B3A62FB61F9693A6A41E80023BB6169
:103CD000BB69002BE5D1FB68202283F84120FB68FB
:103CE000202283F84220FB68002283F8402003232F
:103CF0000FE0FB681B681A68BB681340BA689A42F9
:103D00000CBF01230023DBB21A46FB799A429FD0F5
:103D1000002318464037BD4680BD80B485B000AF53
:103D2000F860B9601346FB80FB68BA689A62FB686A
:103D3000FA889A85FB68FA88DA85FB6800225A645B
:103D4000FB68222283F84220FB681B69002B07D006
:103D5000FB681B68DA68FB681B6842F48072DA60F3
:103D6000FB681B685A69FB681B6842F001025A61D4
:103D7000FB681B68DA68FB681B6842F02002DA60A7
:103D8000002318461437BD4680BC704780B495B0F8
:103D900000AF78607B681B680C337B637B6B53E8F8
:103DA000003F3B633B6B23F49073FB647B681B68B1
:103DB0000C33FA6C3A64FB63F96B3A6C41E800230C
:103DC000BB63BB6B002BE5D17B681B6814333B6284
:103DD0003B6A53E8003FFB61FB6923F00103BB64CE
:103DE0007B681B681433BA6CFA62BB62B96AFA6A00
:103DF00041E800237B627B6A002BE5D17B681B6B6B
:103E0000012B19D17B681B680C33FB60FB6853E8FE
:103E1000003FBB60BB6823F010037B647B681B68BA
:103E20000C337A6CBA617B617969BA6941E8002325
:103E30003B613B69002BE5D17B68202283F842205F
:103E40007B6800221A6300BF5437BD4680BC7047B0
:103E500080B584B000AF78607B685B6AFB60FB680C
:103E60000022DA85FB680022DA84F868FFF7DEFEBC
:103E700000BF1037BD4680BD80B485B000AF78600C
:103E80007B6893F84130DBB2212B3ED17B689B6885
:103E9000B3F5805F14D17B681B69002B10D17B6860
:103EA0001B6AFB60FB681B881A467B681B68C2F3B1
:103EB00008025A607B681B6A9A1C7B681A6208E0D9
:103EC0007B681B6A591C7A6811621A787B681B68C8
:103ED0005A607B68DB8C9BB2013B9BB27A681946C7
:103EE000D184002B0FD17B681B68DA687B681B6864
:103EF00022F08002DA607B681B68DA687B681B68E6
:103F000042F04002DA60002300E002231846143732
:103F1000BD4680BC704780B582B000AF78607B68DA
:103F20001B68DA687B681B6822F04002DA607B68F5
:103F3000202283F841207868FFF766FE00231846A8
:103F40000837BD4680BD80B58CB000AF78607B6817
:103F500093F84230DBB2222B40F0AE807B689B6846
:103F6000B3F5805F17D17B681B69002B13D1002349
:103F7000FB627B689B6ABB627B681B685B689BB269
:103F8000C3F308039AB2BB6A1A807B689B6A9A1CC7
:103F90007B689A6226E07B689B6AFB620023BB62B7
:103FA0007B689B68B3F5805F07D07B689B68002BBC
:103FB0000AD17B681B69002B06D17B681B685B6894
:103FC000DAB2FB6A1A7008E07B681B685B68DBB2D8
:103FD00003F07F03DAB2FB6A1A707B689B6A5A1C93
:103FE0007B689A627B68DB8D9BB2013B9BB27A68EF
:103FF0001946D185002B5DD17B681B68DA687B6828
:104000001B6822F02002DA607B681B68DA687B6834
:104010001B6822F48072DA607B681B685A697B68CF
:104020001B6822F001025A617B68202283F842203B
:104030007B6800225A637B681B6B012B35D17B6840
:1040400000221A637B681B680C337B617B6953E831
:10405000003F3B613B6923F010037B627B681B6878
:104060000C337A6A3A62FB61F9693A6A41E80023E3
:10407000BB61BB69002BE5D17B681B681B6803F043
:104080001003102B0AD10023FB607B681B681B68A0
:10409000FB607B681B685B68FB60FB687B689B8DD3
:1040A00019467868FCF7E8FC02E07868FFF7B5FD90
:1040B000002302E0002300E0022318463037BD460B
:1040C00080BD000080B584B000AF78607B681B685D
:1040D0001B6923F440517B68DA687B681B680A43DC
:1040E0001A617B689A687B681B691A437B685B6905
:1040F0001343BB607B681B68DB6823F4B05323F079
:104100000C037A681268B9680B43D3607B681B683C
:104110005B6923F440717B689A697B681B680A437A
:104120005A617B681B682C4A934203D1FEF714FA4C
:10413000F86002E0FEF7FCF9F860FA6813469B00AD
:1041400013449A001A447B685B689B00B2FBF3F34C
:10415000224AA2FB03235B091901FA6813469B005C
:1041600013449A001A447B685B689B00B2FBF3F22D
:104170001A4BA3FB02035B09642000FB03F3D31A71
:104180001B013233154AA2FB03235B0903F0F00342
:104190001944FA6813469B0013449A001A447B683A
:1041A0005B689B00B2FBF3F20C4BA3FB02035B09C1
:1041B000642000FB03F3D31A1B013233074AA2FB2E
:1041C00003235B0903F00F027B681B680A449A60B3
:1041D00000BF1037BD4680BD003801401F85EB5140
:1041E00003460244934200D1704703F8011BF9E7EC
:1041F00070B500260C4D0D4C641BA410A64209D1CD
:1042000000F01AF800260A4D0A4C641BA410A642BE
:1042100005D170BD55F8043B98470136EEE755F8D7
:10422000043B98470136F2E77C4200087C420008D4
:104230007C42000880420008F8B500BFF8BC08BC0A
:104240009E467047F8B500BFF8BC08BC9E46704754
:104250000000000000000000010203040607080936
:104260000000000001020304020304050607080918
:0C4270000A0B0C0D0E0F101001020000D4
:04427C003501000800
:044280001101000820
:0C4284000024F400100000000100000005
:040000050800155D7D
:00000001FF
